{"contracts/LeaseManager.sol":{"LeaseManager":{"abi":[{"inputs":[{"internalType":"address","name":"_paymentToken","type":"address"}],"stateMutability":"nonpayable","type":"constructor"},{"inputs":[{"internalType":"address","name":"owner","type":"address"}],"name":"OwnableInvalidOwner","type":"error"},{"inputs":[{"internalType":"address","name":"account","type":"address"}],"name":"OwnableUnauthorizedAccount","type":"error"},{"inputs":[],"name":"ReentrancyGuardReentrantCall","type":"error"},{"anonymous":false,"inputs":[{"indexed":true,"internalType":"uint256","name":"leaseId","type":"uint256"}],"name":"LeaseActivated","type":"event"},{"anonymous":false,"inputs":[{"indexed":true,"internalType":"uint256","name":"leaseId","type":"uint256"}],"name":"LeaseCancelled","type":"event"},{"anonymous":false,"inputs":[{"indexed":true,"internalType":"uint256","name":"leaseId","type":"uint256"},{"indexed":true,"internalType":"address","name":"landlord","type":"address"},{"indexed":true,"internalType":"address","name":"tenant","type":"address"},{"indexed":false,"internalType":"uint256","name":"monthlyRent","type":"uint256"},{"indexed":false,"internalType":"uint256","name":"securityDeposit","type":"uint256"}],"name":"LeaseCreated","type":"event"},{"anonymous":false,"inputs":[{"indexed":true,"internalType":"uint256","name":"leaseId","type":"uint256"}],"name":"LeaseTerminated","type":"event"},{"anonymous":false,"inputs":[{"indexed":true,"internalType":"address","name":"previousOwner","type":"address"},{"indexed":true,"internalType":"address","name":"newOwner","type":"address"}],"name":"OwnershipTransferred","type":"event"},{"anonymous":false,"inputs":[{"indexed":true,"internalType":"uint256","name":"leaseId","type":"uint256"},{"indexed":true,"internalType":"address","name":"tenant","type":"address"},{"indexed":false,"internalType":"uint256","name":"amount","type":"uint256"},{"indexed":false,"internalType":"uint256","name":"forMonth","type":"uint256"},{"indexed":false,"internalType":"uint256","name":"forYear","type":"uint256"}],"name":"RentPaid","type":"event"},{"anonymous":false,"inputs":[{"indexed":true,"internalType":"uint256","name":"leaseId","type":"uint256"},{"indexed":true,"internalType":"address","name":"tenant","type":"address"},{"indexed":false,"internalType":"uint256","name":"amount","type":"uint256"}],"name":"SecurityDepositPaid","type":"event"},{"anonymous":false,"inputs":[{"indexed":true,"internalType":"uint256","name":"leaseId","type":"uint256"},{"indexed":true,"internalType":"address","name":"tenant","type":"address"},{"indexed":false,"internalType":"uint256","name":"amount","type":"uint256"}],"name":"SecurityDepositReturned","type":"event"},{"inputs":[{"internalType":"uint256","name":"_leaseId","type":"uint256"}],"name":"cancelLease","outputs":[],"stateMutability":"nonpayable","type":"function"},{"inputs":[{"internalType":"address","name":"_tenant","type":"address"},{"internalType":"address","name":"_propertyToken","type":"address"},{"internalType":"uint256","name":"_monthlyRent","type":"uint256"},{"internalType":"uint256","name":"_securityDeposit","type":"uint256"},{"internalType":"uint256","name":"_startDate","type":"uint256"},{"internalType":"uint256","name":"_endDate","type":"uint256"},{"internalType":"string","name":"_propertyAddress","type":"string"},{"internalType":"string","name":"_terms","type":"string"}],"name":"createLease","outputs":[{"internalType":"uint256","name":"","type":"uint256"}],"stateMutability":"nonpayable","type":"function"},{"inputs":[{"internalType":"address","name":"_landlord","type":"address"}],"name":"getLandlordLeases","outputs":[{"internalType":"uint256[]","name":"","type":"uint256[]"}],"stateMutability":"view","type":"function"},{"inputs":[{"internalType":"uint256","name":"_leaseId","type":"uint256"}],"name":"getLease","outputs":[{"components":[{"internalType":"uint256","name":"leaseId","type":"uint256"},{"internalType":"address","name":"landlord","type":"address"},{"internalType":"address","name":"tenant","type":"address"},{"internalType":"address","name":"propertyToken","type":"address"},{"internalType":"uint256","name":"monthlyRent","type":"uint256"},{"internalType":"uint256","name":"securityDeposit","type":"uint256"},{"internalType":"uint256","name":"startDate","type":"uint256"},{"internalType":"uint256","name":"endDate","type":"uint256"},{"internalType":"string","name":"propertyAddress","type":"string"},{"internalType":"string","name":"terms","type":"string"},{"internalType":"enum LeaseManager.LeaseStatus","name":"status","type":"uint8"},{"internalType":"uint256","name":"depositPaid","type":"uint256"},{"internalType":"uint256","name":"lastRentPayment","type":"uint256"},{"internalType":"uint256","name":"totalRentPaid","type":"uint256"},{"internalType":"bool","name":"depositReturned","type":"bool"}],"internalType":"struct LeaseManager.LeaseAgreement","name":"","type":"tuple"}],"stateMutability":"view","type":"function"},{"inputs":[{"internalType":"uint256","name":"_leaseId","type":"uint256"}],"name":"getRentPayments","outputs":[{"components":[{"internalType":"uint256","name":"leaseId","type":"uint256"},{"internalType":"address","name":"payer","type":"address"},{"internalType":"uint256","name":"amount","type":"uint256"},{"internalType":"uint256","name":"timestamp","type":"uint256"},{"internalType":"uint256","name":"forMonth","type":"uint256"},{"internalType":"uint256","name":"forYear","type":"uint256"}],"internalType":"struct LeaseManager.RentPayment[]","name":"","type":"tuple[]"}],"stateMutability":"view","type":"function"},{"inputs":[{"internalType":"address","name":"_tenant","type":"address"}],"name":"getTenantLeases","outputs":[{"internalType":"uint256[]","name":"","type":"uint256[]"}],"stateMutability":"view","type":"function"},{"inputs":[{"internalType":"uint256","name":"_leaseId","type":"uint256"}],"name":"isLeaseExpired","outputs":[{"internalType":"bool","name":"","type":"bool"}],"stateMutability":"view","type":"function"},{"inputs":[{"internalType":"address","name":"","type":"address"},{"internalType":"uint256","name":"","type":"uint256"}],"name":"landlordLeases","outputs":[{"internalType":"uint256","name":"","type":"uint256"}],"stateMutability":"view","type":"function"},{"inputs":[{"internalType":"uint256","name":"","type":"uint256"}],"name":"leases","outputs":[{"internalType":"uint256","name":"leaseId","type":"uint256"},{"internalType":"address","name":"landlord","type":"address"},{"internalType":"address","name":"tenant","type":"address"},{"internalType":"address","name":"propertyToken","type":"address"},{"internalType":"uint256","name":"monthlyRent","type":"uint256"},{"internalType":"uint256","name":"securityDeposit","type":"uint256"},{"internalType":"uint256","name":"startDate","type":"uint256"},{"internalType":"uint256","name":"endDate","type":"uint256"},{"internalType":"string","name":"propertyAddress","type":"string"},{"internalType":"string","name":"terms","type":"string"},{"internalType":"enum LeaseManager.LeaseStatus","name":"status","type":"uint8"},{"internalType":"uint256","name":"depositPaid","type":"uint256"},{"internalType":"uint256","name":"lastRentPayment","type":"uint256"},{"internalType":"uint256","name":"totalRentPaid","type":"uint256"},{"internalType":"bool","name":"depositReturned","type":"bool"}],"stateMutability":"view","type":"function"},{"inputs":[],"name":"nextLeaseId","outputs":[{"internalType":"uint256","name":"","type":"uint256"}],"stateMutability":"view","type":"function"},{"inputs":[],"name":"owner","outputs":[{"internalType":"address","name":"","type":"address"}],"stateMutability":"view","type":"function"},{"inputs":[{"internalType":"uint256","name":"_leaseId","type":"uint256"},{"internalType":"uint256","name":"_forMonth","type":"uint256"},{"internalType":"uint256","name":"_forYear","type":"uint256"}],"name":"payRent","outputs":[],"stateMutability":"nonpayable","type":"function"},{"inputs":[{"internalType":"uint256","name":"_leaseId","type":"uint256"}],"name":"paySecurityDeposit","outputs":[],"stateMutability":"nonpayable","type":"function"},{"inputs":[],"name":"paymentToken","outputs":[{"internalType":"contract IERC20","name":"","type":"address"}],"stateMutability":"view","type":"function"},{"inputs":[],"name":"renounceOwnership","outputs":[],"stateMutability":"nonpayable","type":"function"},{"inputs":[{"internalType":"uint256","name":"","type":"uint256"},{"internalType":"uint256","name":"","type":"uint256"}],"name":"rentPayments","outputs":[{"internalType":"uint256","name":"leaseId","type":"uint256"},{"internalType":"address","name":"payer","type":"address"},{"internalType":"uint256","name":"amount","type":"uint256"},{"internalType":"uint256","name":"timestamp","type":"uint256"},{"internalType":"uint256","name":"forMonth","type":"uint256"},{"internalType":"uint256","name":"forYear","type":"uint256"}],"stateMutability":"view","type":"function"},{"inputs":[{"internalType":"uint256","name":"_leaseId","type":"uint256"},{"internalType":"uint256","name":"_returnAmount","type":"uint256"}],"name":"returnSecurityDeposit","outputs":[],"stateMutability":"nonpayable","type":"function"},{"inputs":[{"internalType":"address","name":"_paymentToken","type":"address"}],"name":"setPaymentToken","outputs":[],"stateMutability":"nonpayable","type":"function"},{"inputs":[{"internalType":"address","name":"","type":"address"},{"internalType":"uint256","name":"","type":"uint256"}],"name":"tenantLeases","outputs":[{"internalType":"uint256","name":"","type":"uint256"}],"stateMutability":"view","type":"function"},{"inputs":[{"internalType":"uint256","name":"_leaseId","type":"uint256"}],"name":"terminateLease","outputs":[],"stateMutability":"nonpayable","type":"function"},{"inputs":[{"internalType":"address","name":"newOwner","type":"address"}],"name":"transferOwnership","outputs":[],"stateMutability":"nonpayable","type":"function"}],"evm":{"bytecode":{"linkReferences":{},"object":"6080346100cf57601f6121ea38819003918201601f19168301916001600160401b038311848410176100d4578084926020946040528339810103126100cf57516001600160a01b0390818116908190036100cf5733156100b65760005460018060a01b0319903382821617600055604051933391167f8be0079c531659141344cd1fd0a4f28419497f9722a3daafe3b4186f6b6457e0600080a360018055600754161760075560016006556120ff90816100eb8239f35b604051631e4fbdf760e01b815260006004820152602490fd5b600080fd5b634e487b7160e01b600052604160045260246000fdfe608080604052600436101561001357600080fd5b60003560e01c90816307a7831914611c98575080630d7eb60114611a535780633013ce2914611a2a5780633201ad9414611912578063550252ac146118c85780635797689414611870578063588e00a51461178d5780636a326ab1146117085780636aacbdc4146110bd578063715018a6146110645780638927a10614610f4b5780638da5cb5b14610f22578063902238e114610f045780639547d64714610db35780639f44657c14610b4c578063b73f9e3014610760578063bc1af044146103be578063d064fbe814610344578063d6616f751461021c578063f08b6a03146101945763f2fde38b1461010657600080fd5b3461018f57602036600319011261018f5761011f611d0c565b610127611f9c565b6001600160a01b0390811690811561017657600054826001600160601b0360a01b821617600055167f8be0079c531659141344cd1fd0a4f28419497f9722a3daafe3b4186f6b6457e0600080a3005b604051631e4fbdf760e01b815260006004820152602490fd5b600080fd5b3461018f5760208060031936011261018f576001600160a01b036101b6611d0c565b1660005260048152604060002090604051908181845491828152019360005281600020916000905b82821061020557610201856101f581890382611dc4565b60405191829182611d22565b0390f35b8354865294850194600193840193909101906101de565b3461018f57602036600319011261018f57600435806000526002602052604060002061024a8154151561200c565b60018101546001600160a01b031633036102ff57600a01805460ff811660058110156102e9576102a45760ff191660041790557f7de034b94473199fa9f5758566acdaf18cf4159c2eb47969694bfd8a70d76656600080a2005b60405162461bcd60e51b815260206004820152601d60248201527f43616e206f6e6c792063616e63656c2070656e64696e67206c656173650000006044820152606490fd5b634e487b7160e01b600052602160045260246000fd5b60405162461bcd60e51b815260206004820152601860248201527f4f6e6c79206c616e646c6f72642063616e2063616e63656c00000000000000006044820152606490fd5b3461018f5761035236611f6a565b9060005260036020526040600020805482101561018f5760c09161037591611f80565b5080549060018060a01b036001820154169060028101546003820154906005600484015493015493604051958652602086015260408501526060840152608083015260a0820152f35b3461018f576103cc36611f6a565b906103d5612067565b8060005260206002815260406000206103f08154151561200c565b6001810180546001600160a01b039291908316330361071d5760ff600a8301541660058110156102e95760038114908115610712575b50156106c157600e820180549060ff821661067c57600b8401918254891161063e5760ff1916600117905586610590575b54908682039180831161057a5787036104a3575b50506002015460405194855216927fbdc5db6e99672dfd55e3abd2052db33b6ce83f8891889ecde4535d4a219fce469190a360018055005b600754905460405163a9059cbb60e01b81529085166001600160a01b031660048201526024810192909252849082908516816000816044810103925af190811561056e57600091610541575b50156104fc57858061046b565b60405162461bcd60e51b815260048101849052601c60248201527f4c616e646c6f726420636f6d70656e736174696f6e206661696c6564000000006044820152606490fd5b6105619150843d8611610567575b6105598183611dc4565b81019061204f565b866104ef565b503d61054f565b6040513d6000823e3d90fd5b634e487b7160e01b600052601160045260246000fd5b600754600284015460405163a9059cbb60e01b81529086166001600160a01b031660048201526024810189905290869082908716816000816044810103925af190811561056e57600091610621575b506104575760405162461bcd60e51b815260048101869052601560248201527411195c1bdcda5d081c995d1d5c9b8819985a5b1959605a1b6044820152606490fd5b6106389150863d8811610567576105598183611dc4565b886105df565b60405162461bcd60e51b81526004810188905260166024820152750a4cae8eae4dc40c2dadeeadce840e8dede40d0d2ced60531b6044820152606490fd5b60405162461bcd60e51b815260048101879052601860248201527f4465706f73697420616c72656164792072657475726e656400000000000000006044820152606490fd5b60405162461bcd60e51b815260048101859052602360248201527f4c65617365206d757374206265207465726d696e61746564206f7220657870696044820152621c995960ea1b6064820152608490fd5b600291501487610426565b6064846040519062461bcd60e51b825280600483015260248201527f4f6e6c79206c616e646c6f72642063616e2072657475726e206465706f7369746044820152fd5b3461018f57606036600319011261018f57610779612067565b600435600052600260205260406000206107958154151561200c565b60028101546001600160a01b03163303610b075760ff600a8201541660058110156102e95760016107c6911461208a565b6001602435101580610afa575b15610ac55760446107e8813510610a9257600435600052600360205260406000206000908054915b828110610a0157505060075460018401546004808601546040516323b872dd60e01b815233928101929092526001600160a01b0392831660248301526044820152925060209183916064918391600091165af190811561056e576000916109e2575b50156109a75760048201546040519061087582611da8565b600435825233602083015260408201524260608201526024356080820152813560a0820152600435600052600360205260406000208054600160401b811015610991576108c791600182018155611f80565b91909161097b5760a08160059251845560018401600180841b036020830151166001600160601b03841b825416179055604081015160028501556060810151600385015560808101516004850155015191015542600c830155600d6004830154920180549083820180921161057a5755604051918252602435602083015235604082015233907f28a0558caf1fce4b262b10b0aeba68d724203670ee241a306300d2f729a3b1e1606060043592a360018055005b634e487b7160e01b600052600060045260246000fd5b634e487b7160e01b600052604160045260246000fd5b6064907314995b9d081d1c985b9cd9995c8819985a5b195960621b6040519162461bcd60e51b83526020600484015260146024840152820152fd5b6109fb915060203d602011610567576105598183611dc4565b8361085d565b610a0b8183611f80565b50600401546024351480610a7a575b610a2c57610a2790611fc8565b6107fb565b60405162461bcd60e51b815260206004820152602160248201527f52656e7420616c7265616479207061696420666f72207468697320706572696f81860152601960fa1b6064820152608490fd5b50610a858183611f80565b5060050154843514610a1a565b6064906b24b73b30b634b2103cb2b0b960a11b6040519162461bcd60e51b835260206004840152600c6024840152820152fd5b60405162461bcd60e51b815260206004820152600d60248201526c092dcecc2d8d2c840dadedce8d609b1b6044820152606490fd5b50600c60243511156107d3565b60405162461bcd60e51b815260206004820152601860248201527f4f6e6c792074656e616e742063616e207061792072656e7400000000000000006044820152606490fd5b3461018f57602036600319011261018f5760043560006101c0604051610b7181611d8b565b8281528260208201528260408201528260608201528260808201528260a08201528260c08201528260e082015260606101008201526060610120820152826101408201528261016082015282610180820152826101a08201520152806000526002602052610be5604060002054151561200c565b6000526002602052604060002060405190610bff82611d8b565b8054825260018101546001600160a01b039081166020840152600282015481166040840152600382015416606083015260048101546080830152600581015460a0830152600681015460c0830152600781015460e0830152610c6360088201611e77565b610100830152610c7560098201611e77565b61012083015260ff600a8201541660058110156102e95760ff91600e91610140850152600b810154610160850152600c810154610180850152600d8101546101a085015201541615156101c08201526040518091602082528051602083015260018060a01b03602082015116604083015260018060a01b03604082015116606083015260018060a01b036060820151166080830152608081015160a083015260a081015160c083015260c081015160e083015260e08101516101008301526101008101516101c0610d70610d586101e09384610120880152610200870190611f1d565b610120850151868203601f1901610140880152611f1d565b92610d85610140820151610160870190611f5d565b6101608101516101808601526101808101516101a08601526101a08101518286015201511515908301520390f35b3461018f5760208060031936011261018f576004359081600052600291828252610de3604060002054151561200c565b60005260039182825260406000209283549067ffffffffffffffff8211610991579160405192600591610e1a8685851b0186611dc4565b83855285850192839760005286600020926000945b868610610eac57604080518a81528951818c018190528c928201908c60005b828110610e5b5784840385f35b855180518552808301516001600160a01b03168584015260408082015190860152606080820151908601526080808201519086015260a090810151908501529481019460c090930192600101610e4e565b600689600192604051610ebe81611da8565b88548152848060a01b03858a01541683820152878901546040820152858901546060820152600489015460808201528689015460a0820152815201950195019493610e2f565b3461018f57600036600319011261018f576020600654604051908152f35b3461018f57600036600319011261018f576000546040516001600160a01b039091168152602090f35b3461018f57602036600319011261018f5760043560005260026020526040600020805490600160a01b600190039081600182015416918060028301541690600383015416916004810154926005820154936006830154600784015460088501610fb390611e77565b90610fc060098701611e77565b92600a87015460ff1698600b88015495600c89015497600d8a015499600e015460ff169a6040519e8f9e8f91825260208201526040015260608d015260808c015260a08b015260c08a015260e08901526101e0806101008a0152880161102591611f1d565b87810361012089015261103791611f1d565b94610140870161104691611f5d565b6101608601526101808501526101a084015215156101c08301520390f35b3461018f57600036600319011261018f5761107d611f9c565b600080546001600160a01b0319811682556001600160a01b03167f8be0079c531659141344cd1fd0a4f28419497f9722a3daafe3b4186f6b6457e08280a3005b3461018f5761010036600319011261018f576110d7611d0c565b602435906001600160a01b0390818316830361018f5760c43567ffffffffffffffff811161018f5761110d903690600401611de6565b9160e43567ffffffffffffffff811161018f5761112e903690600401611de6565b93818316156116ca578181161561168c5760443515611650576064351561160b574260843511156115d15760843560a435111561159957835115611554576040516370a0823160e01b81523360048201526020816024818587165afa90811561056e57600091611522575b50156114d357600654936111ac85611fc8565b600655846000526002602052604060002091858355600183016001600160601b0360a01b9033828254161790556002840185871682825416179055846003850192169082541617905560443560048301556064356005830155608435600683015560a435600783015580519067ffffffffffffffff82116109915781906112366008850154611e3d565b601f8111611480575b50602090601f831160011461141357600092611408575b50508160011b916000199060031b1c19161760088201555b845167ffffffffffffffff81116109915761128c6009830154611e3d565b95601f87116113c1575b602096508690601f831160011461135057600a93929160009183611345575b50508160011b916000199060031b1c19161760098201555b0160ff19815416905533600052600484526112ec836040600020611fd7565b80821660005260058452611304836040600020611fd7565b604051916044358352606435858401521690827fcfc95e662eaa26d0f497338b82a72f20874a868726aeb89cacb6ef31ac36d11c60403393a4604051908152f35b0151905088806112b5565b9060098401600052876000209160005b601f19851681106113aa5750918391600193600a9695601f19811610611391575b505050811b0160098201556112cd565b015160001960f88460031b161c19169055888080611381565b919289600181928685015181550194019201611360565b600983016000526020600020601f830160051c810160208410611401575b601f890160051c820181106113f5575050611296565b600081556001016113df565b50806113df565b015190508780611256565b600885016000908152602081209350601f198516905b818110611468575090846001959493921061144f575b505050811b01600882015561126e565b015160001960f88460031b161c1916905587808061143f565b92936020600181928786015181550195019301611429565b909150600884016000526020600020601f840160051c8101602085106114cc575b90849392915b601f830160051c820181106114bd57505061123f565b600081558594506001016114a7565b50806114a1565b60405162461bcd60e51b815260206004820152602160248201527f4c616e646c6f7264206d757374206f776e2070726f706572747920746f6b656e6044820152607360f81b6064820152608490fd5b90506020813d60201161154c575b8161153d60209383611dc4565b8101031261018f575186611199565b3d9150611530565b60405162461bcd60e51b815260206004820152601860248201527f496e76616c69642070726f7065727479206164647265737300000000000000006044820152606490fd5b60405162461bcd60e51b815260206004820152601060248201526f496e76616c696420656e64206461746560801b6044820152606490fd5b60405162461bcd60e51b8152602060048201526012602482015271496e76616c6964207374617274206461746560701b6044820152606490fd5b60405162461bcd60e51b815260206004820152601860248201527f496e76616c6964207365637572697479206465706f73697400000000000000006044820152606490fd5b60405162461bcd60e51b8152602060048201526014602482015273125b9d985b1a59081b5bdb9d1a1b1e481c995b9d60621b6044820152606490fd5b60405162461bcd60e51b815260206004820152601660248201527524b73b30b634b210383937b832b93a3c903a37b5b2b760511b6044820152606490fd5b60405162461bcd60e51b8152602060048201526016602482015275496e76616c69642074656e616e74206164647265737360501b6044820152606490fd5b3461018f57602036600319011261018f57611721611d0c565b611729611f9c565b6001600160a01b03168015611750576001600160601b0360a01b6007541617600755600080f35b60405162461bcd60e51b815260206004820152601560248201527424b73b30b634b2103830bcb6b2b73a103a37b5b2b760591b6044820152606490fd5b3461018f57602036600319011261018f5760043580600052600260205260406000206117bb8154151561200c565b6001810154336001600160a01b0391821614908115611860575b501561182a57600a01805460ff81169060058210156102e9576117fc60016003931461208a565b60ff19161790557f903320d9d82a125a682f110695a1306646295d73a1f595ea334d198446086d8c600080a2005b60405162461bcd60e51b815260206004820152600e60248201526d139bdd08185d5d1a1bdc9a5e995960921b6044820152606490fd5b90506002820154163314836117d5565b3461018f57604036600319011261018f57611889611d0c565b6001600160a01b031660009081526005602052604090208054602435919082101561018f576020916118ba91611d5d565b90546040519160031b1c8152f35b3461018f57604036600319011261018f576118e1611d0c565b6001600160a01b031660009081526004602052604090208054602435919082101561018f576020916118ba91611d5d565b3461018f57602036600319011261018f576004356000526002602052604060002060405161193f81611d8b565b8154815260018201546001600160a01b039081166020830152600283015481166040830152600383015416606082015260048201546080820152600582015460a0820152600682015460c0820152600782015460e08201908152906119a660088401611e77565b6101008201526119b860098401611e77565b61012082015260ff600a840154169260058410156102e957600e60ff91602095610140850152600b810154610160850152600c810154610180850152600d8101546101a085015201541615156101c08201525115159081611a1f575b506040519015158152f35b905051421182611a14565b3461018f57600036600319011261018f576007546040516001600160a01b039091168152602090f35b3461018f5760208060031936011261018f5760043590611a71612067565b81600052600281526040600020611a8a8154151561200c565b60028101546001600160a01b03919082163303611c5357600a81019182549260ff841660058110156102e957611c1a57600b8301928354611bde5760050180549384905560ff1990941660011790556007546040516323b872dd60e01b815233600482015230602482015260448101939093528491839116816000816064810103925af190811561056e57600091611bc1575b5015611b7c577f0c540c2eeef5862586fbbebb5289544f74a00f86a883c0e39325ea3a41a0d466839154926040519384523393a37f8c482976f65be3d81f6327afe47a1106e409f08dbaf3796d639250d1677c7218600080a260018055005b60405162461bcd60e51b815260048101839052601760248201527f4465706f736974207472616e73666572206661696c65640000000000000000006044820152606490fd5b611bd89150833d8511610567576105598183611dc4565b84611b1d565b60405162461bcd60e51b815260048101879052601460248201527311195c1bdcda5d08185b1c9958591e481c185a5960621b6044820152606490fd5b60405162461bcd60e51b81526004810186905260116024820152704c65617365206e6f742070656e64696e6760781b6044820152606490fd5b60405162461bcd60e51b815260048101849052601b60248201527f4f6e6c792074656e616e742063616e20706179206465706f73697400000000006044820152606490fd5b3461018f576020908160031936011261018f576001600160a01b03611cbb611d0c565b166000526005825260406000209182548083528183019360005281600020916000905b828210611cf557610201856101f581890382611dc4565b835486529485019460019384019390910190611cde565b600435906001600160a01b038216820361018f57565b6020908160408183019282815285518094520193019160005b828110611d49575050505090565b835185529381019392810192600101611d3b565b8054821015611d755760005260206000200190600090565b634e487b7160e01b600052603260045260246000fd5b6101e0810190811067ffffffffffffffff82111761099157604052565b60c0810190811067ffffffffffffffff82111761099157604052565b90601f8019910116810190811067ffffffffffffffff82111761099157604052565b81601f8201121561018f5780359067ffffffffffffffff82116109915760405192611e1b601f8401601f191660200185611dc4565b8284526020838301011161018f57816000926020809301838601378301015290565b90600182811c92168015611e6d575b6020831014611e5757565b634e487b7160e01b600052602260045260246000fd5b91607f1691611e4c565b9060405191826000825492611e8b84611e3d565b908184526001948581169081600014611efa5750600114611eb7575b5050611eb592500383611dc4565b565b9093915060005260209081600020936000915b818310611ee2575050611eb593508201013880611ea7565b85548884018501529485019487945091830191611eca565b915050611eb594506020925060ff191682840152151560051b8201013880611ea7565b919082519283825260005b848110611f49575050826000602080949584010152601f8019910116010190565b602081830181015184830182015201611f28565b9060058210156102e95752565b604090600319011261018f576004359060243590565b8054821015611d75576000526006602060002091020190600090565b6000546001600160a01b03163303611fb057565b60405163118cdaa760e01b8152336004820152602490fd5b600019811461057a5760010190565b8054600160401b81101561099157611ff491600182018155611d5d565b819291549060031b91821b91600019901b1916179055565b1561201357565b60405162461bcd60e51b81526020600482015260146024820152731319585cd948191bd95cc81b9bdd08195e1a5cdd60621b6044820152606490fd5b9081602091031261018f5751801515810361018f5790565b600260015414612078576002600155565b604051633ee5aeb560e01b8152600490fd5b1561209157565b60405162461bcd60e51b815260206004820152601060248201526f4c65617365206e6f742061637469766560801b6044820152606490fdfea2646970667358221220794eafcba74f9b084b601d9612637115cc17287140f52e6a13cdb5a622346d5664736f6c63430008140033","opcodes":"PUSH1 0x80 CALLVALUE PUSH2 0xCF JUMPI PUSH1 0x1F PUSH2 0x21EA CODESIZE DUP2 SWAP1 SUB SWAP2 DUP3 ADD PUSH1 0x1F NOT AND DUP4 ADD SWAP2 PUSH1 0x1 PUSH1 0x1 PUSH1 0x40 SHL SUB DUP4 GT DUP5 DUP5 LT OR PUSH2 0xD4 JUMPI DUP1 DUP5 SWAP3 PUSH1 0x20 SWAP5 PUSH1 0x40 MSTORE DUP4 CODECOPY DUP2 ADD SUB SLT PUSH2 0xCF JUMPI MLOAD PUSH1 0x1 PUSH1 0x1 PUSH1 0xA0 SHL SUB SWAP1 DUP2 DUP2 AND SWAP1 DUP2 SWAP1 SUB PUSH2 0xCF JUMPI CALLER ISZERO PUSH2 0xB6 JUMPI PUSH1 0x0 SLOAD PUSH1 0x1 DUP1 PUSH1 0xA0 SHL SUB NOT SWAP1 CALLER DUP3 DUP3 AND OR PUSH1 0x0 SSTORE PUSH1 0x40 MLOAD SWAP4 CALLER SWAP2 AND PUSH32 0x8BE0079C531659141344CD1FD0A4F28419497F9722A3DAAFE3B4186F6B6457E0 PUSH1 0x0 DUP1 LOG3 PUSH1 0x1 DUP1 SSTORE PUSH1 0x7 SLOAD AND OR PUSH1 0x7 SSTORE PUSH1 0x1 PUSH1 0x6 SSTORE PUSH2 0x20FF SWAP1 DUP2 PUSH2 0xEB DUP3 CODECOPY RETURN JUMPDEST PUSH1 0x40 MLOAD PUSH4 0x1E4FBDF7 PUSH1 0xE0 SHL DUP2 MSTORE PUSH1 0x0 PUSH1 0x4 DUP3 ADD MSTORE PUSH1 0x24 SWAP1 REVERT JUMPDEST PUSH1 0x0 DUP1 REVERT JUMPDEST PUSH4 0x4E487B71 PUSH1 0xE0 SHL PUSH1 0x0 MSTORE PUSH1 0x41 PUSH1 0x4 MSTORE PUSH1 0x24 PUSH1 0x0 REVERT INVALID PUSH1 0x80 DUP1 PUSH1 0x40 MSTORE PUSH1 0x4 CALLDATASIZE LT ISZERO PUSH2 0x13 JUMPI PUSH1 0x0 DUP1 REVERT JUMPDEST PUSH1 0x0 CALLDATALOAD PUSH1 0xE0 SHR SWAP1 DUP2 PUSH4 0x7A78319 EQ PUSH2 0x1C98 JUMPI POP DUP1 PUSH4 0xD7EB601 EQ PUSH2 0x1A53 JUMPI DUP1 PUSH4 0x3013CE29 EQ PUSH2 0x1A2A JUMPI DUP1 PUSH4 0x3201AD94 EQ PUSH2 0x1912 JUMPI DUP1 PUSH4 0x550252AC EQ PUSH2 0x18C8 JUMPI DUP1 PUSH4 0x57976894 EQ PUSH2 0x1870 JUMPI DUP1 PUSH4 0x588E00A5 EQ PUSH2 0x178D JUMPI DUP1 PUSH4 0x6A326AB1 EQ PUSH2 0x1708 JUMPI DUP1 PUSH4 0x6AACBDC4 EQ PUSH2 0x10BD JUMPI DUP1 PUSH4 0x715018A6 EQ PUSH2 0x1064 JUMPI DUP1 PUSH4 0x8927A106 EQ PUSH2 0xF4B JUMPI DUP1 PUSH4 0x8DA5CB5B EQ PUSH2 0xF22 JUMPI DUP1 PUSH4 0x902238E1 EQ PUSH2 0xF04 JUMPI DUP1 PUSH4 0x9547D647 EQ PUSH2 0xDB3 JUMPI DUP1 PUSH4 0x9F44657C EQ PUSH2 0xB4C JUMPI DUP1 PUSH4 0xB73F9E30 EQ PUSH2 0x760 JUMPI DUP1 PUSH4 0xBC1AF044 EQ PUSH2 0x3BE JUMPI DUP1 PUSH4 0xD064FBE8 EQ PUSH2 0x344 JUMPI DUP1 PUSH4 0xD6616F75 EQ PUSH2 0x21C JUMPI DUP1 PUSH4 0xF08B6A03 EQ PUSH2 0x194 JUMPI PUSH4 0xF2FDE38B EQ PUSH2 0x106 JUMPI PUSH1 0x0 DUP1 REVERT JUMPDEST CALLVALUE PUSH2 0x18F JUMPI PUSH1 0x20 CALLDATASIZE PUSH1 0x3 NOT ADD SLT PUSH2 0x18F JUMPI PUSH2 0x11F PUSH2 0x1D0C JUMP JUMPDEST PUSH2 0x127 PUSH2 0x1F9C JUMP JUMPDEST PUSH1 0x1 PUSH1 0x1 PUSH1 0xA0 SHL SUB SWAP1 DUP2 AND SWAP1 DUP2 ISZERO PUSH2 0x176 JUMPI PUSH1 0x0 SLOAD DUP3 PUSH1 0x1 PUSH1 0x1 PUSH1 0x60 SHL SUB PUSH1 0xA0 SHL DUP3 AND OR PUSH1 0x0 SSTORE AND PUSH32 0x8BE0079C531659141344CD1FD0A4F28419497F9722A3DAAFE3B4186F6B6457E0 PUSH1 0x0 DUP1 LOG3 STOP JUMPDEST PUSH1 0x40 MLOAD PUSH4 0x1E4FBDF7 PUSH1 0xE0 SHL DUP2 MSTORE PUSH1 0x0 PUSH1 0x4 DUP3 ADD MSTORE PUSH1 0x24 SWAP1 REVERT JUMPDEST PUSH1 0x0 DUP1 REVERT JUMPDEST CALLVALUE PUSH2 0x18F JUMPI PUSH1 0x20 DUP1 PUSH1 0x3 NOT CALLDATASIZE ADD SLT PUSH2 0x18F JUMPI PUSH1 0x1 PUSH1 0x1 PUSH1 0xA0 SHL SUB PUSH2 0x1B6 PUSH2 0x1D0C JUMP JUMPDEST AND PUSH1 0x0 MSTORE PUSH1 0x4 DUP2 MSTORE PUSH1 0x40 PUSH1 0x0 KECCAK256 SWAP1 PUSH1 0x40 MLOAD SWAP1 DUP2 DUP2 DUP5 SLOAD SWAP2 DUP3 DUP2 MSTORE ADD SWAP4 PUSH1 0x0 MSTORE DUP2 PUSH1 0x0 KECCAK256 SWAP2 PUSH1 0x0 SWAP1 JUMPDEST DUP3 DUP3 LT PUSH2 0x205 JUMPI PUSH2 0x201 DUP6 PUSH2 0x1F5 DUP2 DUP10 SUB DUP3 PUSH2 0x1DC4 JUMP JUMPDEST PUSH1 0x40 MLOAD SWAP2 DUP3 SWAP2 DUP3 PUSH2 0x1D22 JUMP JUMPDEST SUB SWAP1 RETURN JUMPDEST DUP4 SLOAD DUP7 MSTORE SWAP5 DUP6 ADD SWAP5 PUSH1 0x1 SWAP4 DUP5 ADD SWAP4 SWAP1 SWAP2 ADD SWAP1 PUSH2 0x1DE JUMP JUMPDEST CALLVALUE PUSH2 0x18F JUMPI PUSH1 0x20 CALLDATASIZE PUSH1 0x3 NOT ADD SLT PUSH2 0x18F JUMPI PUSH1 0x4 CALLDATALOAD DUP1 PUSH1 0x0 MSTORE PUSH1 0x2 PUSH1 0x20 MSTORE PUSH1 0x40 PUSH1 0x0 KECCAK256 PUSH2 0x24A DUP2 SLOAD ISZERO ISZERO PUSH2 0x200C JUMP JUMPDEST PUSH1 0x1 DUP2 ADD SLOAD PUSH1 0x1 PUSH1 0x1 PUSH1 0xA0 SHL SUB AND CALLER SUB PUSH2 0x2FF JUMPI PUSH1 0xA ADD DUP1 SLOAD PUSH1 0xFF DUP2 AND PUSH1 0x5 DUP2 LT ISZERO PUSH2 0x2E9 JUMPI PUSH2 0x2A4 JUMPI PUSH1 0xFF NOT AND PUSH1 0x4 OR SWAP1 SSTORE PUSH32 0x7DE034B94473199FA9F5758566ACDAF18CF4159C2EB47969694BFD8A70D76656 PUSH1 0x0 DUP1 LOG2 STOP JUMPDEST PUSH1 0x40 MLOAD PUSH3 0x461BCD PUSH1 0xE5 SHL DUP2 MSTORE PUSH1 0x20 PUSH1 0x4 DUP3 ADD MSTORE PUSH1 0x1D PUSH1 0x24 DUP3 ADD MSTORE PUSH32 0x43616E206F6E6C792063616E63656C2070656E64696E67206C65617365000000 PUSH1 0x44 DUP3 ADD MSTORE PUSH1 0x64 SWAP1 REVERT JUMPDEST PUSH4 0x4E487B71 PUSH1 0xE0 SHL PUSH1 0x0 MSTORE PUSH1 0x21 PUSH1 0x4 MSTORE PUSH1 0x24 PUSH1 0x0 REVERT JUMPDEST PUSH1 0x40 MLOAD PUSH3 0x461BCD PUSH1 0xE5 SHL DUP2 MSTORE PUSH1 0x20 PUSH1 0x4 DUP3 ADD MSTORE PUSH1 0x18 PUSH1 0x24 DUP3 ADD MSTORE PUSH32 0x4F6E6C79206C616E646C6F72642063616E2063616E63656C0000000000000000 PUSH1 0x44 DUP3 ADD MSTORE PUSH1 0x64 SWAP1 REVERT JUMPDEST CALLVALUE PUSH2 0x18F JUMPI PUSH2 0x352 CALLDATASIZE PUSH2 0x1F6A JUMP JUMPDEST SWAP1 PUSH1 0x0 MSTORE PUSH1 0x3 PUSH1 0x20 MSTORE PUSH1 0x40 PUSH1 0x0 KECCAK256 DUP1 SLOAD DUP3 LT ISZERO PUSH2 0x18F JUMPI PUSH1 0xC0 SWAP2 PUSH2 0x375 SWAP2 PUSH2 0x1F80 JUMP JUMPDEST POP DUP1 SLOAD SWAP1 PUSH1 0x1 DUP1 PUSH1 0xA0 SHL SUB PUSH1 0x1 DUP3 ADD SLOAD AND SWAP1 PUSH1 0x2 DUP2 ADD SLOAD PUSH1 0x3 DUP3 ADD SLOAD SWAP1 PUSH1 0x5 PUSH1 0x4 DUP5 ADD SLOAD SWAP4 ADD SLOAD SWAP4 PUSH1 0x40 MLOAD SWAP6 DUP7 MSTORE PUSH1 0x20 DUP7 ADD MSTORE PUSH1 0x40 DUP6 ADD MSTORE PUSH1 0x60 DUP5 ADD MSTORE PUSH1 0x80 DUP4 ADD MSTORE PUSH1 0xA0 DUP3 ADD MSTORE RETURN JUMPDEST CALLVALUE PUSH2 0x18F JUMPI PUSH2 0x3CC CALLDATASIZE PUSH2 0x1F6A JUMP JUMPDEST SWAP1 PUSH2 0x3D5 PUSH2 0x2067 JUMP JUMPDEST DUP1 PUSH1 0x0 MSTORE PUSH1 0x20 PUSH1 0x2 DUP2 MSTORE PUSH1 0x40 PUSH1 0x0 KECCAK256 PUSH2 0x3F0 DUP2 SLOAD ISZERO ISZERO PUSH2 0x200C JUMP JUMPDEST PUSH1 0x1 DUP2 ADD DUP1 SLOAD PUSH1 0x1 PUSH1 0x1 PUSH1 0xA0 SHL SUB SWAP3 SWAP2 SWAP1 DUP4 AND CALLER SUB PUSH2 0x71D JUMPI PUSH1 0xFF PUSH1 0xA DUP4 ADD SLOAD AND PUSH1 0x5 DUP2 LT ISZERO PUSH2 0x2E9 JUMPI PUSH1 0x3 DUP2 EQ SWAP1 DUP2 ISZERO PUSH2 0x712 JUMPI JUMPDEST POP ISZERO PUSH2 0x6C1 JUMPI PUSH1 0xE DUP3 ADD DUP1 SLOAD SWAP1 PUSH1 0xFF DUP3 AND PUSH2 0x67C JUMPI PUSH1 0xB DUP5 ADD SWAP2 DUP3 SLOAD DUP10 GT PUSH2 0x63E JUMPI PUSH1 0xFF NOT AND PUSH1 0x1 OR SWAP1 SSTORE DUP7 PUSH2 0x590 JUMPI JUMPDEST SLOAD SWAP1 DUP7 DUP3 SUB SWAP2 DUP1 DUP4 GT PUSH2 0x57A JUMPI DUP8 SUB PUSH2 0x4A3 JUMPI JUMPDEST POP POP PUSH1 0x2 ADD SLOAD PUSH1 0x40 MLOAD SWAP5 DUP6 MSTORE AND SWAP3 PUSH32 0xBDC5DB6E99672DFD55E3ABD2052DB33B6CE83F8891889ECDE4535D4A219FCE46 SWAP2 SWAP1 LOG3 PUSH1 0x1 DUP1 SSTORE STOP JUMPDEST PUSH1 0x7 SLOAD SWAP1 SLOAD PUSH1 0x40 MLOAD PUSH4 0xA9059CBB PUSH1 0xE0 SHL DUP2 MSTORE SWAP1 DUP6 AND PUSH1 0x1 PUSH1 0x1 PUSH1 0xA0 SHL SUB AND PUSH1 0x4 DUP3 ADD MSTORE PUSH1 0x24 DUP2 ADD SWAP3 SWAP1 SWAP3 MSTORE DUP5 SWAP1 DUP3 SWAP1 DUP6 AND DUP2 PUSH1 0x0 DUP2 PUSH1 0x44 DUP2 ADD SUB SWAP3 GAS CALL SWAP1 DUP2 ISZERO PUSH2 0x56E JUMPI PUSH1 0x0 SWAP2 PUSH2 0x541 JUMPI JUMPDEST POP ISZERO PUSH2 0x4FC JUMPI DUP6 DUP1 PUSH2 0x46B JUMP JUMPDEST PUSH1 0x40 MLOAD PUSH3 0x461BCD PUSH1 0xE5 SHL DUP2 MSTORE PUSH1 0x4 DUP2 ADD DUP5 SWAP1 MSTORE PUSH1 0x1C PUSH1 0x24 DUP3 ADD MSTORE PUSH32 0x4C616E646C6F726420636F6D70656E736174696F6E206661696C656400000000 PUSH1 0x44 DUP3 ADD MSTORE PUSH1 0x64 SWAP1 REVERT JUMPDEST PUSH2 0x561 SWAP2 POP DUP5 RETURNDATASIZE DUP7 GT PUSH2 0x567 JUMPI JUMPDEST PUSH2 0x559 DUP2 DUP4 PUSH2 0x1DC4 JUMP JUMPDEST DUP2 ADD SWAP1 PUSH2 0x204F JUMP JUMPDEST DUP7 PUSH2 0x4EF JUMP JUMPDEST POP RETURNDATASIZE PUSH2 0x54F JUMP JUMPDEST PUSH1 0x40 MLOAD RETURNDATASIZE PUSH1 0x0 DUP3 RETURNDATACOPY RETURNDATASIZE SWAP1 REVERT JUMPDEST PUSH4 0x4E487B71 PUSH1 0xE0 SHL PUSH1 0x0 MSTORE PUSH1 0x11 PUSH1 0x4 MSTORE PUSH1 0x24 PUSH1 0x0 REVERT JUMPDEST PUSH1 0x7 SLOAD PUSH1 0x2 DUP5 ADD SLOAD PUSH1 0x40 MLOAD PUSH4 0xA9059CBB PUSH1 0xE0 SHL DUP2 MSTORE SWAP1 DUP7 AND PUSH1 0x1 PUSH1 0x1 PUSH1 0xA0 SHL SUB AND PUSH1 0x4 DUP3 ADD MSTORE PUSH1 0x24 DUP2 ADD DUP10 SWAP1 MSTORE SWAP1 DUP7 SWAP1 DUP3 SWAP1 DUP8 AND DUP2 PUSH1 0x0 DUP2 PUSH1 0x44 DUP2 ADD SUB SWAP3 GAS CALL SWAP1 DUP2 ISZERO PUSH2 0x56E JUMPI PUSH1 0x0 SWAP2 PUSH2 0x621 JUMPI JUMPDEST POP PUSH2 0x457 JUMPI PUSH1 0x40 MLOAD PUSH3 0x461BCD PUSH1 0xE5 SHL DUP2 MSTORE PUSH1 0x4 DUP2 ADD DUP7 SWAP1 MSTORE PUSH1 0x15 PUSH1 0x24 DUP3 ADD MSTORE PUSH21 0x11195C1BDCDA5D081C995D1D5C9B8819985A5B1959 PUSH1 0x5A SHL PUSH1 0x44 DUP3 ADD MSTORE PUSH1 0x64 SWAP1 REVERT JUMPDEST PUSH2 0x638 SWAP2 POP DUP7 RETURNDATASIZE DUP9 GT PUSH2 0x567 JUMPI PUSH2 0x559 DUP2 DUP4 PUSH2 0x1DC4 JUMP JUMPDEST DUP9 PUSH2 0x5DF JUMP JUMPDEST PUSH1 0x40 MLOAD PUSH3 0x461BCD PUSH1 0xE5 SHL DUP2 MSTORE PUSH1 0x4 DUP2 ADD DUP9 SWAP1 MSTORE PUSH1 0x16 PUSH1 0x24 DUP3 ADD MSTORE PUSH22 0xA4CAE8EAE4DC40C2DADEEADCE840E8DEDE40D0D2CED PUSH1 0x53 SHL PUSH1 0x44 DUP3 ADD MSTORE PUSH1 0x64 SWAP1 REVERT JUMPDEST PUSH1 0x40 MLOAD PUSH3 0x461BCD PUSH1 0xE5 SHL DUP2 MSTORE PUSH1 0x4 DUP2 ADD DUP8 SWAP1 MSTORE PUSH1 0x18 PUSH1 0x24 DUP3 ADD MSTORE PUSH32 0x4465706F73697420616C72656164792072657475726E65640000000000000000 PUSH1 0x44 DUP3 ADD MSTORE PUSH1 0x64 SWAP1 REVERT JUMPDEST PUSH1 0x40 MLOAD PUSH3 0x461BCD PUSH1 0xE5 SHL DUP2 MSTORE PUSH1 0x4 DUP2 ADD DUP6 SWAP1 MSTORE PUSH1 0x23 PUSH1 0x24 DUP3 ADD MSTORE PUSH32 0x4C65617365206D757374206265207465726D696E61746564206F722065787069 PUSH1 0x44 DUP3 ADD MSTORE PUSH3 0x1C9959 PUSH1 0xEA SHL PUSH1 0x64 DUP3 ADD MSTORE PUSH1 0x84 SWAP1 REVERT JUMPDEST PUSH1 0x2 SWAP2 POP EQ DUP8 PUSH2 0x426 JUMP JUMPDEST PUSH1 0x64 DUP5 PUSH1 0x40 MLOAD SWAP1 PUSH3 0x461BCD PUSH1 0xE5 SHL DUP3 MSTORE DUP1 PUSH1 0x4 DUP4 ADD MSTORE PUSH1 0x24 DUP3 ADD MSTORE PUSH32 0x4F6E6C79206C616E646C6F72642063616E2072657475726E206465706F736974 PUSH1 0x44 DUP3 ADD MSTORE REVERT JUMPDEST CALLVALUE PUSH2 0x18F JUMPI PUSH1 0x60 CALLDATASIZE PUSH1 0x3 NOT ADD SLT PUSH2 0x18F JUMPI PUSH2 0x779 PUSH2 0x2067 JUMP JUMPDEST PUSH1 0x4 CALLDATALOAD PUSH1 0x0 MSTORE PUSH1 0x2 PUSH1 0x20 MSTORE PUSH1 0x40 PUSH1 0x0 KECCAK256 PUSH2 0x795 DUP2 SLOAD ISZERO ISZERO PUSH2 0x200C JUMP JUMPDEST PUSH1 0x2 DUP2 ADD SLOAD PUSH1 0x1 PUSH1 0x1 PUSH1 0xA0 SHL SUB AND CALLER SUB PUSH2 0xB07 JUMPI PUSH1 0xFF PUSH1 0xA DUP3 ADD SLOAD AND PUSH1 0x5 DUP2 LT ISZERO PUSH2 0x2E9 JUMPI PUSH1 0x1 PUSH2 0x7C6 SWAP2 EQ PUSH2 0x208A JUMP JUMPDEST PUSH1 0x1 PUSH1 0x24 CALLDATALOAD LT ISZERO DUP1 PUSH2 0xAFA JUMPI JUMPDEST ISZERO PUSH2 0xAC5 JUMPI PUSH1 0x44 PUSH2 0x7E8 DUP2 CALLDATALOAD LT PUSH2 0xA92 JUMPI PUSH1 0x4 CALLDATALOAD PUSH1 0x0 MSTORE PUSH1 0x3 PUSH1 0x20 MSTORE PUSH1 0x40 PUSH1 0x0 KECCAK256 PUSH1 0x0 SWAP1 DUP1 SLOAD SWAP2 JUMPDEST DUP3 DUP2 LT PUSH2 0xA01 JUMPI POP POP PUSH1 0x7 SLOAD PUSH1 0x1 DUP5 ADD SLOAD PUSH1 0x4 DUP1 DUP7 ADD SLOAD PUSH1 0x40 MLOAD PUSH4 0x23B872DD PUSH1 0xE0 SHL DUP2 MSTORE CALLER SWAP3 DUP2 ADD SWAP3 SWAP1 SWAP3 MSTORE PUSH1 0x1 PUSH1 0x1 PUSH1 0xA0 SHL SUB SWAP3 DUP4 AND PUSH1 0x24 DUP4 ADD MSTORE PUSH1 0x44 DUP3 ADD MSTORE SWAP3 POP PUSH1 0x20 SWAP2 DUP4 SWAP2 PUSH1 0x64 SWAP2 DUP4 SWAP2 PUSH1 0x0 SWAP2 AND GAS CALL SWAP1 DUP2 ISZERO PUSH2 0x56E JUMPI PUSH1 0x0 SWAP2 PUSH2 0x9E2 JUMPI JUMPDEST POP ISZERO PUSH2 0x9A7 JUMPI PUSH1 0x4 DUP3 ADD SLOAD PUSH1 0x40 MLOAD SWAP1 PUSH2 0x875 DUP3 PUSH2 0x1DA8 JUMP JUMPDEST PUSH1 0x4 CALLDATALOAD DUP3 MSTORE CALLER PUSH1 0x20 DUP4 ADD MSTORE PUSH1 0x40 DUP3 ADD MSTORE TIMESTAMP PUSH1 0x60 DUP3 ADD MSTORE PUSH1 0x24 CALLDATALOAD PUSH1 0x80 DUP3 ADD MSTORE DUP2 CALLDATALOAD PUSH1 0xA0 DUP3 ADD MSTORE PUSH1 0x4 CALLDATALOAD PUSH1 0x0 MSTORE PUSH1 0x3 PUSH1 0x20 MSTORE PUSH1 0x40 PUSH1 0x0 KECCAK256 DUP1 SLOAD PUSH1 0x1 PUSH1 0x40 SHL DUP2 LT ISZERO PUSH2 0x991 JUMPI PUSH2 0x8C7 SWAP2 PUSH1 0x1 DUP3 ADD DUP2 SSTORE PUSH2 0x1F80 JUMP JUMPDEST SWAP2 SWAP1 SWAP2 PUSH2 0x97B JUMPI PUSH1 0xA0 DUP2 PUSH1 0x5 SWAP3 MLOAD DUP5 SSTORE PUSH1 0x1 DUP5 ADD PUSH1 0x1 DUP1 DUP5 SHL SUB PUSH1 0x20 DUP4 ADD MLOAD AND PUSH1 0x1 PUSH1 0x1 PUSH1 0x60 SHL SUB DUP5 SHL DUP3 SLOAD AND OR SWAP1 SSTORE PUSH1 0x40 DUP2 ADD MLOAD PUSH1 0x2 DUP6 ADD SSTORE PUSH1 0x60 DUP2 ADD MLOAD PUSH1 0x3 DUP6 ADD SSTORE PUSH1 0x80 DUP2 ADD MLOAD PUSH1 0x4 DUP6 ADD SSTORE ADD MLOAD SWAP2 ADD SSTORE TIMESTAMP PUSH1 0xC DUP4 ADD SSTORE PUSH1 0xD PUSH1 0x4 DUP4 ADD SLOAD SWAP3 ADD DUP1 SLOAD SWAP1 DUP4 DUP3 ADD DUP1 SWAP3 GT PUSH2 0x57A JUMPI SSTORE PUSH1 0x40 MLOAD SWAP2 DUP3 MSTORE PUSH1 0x24 CALLDATALOAD PUSH1 0x20 DUP4 ADD MSTORE CALLDATALOAD PUSH1 0x40 DUP3 ADD MSTORE CALLER SWAP1 PUSH32 0x28A0558CAF1FCE4B262B10B0AEBA68D724203670EE241A306300D2F729A3B1E1 PUSH1 0x60 PUSH1 0x4 CALLDATALOAD SWAP3 LOG3 PUSH1 0x1 DUP1 SSTORE STOP JUMPDEST PUSH4 0x4E487B71 PUSH1 0xE0 SHL PUSH1 0x0 MSTORE PUSH1 0x0 PUSH1 0x4 MSTORE PUSH1 0x24 PUSH1 0x0 REVERT JUMPDEST PUSH4 0x4E487B71 PUSH1 0xE0 SHL PUSH1 0x0 MSTORE PUSH1 0x41 PUSH1 0x4 MSTORE PUSH1 0x24 PUSH1 0x0 REVERT JUMPDEST PUSH1 0x64 SWAP1 PUSH20 0x14995B9D081D1C985B9CD9995C8819985A5B1959 PUSH1 0x62 SHL PUSH1 0x40 MLOAD SWAP2 PUSH3 0x461BCD PUSH1 0xE5 SHL DUP4 MSTORE PUSH1 0x20 PUSH1 0x4 DUP5 ADD MSTORE PUSH1 0x14 PUSH1 0x24 DUP5 ADD MSTORE DUP3 ADD MSTORE REVERT JUMPDEST PUSH2 0x9FB SWAP2 POP PUSH1 0x20 RETURNDATASIZE PUSH1 0x20 GT PUSH2 0x567 JUMPI PUSH2 0x559 DUP2 DUP4 PUSH2 0x1DC4 JUMP JUMPDEST DUP4 PUSH2 0x85D JUMP JUMPDEST PUSH2 0xA0B DUP2 DUP4 PUSH2 0x1F80 JUMP JUMPDEST POP PUSH1 0x4 ADD SLOAD PUSH1 0x24 CALLDATALOAD EQ DUP1 PUSH2 0xA7A JUMPI JUMPDEST PUSH2 0xA2C JUMPI PUSH2 0xA27 SWAP1 PUSH2 0x1FC8 JUMP JUMPDEST PUSH2 0x7FB JUMP JUMPDEST PUSH1 0x40 MLOAD PUSH3 0x461BCD PUSH1 0xE5 SHL DUP2 MSTORE PUSH1 0x20 PUSH1 0x4 DUP3 ADD MSTORE PUSH1 0x21 PUSH1 0x24 DUP3 ADD MSTORE PUSH32 0x52656E7420616C7265616479207061696420666F72207468697320706572696F DUP2 DUP7 ADD MSTORE PUSH1 0x19 PUSH1 0xFA SHL PUSH1 0x64 DUP3 ADD MSTORE PUSH1 0x84 SWAP1 REVERT JUMPDEST POP PUSH2 0xA85 DUP2 DUP4 PUSH2 0x1F80 JUMP JUMPDEST POP PUSH1 0x5 ADD SLOAD DUP5 CALLDATALOAD EQ PUSH2 0xA1A JUMP JUMPDEST PUSH1 0x64 SWAP1 PUSH12 0x24B73B30B634B2103CB2B0B9 PUSH1 0xA1 SHL PUSH1 0x40 MLOAD SWAP2 PUSH3 0x461BCD PUSH1 0xE5 SHL DUP4 MSTORE PUSH1 0x20 PUSH1 0x4 DUP5 ADD MSTORE PUSH1 0xC PUSH1 0x24 DUP5 ADD MSTORE DUP3 ADD MSTORE REVERT JUMPDEST PUSH1 0x40 MLOAD PUSH3 0x461BCD PUSH1 0xE5 SHL DUP2 MSTORE PUSH1 0x20 PUSH1 0x4 DUP3 ADD MSTORE PUSH1 0xD PUSH1 0x24 DUP3 ADD MSTORE PUSH13 0x92DCECC2D8D2C840DADEDCE8D PUSH1 0x9B SHL PUSH1 0x44 DUP3 ADD MSTORE PUSH1 0x64 SWAP1 REVERT JUMPDEST POP PUSH1 0xC PUSH1 0x24 CALLDATALOAD GT ISZERO PUSH2 0x7D3 JUMP JUMPDEST PUSH1 0x40 MLOAD PUSH3 0x461BCD PUSH1 0xE5 SHL DUP2 MSTORE PUSH1 0x20 PUSH1 0x4 DUP3 ADD MSTORE PUSH1 0x18 PUSH1 0x24 DUP3 ADD MSTORE PUSH32 0x4F6E6C792074656E616E742063616E207061792072656E740000000000000000 PUSH1 0x44 DUP3 ADD MSTORE PUSH1 0x64 SWAP1 REVERT JUMPDEST CALLVALUE PUSH2 0x18F JUMPI PUSH1 0x20 CALLDATASIZE PUSH1 0x3 NOT ADD SLT PUSH2 0x18F JUMPI PUSH1 0x4 CALLDATALOAD PUSH1 0x0 PUSH2 0x1C0 PUSH1 0x40 MLOAD PUSH2 0xB71 DUP2 PUSH2 0x1D8B JUMP JUMPDEST DUP3 DUP2 MSTORE DUP3 PUSH1 0x20 DUP3 ADD MSTORE DUP3 PUSH1 0x40 DUP3 ADD MSTORE DUP3 PUSH1 0x60 DUP3 ADD MSTORE DUP3 PUSH1 0x80 DUP3 ADD MSTORE DUP3 PUSH1 0xA0 DUP3 ADD MSTORE DUP3 PUSH1 0xC0 DUP3 ADD MSTORE DUP3 PUSH1 0xE0 DUP3 ADD MSTORE PUSH1 0x60 PUSH2 0x100 DUP3 ADD MSTORE PUSH1 0x60 PUSH2 0x120 DUP3 ADD MSTORE DUP3 PUSH2 0x140 DUP3 ADD MSTORE DUP3 PUSH2 0x160 DUP3 ADD MSTORE DUP3 PUSH2 0x180 DUP3 ADD MSTORE DUP3 PUSH2 0x1A0 DUP3 ADD MSTORE ADD MSTORE DUP1 PUSH1 0x0 MSTORE PUSH1 0x2 PUSH1 0x20 MSTORE PUSH2 0xBE5 PUSH1 0x40 PUSH1 0x0 KECCAK256 SLOAD ISZERO ISZERO PUSH2 0x200C JUMP JUMPDEST PUSH1 0x0 MSTORE PUSH1 0x2 PUSH1 0x20 MSTORE PUSH1 0x40 PUSH1 0x0 KECCAK256 PUSH1 0x40 MLOAD SWAP1 PUSH2 0xBFF DUP3 PUSH2 0x1D8B JUMP JUMPDEST DUP1 SLOAD DUP3 MSTORE PUSH1 0x1 DUP2 ADD SLOAD PUSH1 0x1 PUSH1 0x1 PUSH1 0xA0 SHL SUB SWAP1 DUP2 AND PUSH1 0x20 DUP5 ADD MSTORE PUSH1 0x2 DUP3 ADD SLOAD DUP2 AND PUSH1 0x40 DUP5 ADD MSTORE PUSH1 0x3 DUP3 ADD SLOAD AND PUSH1 0x60 DUP4 ADD MSTORE PUSH1 0x4 DUP2 ADD SLOAD PUSH1 0x80 DUP4 ADD MSTORE PUSH1 0x5 DUP2 ADD SLOAD PUSH1 0xA0 DUP4 ADD MSTORE PUSH1 0x6 DUP2 ADD SLOAD PUSH1 0xC0 DUP4 ADD MSTORE PUSH1 0x7 DUP2 ADD SLOAD PUSH1 0xE0 DUP4 ADD MSTORE PUSH2 0xC63 PUSH1 0x8 DUP3 ADD PUSH2 0x1E77 JUMP JUMPDEST PUSH2 0x100 DUP4 ADD MSTORE PUSH2 0xC75 PUSH1 0x9 DUP3 ADD PUSH2 0x1E77 JUMP JUMPDEST PUSH2 0x120 DUP4 ADD MSTORE PUSH1 0xFF PUSH1 0xA DUP3 ADD SLOAD AND PUSH1 0x5 DUP2 LT ISZERO PUSH2 0x2E9 JUMPI PUSH1 0xFF SWAP2 PUSH1 0xE SWAP2 PUSH2 0x140 DUP6 ADD MSTORE PUSH1 0xB DUP2 ADD SLOAD PUSH2 0x160 DUP6 ADD MSTORE PUSH1 0xC DUP2 ADD SLOAD PUSH2 0x180 DUP6 ADD MSTORE PUSH1 0xD DUP2 ADD SLOAD PUSH2 0x1A0 DUP6 ADD MSTORE ADD SLOAD AND ISZERO ISZERO PUSH2 0x1C0 DUP3 ADD MSTORE PUSH1 0x40 MLOAD DUP1 SWAP2 PUSH1 0x20 DUP3 MSTORE DUP1 MLOAD PUSH1 0x20 DUP4 ADD MSTORE PUSH1 0x1 DUP1 PUSH1 0xA0 SHL SUB PUSH1 0x20 DUP3 ADD MLOAD AND PUSH1 0x40 DUP4 ADD MSTORE PUSH1 0x1 DUP1 PUSH1 0xA0 SHL SUB PUSH1 0x40 DUP3 ADD MLOAD AND PUSH1 0x60 DUP4 ADD MSTORE PUSH1 0x1 DUP1 PUSH1 0xA0 SHL SUB PUSH1 0x60 DUP3 ADD MLOAD AND PUSH1 0x80 DUP4 ADD MSTORE PUSH1 0x80 DUP2 ADD MLOAD PUSH1 0xA0 DUP4 ADD MSTORE PUSH1 0xA0 DUP2 ADD MLOAD PUSH1 0xC0 DUP4 ADD MSTORE PUSH1 0xC0 DUP2 ADD MLOAD PUSH1 0xE0 DUP4 ADD MSTORE PUSH1 0xE0 DUP2 ADD MLOAD PUSH2 0x100 DUP4 ADD MSTORE PUSH2 0x100 DUP2 ADD MLOAD PUSH2 0x1C0 PUSH2 0xD70 PUSH2 0xD58 PUSH2 0x1E0 SWAP4 DUP5 PUSH2 0x120 DUP9 ADD MSTORE PUSH2 0x200 DUP8 ADD SWAP1 PUSH2 0x1F1D JUMP JUMPDEST PUSH2 0x120 DUP6 ADD MLOAD DUP7 DUP3 SUB PUSH1 0x1F NOT ADD PUSH2 0x140 DUP9 ADD MSTORE PUSH2 0x1F1D JUMP JUMPDEST SWAP3 PUSH2 0xD85 PUSH2 0x140 DUP3 ADD MLOAD PUSH2 0x160 DUP8 ADD SWAP1 PUSH2 0x1F5D JUMP JUMPDEST PUSH2 0x160 DUP2 ADD MLOAD PUSH2 0x180 DUP7 ADD MSTORE PUSH2 0x180 DUP2 ADD MLOAD PUSH2 0x1A0 DUP7 ADD MSTORE PUSH2 0x1A0 DUP2 ADD MLOAD DUP3 DUP7 ADD MSTORE ADD MLOAD ISZERO ISZERO SWAP1 DUP4 ADD MSTORE SUB SWAP1 RETURN JUMPDEST CALLVALUE PUSH2 0x18F JUMPI PUSH1 0x20 DUP1 PUSH1 0x3 NOT CALLDATASIZE ADD SLT PUSH2 0x18F JUMPI PUSH1 0x4 CALLDATALOAD SWAP1 DUP2 PUSH1 0x0 MSTORE PUSH1 0x2 SWAP2 DUP3 DUP3 MSTORE PUSH2 0xDE3 PUSH1 0x40 PUSH1 0x0 KECCAK256 SLOAD ISZERO ISZERO PUSH2 0x200C JUMP JUMPDEST PUSH1 0x0 MSTORE PUSH1 0x3 SWAP2 DUP3 DUP3 MSTORE PUSH1 0x40 PUSH1 0x0 KECCAK256 SWAP3 DUP4 SLOAD SWAP1 PUSH8 0xFFFFFFFFFFFFFFFF DUP3 GT PUSH2 0x991 JUMPI SWAP2 PUSH1 0x40 MLOAD SWAP3 PUSH1 0x5 SWAP2 PUSH2 0xE1A DUP7 DUP6 DUP6 SHL ADD DUP7 PUSH2 0x1DC4 JUMP JUMPDEST DUP4 DUP6 MSTORE DUP6 DUP6 ADD SWAP3 DUP4 SWAP8 PUSH1 0x0 MSTORE DUP7 PUSH1 0x0 KECCAK256 SWAP3 PUSH1 0x0 SWAP5 JUMPDEST DUP7 DUP7 LT PUSH2 0xEAC JUMPI PUSH1 0x40 DUP1 MLOAD DUP11 DUP2 MSTORE DUP10 MLOAD DUP2 DUP13 ADD DUP2 SWAP1 MSTORE DUP13 SWAP3 DUP3 ADD SWAP1 DUP13 PUSH1 0x0 JUMPDEST DUP3 DUP2 LT PUSH2 0xE5B JUMPI DUP5 DUP5 SUB DUP6 RETURN JUMPDEST DUP6 MLOAD DUP1 MLOAD DUP6 MSTORE DUP1 DUP4 ADD MLOAD PUSH1 0x1 PUSH1 0x1 PUSH1 0xA0 SHL SUB AND DUP6 DUP5 ADD MSTORE PUSH1 0x40 DUP1 DUP3 ADD MLOAD SWAP1 DUP7 ADD MSTORE PUSH1 0x60 DUP1 DUP3 ADD MLOAD SWAP1 DUP7 ADD MSTORE PUSH1 0x80 DUP1 DUP3 ADD MLOAD SWAP1 DUP7 ADD MSTORE PUSH1 0xA0 SWAP1 DUP2 ADD MLOAD SWAP1 DUP6 ADD MSTORE SWAP5 DUP2 ADD SWAP5 PUSH1 0xC0 SWAP1 SWAP4 ADD SWAP3 PUSH1 0x1 ADD PUSH2 0xE4E JUMP JUMPDEST PUSH1 0x6 DUP10 PUSH1 0x1 SWAP3 PUSH1 0x40 MLOAD PUSH2 0xEBE DUP2 PUSH2 0x1DA8 JUMP JUMPDEST DUP9 SLOAD DUP2 MSTORE DUP5 DUP1 PUSH1 0xA0 SHL SUB DUP6 DUP11 ADD SLOAD AND DUP4 DUP3 ADD MSTORE DUP8 DUP10 ADD SLOAD PUSH1 0x40 DUP3 ADD MSTORE DUP6 DUP10 ADD SLOAD PUSH1 0x60 DUP3 ADD MSTORE PUSH1 0x4 DUP10 ADD SLOAD PUSH1 0x80 DUP3 ADD MSTORE DUP7 DUP10 ADD SLOAD PUSH1 0xA0 DUP3 ADD MSTORE DUP2 MSTORE ADD SWAP6 ADD SWAP6 ADD SWAP5 SWAP4 PUSH2 0xE2F JUMP JUMPDEST CALLVALUE PUSH2 0x18F JUMPI PUSH1 0x0 CALLDATASIZE PUSH1 0x3 NOT ADD SLT PUSH2 0x18F JUMPI PUSH1 0x20 PUSH1 0x6 SLOAD PUSH1 0x40 MLOAD SWAP1 DUP2 MSTORE RETURN JUMPDEST CALLVALUE PUSH2 0x18F JUMPI PUSH1 0x0 CALLDATASIZE PUSH1 0x3 NOT ADD SLT PUSH2 0x18F JUMPI PUSH1 0x0 SLOAD PUSH1 0x40 MLOAD PUSH1 0x1 PUSH1 0x1 PUSH1 0xA0 SHL SUB SWAP1 SWAP2 AND DUP2 MSTORE PUSH1 0x20 SWAP1 RETURN JUMPDEST CALLVALUE PUSH2 0x18F JUMPI PUSH1 0x20 CALLDATASIZE PUSH1 0x3 NOT ADD SLT PUSH2 0x18F JUMPI PUSH1 0x4 CALLDATALOAD PUSH1 0x0 MSTORE PUSH1 0x2 PUSH1 0x20 MSTORE PUSH1 0x40 PUSH1 0x0 KECCAK256 DUP1 SLOAD SWAP1 PUSH1 0x1 PUSH1 0xA0 SHL PUSH1 0x1 SWAP1 SUB SWAP1 DUP2 PUSH1 0x1 DUP3 ADD SLOAD AND SWAP2 DUP1 PUSH1 0x2 DUP4 ADD SLOAD AND SWAP1 PUSH1 0x3 DUP4 ADD SLOAD AND SWAP2 PUSH1 0x4 DUP2 ADD SLOAD SWAP3 PUSH1 0x5 DUP3 ADD SLOAD SWAP4 PUSH1 0x6 DUP4 ADD SLOAD PUSH1 0x7 DUP5 ADD SLOAD PUSH1 0x8 DUP6 ADD PUSH2 0xFB3 SWAP1 PUSH2 0x1E77 JUMP JUMPDEST SWAP1 PUSH2 0xFC0 PUSH1 0x9 DUP8 ADD PUSH2 0x1E77 JUMP JUMPDEST SWAP3 PUSH1 0xA DUP8 ADD SLOAD PUSH1 0xFF AND SWAP9 PUSH1 0xB DUP9 ADD SLOAD SWAP6 PUSH1 0xC DUP10 ADD SLOAD SWAP8 PUSH1 0xD DUP11 ADD SLOAD SWAP10 PUSH1 0xE ADD SLOAD PUSH1 0xFF AND SWAP11 PUSH1 0x40 MLOAD SWAP15 DUP16 SWAP15 DUP16 SWAP2 DUP3 MSTORE PUSH1 0x20 DUP3 ADD MSTORE PUSH1 0x40 ADD MSTORE PUSH1 0x60 DUP14 ADD MSTORE PUSH1 0x80 DUP13 ADD MSTORE PUSH1 0xA0 DUP12 ADD MSTORE PUSH1 0xC0 DUP11 ADD MSTORE PUSH1 0xE0 DUP10 ADD MSTORE PUSH2 0x1E0 DUP1 PUSH2 0x100 DUP11 ADD MSTORE DUP9 ADD PUSH2 0x1025 SWAP2 PUSH2 0x1F1D JUMP JUMPDEST DUP8 DUP2 SUB PUSH2 0x120 DUP10 ADD MSTORE PUSH2 0x1037 SWAP2 PUSH2 0x1F1D JUMP JUMPDEST SWAP5 PUSH2 0x140 DUP8 ADD PUSH2 0x1046 SWAP2 PUSH2 0x1F5D JUMP JUMPDEST PUSH2 0x160 DUP7 ADD MSTORE PUSH2 0x180 DUP6 ADD MSTORE PUSH2 0x1A0 DUP5 ADD MSTORE ISZERO ISZERO PUSH2 0x1C0 DUP4 ADD MSTORE SUB SWAP1 RETURN JUMPDEST CALLVALUE PUSH2 0x18F JUMPI PUSH1 0x0 CALLDATASIZE PUSH1 0x3 NOT ADD SLT PUSH2 0x18F JUMPI PUSH2 0x107D PUSH2 0x1F9C JUMP JUMPDEST PUSH1 0x0 DUP1 SLOAD PUSH1 0x1 PUSH1 0x1 PUSH1 0xA0 SHL SUB NOT DUP2 AND DUP3 SSTORE PUSH1 0x1 PUSH1 0x1 PUSH1 0xA0 SHL SUB AND PUSH32 0x8BE0079C531659141344CD1FD0A4F28419497F9722A3DAAFE3B4186F6B6457E0 DUP3 DUP1 LOG3 STOP JUMPDEST CALLVALUE PUSH2 0x18F JUMPI PUSH2 0x100 CALLDATASIZE PUSH1 0x3 NOT ADD SLT PUSH2 0x18F JUMPI PUSH2 0x10D7 PUSH2 0x1D0C JUMP JUMPDEST PUSH1 0x24 CALLDATALOAD SWAP1 PUSH1 0x1 PUSH1 0x1 PUSH1 0xA0 SHL SUB SWAP1 DUP2 DUP4 AND DUP4 SUB PUSH2 0x18F JUMPI PUSH1 0xC4 CALLDATALOAD PUSH8 0xFFFFFFFFFFFFFFFF DUP2 GT PUSH2 0x18F JUMPI PUSH2 0x110D SWAP1 CALLDATASIZE SWAP1 PUSH1 0x4 ADD PUSH2 0x1DE6 JUMP JUMPDEST SWAP2 PUSH1 0xE4 CALLDATALOAD PUSH8 0xFFFFFFFFFFFFFFFF DUP2 GT PUSH2 0x18F JUMPI PUSH2 0x112E SWAP1 CALLDATASIZE SWAP1 PUSH1 0x4 ADD PUSH2 0x1DE6 JUMP JUMPDEST SWAP4 DUP2 DUP4 AND ISZERO PUSH2 0x16CA JUMPI DUP2 DUP2 AND ISZERO PUSH2 0x168C JUMPI PUSH1 0x44 CALLDATALOAD ISZERO PUSH2 0x1650 JUMPI PUSH1 0x64 CALLDATALOAD ISZERO PUSH2 0x160B JUMPI TIMESTAMP PUSH1 0x84 CALLDATALOAD GT ISZERO PUSH2 0x15D1 JUMPI PUSH1 0x84 CALLDATALOAD PUSH1 0xA4 CALLDATALOAD GT ISZERO PUSH2 0x1599 JUMPI DUP4 MLOAD ISZERO PUSH2 0x1554 JUMPI PUSH1 0x40 MLOAD PUSH4 0x70A08231 PUSH1 0xE0 SHL DUP2 MSTORE CALLER PUSH1 0x4 DUP3 ADD MSTORE PUSH1 0x20 DUP2 PUSH1 0x24 DUP2 DUP6 DUP8 AND GAS STATICCALL SWAP1 DUP2 ISZERO PUSH2 0x56E JUMPI PUSH1 0x0 SWAP2 PUSH2 0x1522 JUMPI JUMPDEST POP ISZERO PUSH2 0x14D3 JUMPI PUSH1 0x6 SLOAD SWAP4 PUSH2 0x11AC DUP6 PUSH2 0x1FC8 JUMP JUMPDEST PUSH1 0x6 SSTORE DUP5 PUSH1 0x0 MSTORE PUSH1 0x2 PUSH1 0x20 MSTORE PUSH1 0x40 PUSH1 0x0 KECCAK256 SWAP2 DUP6 DUP4 SSTORE PUSH1 0x1 DUP4 ADD PUSH1 0x1 PUSH1 0x1 PUSH1 0x60 SHL SUB PUSH1 0xA0 SHL SWAP1 CALLER DUP3 DUP3 SLOAD AND OR SWAP1 SSTORE PUSH1 0x2 DUP5 ADD DUP6 DUP8 AND DUP3 DUP3 SLOAD AND OR SWAP1 SSTORE DUP5 PUSH1 0x3 DUP6 ADD SWAP3 AND SWAP1 DUP3 SLOAD AND OR SWAP1 SSTORE PUSH1 0x44 CALLDATALOAD PUSH1 0x4 DUP4 ADD SSTORE PUSH1 0x64 CALLDATALOAD PUSH1 0x5 DUP4 ADD SSTORE PUSH1 0x84 CALLDATALOAD PUSH1 0x6 DUP4 ADD SSTORE PUSH1 0xA4 CALLDATALOAD PUSH1 0x7 DUP4 ADD SSTORE DUP1 MLOAD SWAP1 PUSH8 0xFFFFFFFFFFFFFFFF DUP3 GT PUSH2 0x991 JUMPI DUP2 SWAP1 PUSH2 0x1236 PUSH1 0x8 DUP6 ADD SLOAD PUSH2 0x1E3D JUMP JUMPDEST PUSH1 0x1F DUP2 GT PUSH2 0x1480 JUMPI JUMPDEST POP PUSH1 0x20 SWAP1 PUSH1 0x1F DUP4 GT PUSH1 0x1 EQ PUSH2 0x1413 JUMPI PUSH1 0x0 SWAP3 PUSH2 0x1408 JUMPI JUMPDEST POP POP DUP2 PUSH1 0x1 SHL SWAP2 PUSH1 0x0 NOT SWAP1 PUSH1 0x3 SHL SHR NOT AND OR PUSH1 0x8 DUP3 ADD SSTORE JUMPDEST DUP5 MLOAD PUSH8 0xFFFFFFFFFFFFFFFF DUP2 GT PUSH2 0x991 JUMPI PUSH2 0x128C PUSH1 0x9 DUP4 ADD SLOAD PUSH2 0x1E3D JUMP JUMPDEST SWAP6 PUSH1 0x1F DUP8 GT PUSH2 0x13C1 JUMPI JUMPDEST PUSH1 0x20 SWAP7 POP DUP7 SWAP1 PUSH1 0x1F DUP4 GT PUSH1 0x1 EQ PUSH2 0x1350 JUMPI PUSH1 0xA SWAP4 SWAP3 SWAP2 PUSH1 0x0 SWAP2 DUP4 PUSH2 0x1345 JUMPI JUMPDEST POP POP DUP2 PUSH1 0x1 SHL SWAP2 PUSH1 0x0 NOT SWAP1 PUSH1 0x3 SHL SHR NOT AND OR PUSH1 0x9 DUP3 ADD SSTORE JUMPDEST ADD PUSH1 0xFF NOT DUP2 SLOAD AND SWAP1 SSTORE CALLER PUSH1 0x0 MSTORE PUSH1 0x4 DUP5 MSTORE PUSH2 0x12EC DUP4 PUSH1 0x40 PUSH1 0x0 KECCAK256 PUSH2 0x1FD7 JUMP JUMPDEST DUP1 DUP3 AND PUSH1 0x0 MSTORE PUSH1 0x5 DUP5 MSTORE PUSH2 0x1304 DUP4 PUSH1 0x40 PUSH1 0x0 KECCAK256 PUSH2 0x1FD7 JUMP JUMPDEST PUSH1 0x40 MLOAD SWAP2 PUSH1 0x44 CALLDATALOAD DUP4 MSTORE PUSH1 0x64 CALLDATALOAD DUP6 DUP5 ADD MSTORE AND SWAP1 DUP3 PUSH32 0xCFC95E662EAA26D0F497338B82A72F20874A868726AEB89CACB6EF31AC36D11C PUSH1 0x40 CALLER SWAP4 LOG4 PUSH1 0x40 MLOAD SWAP1 DUP2 MSTORE RETURN JUMPDEST ADD MLOAD SWAP1 POP DUP9 DUP1 PUSH2 0x12B5 JUMP JUMPDEST SWAP1 PUSH1 0x9 DUP5 ADD PUSH1 0x0 MSTORE DUP8 PUSH1 0x0 KECCAK256 SWAP2 PUSH1 0x0 JUMPDEST PUSH1 0x1F NOT DUP6 AND DUP2 LT PUSH2 0x13AA JUMPI POP SWAP2 DUP4 SWAP2 PUSH1 0x1 SWAP4 PUSH1 0xA SWAP7 SWAP6 PUSH1 0x1F NOT DUP2 AND LT PUSH2 0x1391 JUMPI JUMPDEST POP POP POP DUP2 SHL ADD PUSH1 0x9 DUP3 ADD SSTORE PUSH2 0x12CD JUMP JUMPDEST ADD MLOAD PUSH1 0x0 NOT PUSH1 0xF8 DUP5 PUSH1 0x3 SHL AND SHR NOT AND SWAP1 SSTORE DUP9 DUP1 DUP1 PUSH2 0x1381 JUMP JUMPDEST SWAP2 SWAP3 DUP10 PUSH1 0x1 DUP2 SWAP3 DUP7 DUP6 ADD MLOAD DUP2 SSTORE ADD SWAP5 ADD SWAP3 ADD PUSH2 0x1360 JUMP JUMPDEST PUSH1 0x9 DUP4 ADD PUSH1 0x0 MSTORE PUSH1 0x20 PUSH1 0x0 KECCAK256 PUSH1 0x1F DUP4 ADD PUSH1 0x5 SHR DUP2 ADD PUSH1 0x20 DUP5 LT PUSH2 0x1401 JUMPI JUMPDEST PUSH1 0x1F DUP10 ADD PUSH1 0x5 SHR DUP3 ADD DUP2 LT PUSH2 0x13F5 JUMPI POP POP PUSH2 0x1296 JUMP JUMPDEST PUSH1 0x0 DUP2 SSTORE PUSH1 0x1 ADD PUSH2 0x13DF JUMP JUMPDEST POP DUP1 PUSH2 0x13DF JUMP JUMPDEST ADD MLOAD SWAP1 POP DUP8 DUP1 PUSH2 0x1256 JUMP JUMPDEST PUSH1 0x8 DUP6 ADD PUSH1 0x0 SWAP1 DUP2 MSTORE PUSH1 0x20 DUP2 KECCAK256 SWAP4 POP PUSH1 0x1F NOT DUP6 AND SWAP1 JUMPDEST DUP2 DUP2 LT PUSH2 0x1468 JUMPI POP SWAP1 DUP5 PUSH1 0x1 SWAP6 SWAP5 SWAP4 SWAP3 LT PUSH2 0x144F JUMPI JUMPDEST POP POP POP DUP2 SHL ADD PUSH1 0x8 DUP3 ADD SSTORE PUSH2 0x126E JUMP JUMPDEST ADD MLOAD PUSH1 0x0 NOT PUSH1 0xF8 DUP5 PUSH1 0x3 SHL AND SHR NOT AND SWAP1 SSTORE DUP8 DUP1 DUP1 PUSH2 0x143F JUMP JUMPDEST SWAP3 SWAP4 PUSH1 0x20 PUSH1 0x1 DUP2 SWAP3 DUP8 DUP7 ADD MLOAD DUP2 SSTORE ADD SWAP6 ADD SWAP4 ADD PUSH2 0x1429 JUMP JUMPDEST SWAP1 SWAP2 POP PUSH1 0x8 DUP5 ADD PUSH1 0x0 MSTORE PUSH1 0x20 PUSH1 0x0 KECCAK256 PUSH1 0x1F DUP5 ADD PUSH1 0x5 SHR DUP2 ADD PUSH1 0x20 DUP6 LT PUSH2 0x14CC JUMPI JUMPDEST SWAP1 DUP5 SWAP4 SWAP3 SWAP2 JUMPDEST PUSH1 0x1F DUP4 ADD PUSH1 0x5 SHR DUP3 ADD DUP2 LT PUSH2 0x14BD JUMPI POP POP PUSH2 0x123F JUMP JUMPDEST PUSH1 0x0 DUP2 SSTORE DUP6 SWAP5 POP PUSH1 0x1 ADD PUSH2 0x14A7 JUMP JUMPDEST POP DUP1 PUSH2 0x14A1 JUMP JUMPDEST PUSH1 0x40 MLOAD PUSH3 0x461BCD PUSH1 0xE5 SHL DUP2 MSTORE PUSH1 0x20 PUSH1 0x4 DUP3 ADD MSTORE PUSH1 0x21 PUSH1 0x24 DUP3 ADD MSTORE PUSH32 0x4C616E646C6F7264206D757374206F776E2070726F706572747920746F6B656E PUSH1 0x44 DUP3 ADD MSTORE PUSH1 0x73 PUSH1 0xF8 SHL PUSH1 0x64 DUP3 ADD MSTORE PUSH1 0x84 SWAP1 REVERT JUMPDEST SWAP1 POP PUSH1 0x20 DUP2 RETURNDATASIZE PUSH1 0x20 GT PUSH2 0x154C JUMPI JUMPDEST DUP2 PUSH2 0x153D PUSH1 0x20 SWAP4 DUP4 PUSH2 0x1DC4 JUMP JUMPDEST DUP2 ADD SUB SLT PUSH2 0x18F JUMPI MLOAD DUP7 PUSH2 0x1199 JUMP JUMPDEST RETURNDATASIZE SWAP2 POP PUSH2 0x1530 JUMP JUMPDEST PUSH1 0x40 MLOAD PUSH3 0x461BCD PUSH1 0xE5 SHL DUP2 MSTORE PUSH1 0x20 PUSH1 0x4 DUP3 ADD MSTORE PUSH1 0x18 PUSH1 0x24 DUP3 ADD MSTORE PUSH32 0x496E76616C69642070726F706572747920616464726573730000000000000000 PUSH1 0x44 DUP3 ADD MSTORE PUSH1 0x64 SWAP1 REVERT JUMPDEST PUSH1 0x40 MLOAD PUSH3 0x461BCD PUSH1 0xE5 SHL DUP2 MSTORE PUSH1 0x20 PUSH1 0x4 DUP3 ADD MSTORE PUSH1 0x10 PUSH1 0x24 DUP3 ADD MSTORE PUSH16 0x496E76616C696420656E642064617465 PUSH1 0x80 SHL PUSH1 0x44 DUP3 ADD MSTORE PUSH1 0x64 SWAP1 REVERT JUMPDEST PUSH1 0x40 MLOAD PUSH3 0x461BCD PUSH1 0xE5 SHL DUP2 MSTORE PUSH1 0x20 PUSH1 0x4 DUP3 ADD MSTORE PUSH1 0x12 PUSH1 0x24 DUP3 ADD MSTORE PUSH18 0x496E76616C69642073746172742064617465 PUSH1 0x70 SHL PUSH1 0x44 DUP3 ADD MSTORE PUSH1 0x64 SWAP1 REVERT JUMPDEST PUSH1 0x40 MLOAD PUSH3 0x461BCD PUSH1 0xE5 SHL DUP2 MSTORE PUSH1 0x20 PUSH1 0x4 DUP3 ADD MSTORE PUSH1 0x18 PUSH1 0x24 DUP3 ADD MSTORE PUSH32 0x496E76616C6964207365637572697479206465706F7369740000000000000000 PUSH1 0x44 DUP3 ADD MSTORE PUSH1 0x64 SWAP1 REVERT JUMPDEST PUSH1 0x40 MLOAD PUSH3 0x461BCD PUSH1 0xE5 SHL DUP2 MSTORE PUSH1 0x20 PUSH1 0x4 DUP3 ADD MSTORE PUSH1 0x14 PUSH1 0x24 DUP3 ADD MSTORE PUSH20 0x125B9D985B1A59081B5BDB9D1A1B1E481C995B9D PUSH1 0x62 SHL PUSH1 0x44 DUP3 ADD MSTORE PUSH1 0x64 SWAP1 REVERT JUMPDEST PUSH1 0x40 MLOAD PUSH3 0x461BCD PUSH1 0xE5 SHL DUP2 MSTORE PUSH1 0x20 PUSH1 0x4 DUP3 ADD MSTORE PUSH1 0x16 PUSH1 0x24 DUP3 ADD MSTORE PUSH22 0x24B73B30B634B210383937B832B93A3C903A37B5B2B7 PUSH1 0x51 SHL PUSH1 0x44 DUP3 ADD MSTORE PUSH1 0x64 SWAP1 REVERT JUMPDEST PUSH1 0x40 MLOAD PUSH3 0x461BCD PUSH1 0xE5 SHL DUP2 MSTORE PUSH1 0x20 PUSH1 0x4 DUP3 ADD MSTORE PUSH1 0x16 PUSH1 0x24 DUP3 ADD MSTORE PUSH22 0x496E76616C69642074656E616E742061646472657373 PUSH1 0x50 SHL PUSH1 0x44 DUP3 ADD MSTORE PUSH1 0x64 SWAP1 REVERT JUMPDEST CALLVALUE PUSH2 0x18F JUMPI PUSH1 0x20 CALLDATASIZE PUSH1 0x3 NOT ADD SLT PUSH2 0x18F JUMPI PUSH2 0x1721 PUSH2 0x1D0C JUMP JUMPDEST PUSH2 0x1729 PUSH2 0x1F9C JUMP JUMPDEST PUSH1 0x1 PUSH1 0x1 PUSH1 0xA0 SHL SUB AND DUP1 ISZERO PUSH2 0x1750 JUMPI PUSH1 0x1 PUSH1 0x1 PUSH1 0x60 SHL SUB PUSH1 0xA0 SHL PUSH1 0x7 SLOAD AND OR PUSH1 0x7 SSTORE PUSH1 0x0 DUP1 RETURN JUMPDEST PUSH1 0x40 MLOAD PUSH3 0x461BCD PUSH1 0xE5 SHL DUP2 MSTORE PUSH1 0x20 PUSH1 0x4 DUP3 ADD MSTORE PUSH1 0x15 PUSH1 0x24 DUP3 ADD MSTORE PUSH21 0x24B73B30B634B2103830BCB6B2B73A103A37B5B2B7 PUSH1 0x59 SHL PUSH1 0x44 DUP3 ADD MSTORE PUSH1 0x64 SWAP1 REVERT JUMPDEST CALLVALUE PUSH2 0x18F JUMPI PUSH1 0x20 CALLDATASIZE PUSH1 0x3 NOT ADD SLT PUSH2 0x18F JUMPI PUSH1 0x4 CALLDATALOAD DUP1 PUSH1 0x0 MSTORE PUSH1 0x2 PUSH1 0x20 MSTORE PUSH1 0x40 PUSH1 0x0 KECCAK256 PUSH2 0x17BB DUP2 SLOAD ISZERO ISZERO PUSH2 0x200C JUMP JUMPDEST PUSH1 0x1 DUP2 ADD SLOAD CALLER PUSH1 0x1 PUSH1 0x1 PUSH1 0xA0 SHL SUB SWAP2 DUP3 AND EQ SWAP1 DUP2 ISZERO PUSH2 0x1860 JUMPI JUMPDEST POP ISZERO PUSH2 0x182A JUMPI PUSH1 0xA ADD DUP1 SLOAD PUSH1 0xFF DUP2 AND SWAP1 PUSH1 0x5 DUP3 LT ISZERO PUSH2 0x2E9 JUMPI PUSH2 0x17FC PUSH1 0x1 PUSH1 0x3 SWAP4 EQ PUSH2 0x208A JUMP JUMPDEST PUSH1 0xFF NOT AND OR SWAP1 SSTORE PUSH32 0x903320D9D82A125A682F110695A1306646295D73A1F595EA334D198446086D8C PUSH1 0x0 DUP1 LOG2 STOP JUMPDEST PUSH1 0x40 MLOAD PUSH3 0x461BCD PUSH1 0xE5 SHL DUP2 MSTORE PUSH1 0x20 PUSH1 0x4 DUP3 ADD MSTORE PUSH1 0xE PUSH1 0x24 DUP3 ADD MSTORE PUSH14 0x139BDD08185D5D1A1BDC9A5E9959 PUSH1 0x92 SHL PUSH1 0x44 DUP3 ADD MSTORE PUSH1 0x64 SWAP1 REVERT JUMPDEST SWAP1 POP PUSH1 0x2 DUP3 ADD SLOAD AND CALLER EQ DUP4 PUSH2 0x17D5 JUMP JUMPDEST CALLVALUE PUSH2 0x18F JUMPI PUSH1 0x40 CALLDATASIZE PUSH1 0x3 NOT ADD SLT PUSH2 0x18F JUMPI PUSH2 0x1889 PUSH2 0x1D0C JUMP JUMPDEST PUSH1 0x1 PUSH1 0x1 PUSH1 0xA0 SHL SUB AND PUSH1 0x0 SWAP1 DUP2 MSTORE PUSH1 0x5 PUSH1 0x20 MSTORE PUSH1 0x40 SWAP1 KECCAK256 DUP1 SLOAD PUSH1 0x24 CALLDATALOAD SWAP2 SWAP1 DUP3 LT ISZERO PUSH2 0x18F JUMPI PUSH1 0x20 SWAP2 PUSH2 0x18BA SWAP2 PUSH2 0x1D5D JUMP JUMPDEST SWAP1 SLOAD PUSH1 0x40 MLOAD SWAP2 PUSH1 0x3 SHL SHR DUP2 MSTORE RETURN JUMPDEST CALLVALUE PUSH2 0x18F JUMPI PUSH1 0x40 CALLDATASIZE PUSH1 0x3 NOT ADD SLT PUSH2 0x18F JUMPI PUSH2 0x18E1 PUSH2 0x1D0C JUMP JUMPDEST PUSH1 0x1 PUSH1 0x1 PUSH1 0xA0 SHL SUB AND PUSH1 0x0 SWAP1 DUP2 MSTORE PUSH1 0x4 PUSH1 0x20 MSTORE PUSH1 0x40 SWAP1 KECCAK256 DUP1 SLOAD PUSH1 0x24 CALLDATALOAD SWAP2 SWAP1 DUP3 LT ISZERO PUSH2 0x18F JUMPI PUSH1 0x20 SWAP2 PUSH2 0x18BA SWAP2 PUSH2 0x1D5D JUMP JUMPDEST CALLVALUE PUSH2 0x18F JUMPI PUSH1 0x20 CALLDATASIZE PUSH1 0x3 NOT ADD SLT PUSH2 0x18F JUMPI PUSH1 0x4 CALLDATALOAD PUSH1 0x0 MSTORE PUSH1 0x2 PUSH1 0x20 MSTORE PUSH1 0x40 PUSH1 0x0 KECCAK256 PUSH1 0x40 MLOAD PUSH2 0x193F DUP2 PUSH2 0x1D8B JUMP JUMPDEST DUP2 SLOAD DUP2 MSTORE PUSH1 0x1 DUP3 ADD SLOAD PUSH1 0x1 PUSH1 0x1 PUSH1 0xA0 SHL SUB SWAP1 DUP2 AND PUSH1 0x20 DUP4 ADD MSTORE PUSH1 0x2 DUP4 ADD SLOAD DUP2 AND PUSH1 0x40 DUP4 ADD MSTORE PUSH1 0x3 DUP4 ADD SLOAD AND PUSH1 0x60 DUP3 ADD MSTORE PUSH1 0x4 DUP3 ADD SLOAD PUSH1 0x80 DUP3 ADD MSTORE PUSH1 0x5 DUP3 ADD SLOAD PUSH1 0xA0 DUP3 ADD MSTORE PUSH1 0x6 DUP3 ADD SLOAD PUSH1 0xC0 DUP3 ADD MSTORE PUSH1 0x7 DUP3 ADD SLOAD PUSH1 0xE0 DUP3 ADD SWAP1 DUP2 MSTORE SWAP1 PUSH2 0x19A6 PUSH1 0x8 DUP5 ADD PUSH2 0x1E77 JUMP JUMPDEST PUSH2 0x100 DUP3 ADD MSTORE PUSH2 0x19B8 PUSH1 0x9 DUP5 ADD PUSH2 0x1E77 JUMP JUMPDEST PUSH2 0x120 DUP3 ADD MSTORE PUSH1 0xFF PUSH1 0xA DUP5 ADD SLOAD AND SWAP3 PUSH1 0x5 DUP5 LT ISZERO PUSH2 0x2E9 JUMPI PUSH1 0xE PUSH1 0xFF SWAP2 PUSH1 0x20 SWAP6 PUSH2 0x140 DUP6 ADD MSTORE PUSH1 0xB DUP2 ADD SLOAD PUSH2 0x160 DUP6 ADD MSTORE PUSH1 0xC DUP2 ADD SLOAD PUSH2 0x180 DUP6 ADD MSTORE PUSH1 0xD DUP2 ADD SLOAD PUSH2 0x1A0 DUP6 ADD MSTORE ADD SLOAD AND ISZERO ISZERO PUSH2 0x1C0 DUP3 ADD MSTORE MLOAD ISZERO ISZERO SWAP1 DUP2 PUSH2 0x1A1F JUMPI JUMPDEST POP PUSH1 0x40 MLOAD SWAP1 ISZERO ISZERO DUP2 MSTORE RETURN JUMPDEST SWAP1 POP MLOAD TIMESTAMP GT DUP3 PUSH2 0x1A14 JUMP JUMPDEST CALLVALUE PUSH2 0x18F JUMPI PUSH1 0x0 CALLDATASIZE PUSH1 0x3 NOT ADD SLT PUSH2 0x18F JUMPI PUSH1 0x7 SLOAD PUSH1 0x40 MLOAD PUSH1 0x1 PUSH1 0x1 PUSH1 0xA0 SHL SUB SWAP1 SWAP2 AND DUP2 MSTORE PUSH1 0x20 SWAP1 RETURN JUMPDEST CALLVALUE PUSH2 0x18F JUMPI PUSH1 0x20 DUP1 PUSH1 0x3 NOT CALLDATASIZE ADD SLT PUSH2 0x18F JUMPI PUSH1 0x4 CALLDATALOAD SWAP1 PUSH2 0x1A71 PUSH2 0x2067 JUMP JUMPDEST DUP2 PUSH1 0x0 MSTORE PUSH1 0x2 DUP2 MSTORE PUSH1 0x40 PUSH1 0x0 KECCAK256 PUSH2 0x1A8A DUP2 SLOAD ISZERO ISZERO PUSH2 0x200C JUMP JUMPDEST PUSH1 0x2 DUP2 ADD SLOAD PUSH1 0x1 PUSH1 0x1 PUSH1 0xA0 SHL SUB SWAP2 SWAP1 DUP3 AND CALLER SUB PUSH2 0x1C53 JUMPI PUSH1 0xA DUP2 ADD SWAP2 DUP3 SLOAD SWAP3 PUSH1 0xFF DUP5 AND PUSH1 0x5 DUP2 LT ISZERO PUSH2 0x2E9 JUMPI PUSH2 0x1C1A JUMPI PUSH1 0xB DUP4 ADD SWAP3 DUP4 SLOAD PUSH2 0x1BDE JUMPI PUSH1 0x5 ADD DUP1 SLOAD SWAP4 DUP5 SWAP1 SSTORE PUSH1 0xFF NOT SWAP1 SWAP5 AND PUSH1 0x1 OR SWAP1 SSTORE PUSH1 0x7 SLOAD PUSH1 0x40 MLOAD PUSH4 0x23B872DD PUSH1 0xE0 SHL DUP2 MSTORE CALLER PUSH1 0x4 DUP3 ADD MSTORE ADDRESS PUSH1 0x24 DUP3 ADD MSTORE PUSH1 0x44 DUP2 ADD SWAP4 SWAP1 SWAP4 MSTORE DUP5 SWAP2 DUP4 SWAP2 AND DUP2 PUSH1 0x0 DUP2 PUSH1 0x64 DUP2 ADD SUB SWAP3 GAS CALL SWAP1 DUP2 ISZERO PUSH2 0x56E JUMPI PUSH1 0x0 SWAP2 PUSH2 0x1BC1 JUMPI JUMPDEST POP ISZERO PUSH2 0x1B7C JUMPI PUSH32 0xC540C2EEEF5862586FBBEBB5289544F74A00F86A883C0E39325EA3A41A0D466 DUP4 SWAP2 SLOAD SWAP3 PUSH1 0x40 MLOAD SWAP4 DUP5 MSTORE CALLER SWAP4 LOG3 PUSH32 0x8C482976F65BE3D81F6327AFE47A1106E409F08DBAF3796D639250D1677C7218 PUSH1 0x0 DUP1 LOG2 PUSH1 0x1 DUP1 SSTORE STOP JUMPDEST PUSH1 0x40 MLOAD PUSH3 0x461BCD PUSH1 0xE5 SHL DUP2 MSTORE PUSH1 0x4 DUP2 ADD DUP4 SWAP1 MSTORE PUSH1 0x17 PUSH1 0x24 DUP3 ADD MSTORE PUSH32 0x4465706F736974207472616E73666572206661696C6564000000000000000000 PUSH1 0x44 DUP3 ADD MSTORE PUSH1 0x64 SWAP1 REVERT JUMPDEST PUSH2 0x1BD8 SWAP2 POP DUP4 RETURNDATASIZE DUP6 GT PUSH2 0x567 JUMPI PUSH2 0x559 DUP2 DUP4 PUSH2 0x1DC4 JUMP JUMPDEST DUP5 PUSH2 0x1B1D JUMP JUMPDEST PUSH1 0x40 MLOAD PUSH3 0x461BCD PUSH1 0xE5 SHL DUP2 MSTORE PUSH1 0x4 DUP2 ADD DUP8 SWAP1 MSTORE PUSH1 0x14 PUSH1 0x24 DUP3 ADD MSTORE PUSH20 0x11195C1BDCDA5D08185B1C9958591E481C185A59 PUSH1 0x62 SHL PUSH1 0x44 DUP3 ADD MSTORE PUSH1 0x64 SWAP1 REVERT JUMPDEST PUSH1 0x40 MLOAD PUSH3 0x461BCD PUSH1 0xE5 SHL DUP2 MSTORE PUSH1 0x4 DUP2 ADD DUP7 SWAP1 MSTORE PUSH1 0x11 PUSH1 0x24 DUP3 ADD MSTORE PUSH17 0x4C65617365206E6F742070656E64696E67 PUSH1 0x78 SHL PUSH1 0x44 DUP3 ADD MSTORE PUSH1 0x64 SWAP1 REVERT JUMPDEST PUSH1 0x40 MLOAD PUSH3 0x461BCD PUSH1 0xE5 SHL DUP2 MSTORE PUSH1 0x4 DUP2 ADD DUP5 SWAP1 MSTORE PUSH1 0x1B PUSH1 0x24 DUP3 ADD MSTORE PUSH32 0x4F6E6C792074656E616E742063616E20706179206465706F7369740000000000 PUSH1 0x44 DUP3 ADD MSTORE PUSH1 0x64 SWAP1 REVERT JUMPDEST CALLVALUE PUSH2 0x18F JUMPI PUSH1 0x20 SWAP1 DUP2 PUSH1 0x3 NOT CALLDATASIZE ADD SLT PUSH2 0x18F JUMPI PUSH1 0x1 PUSH1 0x1 PUSH1 0xA0 SHL SUB PUSH2 0x1CBB PUSH2 0x1D0C JUMP JUMPDEST AND PUSH1 0x0 MSTORE PUSH1 0x5 DUP3 MSTORE PUSH1 0x40 PUSH1 0x0 KECCAK256 SWAP2 DUP3 SLOAD DUP1 DUP4 MSTORE DUP2 DUP4 ADD SWAP4 PUSH1 0x0 MSTORE DUP2 PUSH1 0x0 KECCAK256 SWAP2 PUSH1 0x0 SWAP1 JUMPDEST DUP3 DUP3 LT PUSH2 0x1CF5 JUMPI PUSH2 0x201 DUP6 PUSH2 0x1F5 DUP2 DUP10 SUB DUP3 PUSH2 0x1DC4 JUMP JUMPDEST DUP4 SLOAD DUP7 MSTORE SWAP5 DUP6 ADD SWAP5 PUSH1 0x1 SWAP4 DUP5 ADD SWAP4 SWAP1 SWAP2 ADD SWAP1 PUSH2 0x1CDE JUMP JUMPDEST PUSH1 0x4 CALLDATALOAD SWAP1 PUSH1 0x1 PUSH1 0x1 PUSH1 0xA0 SHL SUB DUP3 AND DUP3 SUB PUSH2 0x18F JUMPI JUMP JUMPDEST PUSH1 0x20 SWAP1 DUP2 PUSH1 0x40 DUP2 DUP4 ADD SWAP3 DUP3 DUP2 MSTORE DUP6 MLOAD DUP1 SWAP5 MSTORE ADD SWAP4 ADD SWAP2 PUSH1 0x0 JUMPDEST DUP3 DUP2 LT PUSH2 0x1D49 JUMPI POP POP POP POP SWAP1 JUMP JUMPDEST DUP4 MLOAD DUP6 MSTORE SWAP4 DUP2 ADD SWAP4 SWAP3 DUP2 ADD SWAP3 PUSH1 0x1 ADD PUSH2 0x1D3B JUMP JUMPDEST DUP1 SLOAD DUP3 LT ISZERO PUSH2 0x1D75 JUMPI PUSH1 0x0 MSTORE PUSH1 0x20 PUSH1 0x0 KECCAK256 ADD SWAP1 PUSH1 0x0 SWAP1 JUMP JUMPDEST PUSH4 0x4E487B71 PUSH1 0xE0 SHL PUSH1 0x0 MSTORE PUSH1 0x32 PUSH1 0x4 MSTORE PUSH1 0x24 PUSH1 0x0 REVERT JUMPDEST PUSH2 0x1E0 DUP2 ADD SWAP1 DUP2 LT PUSH8 0xFFFFFFFFFFFFFFFF DUP3 GT OR PUSH2 0x991 JUMPI PUSH1 0x40 MSTORE JUMP JUMPDEST PUSH1 0xC0 DUP2 ADD SWAP1 DUP2 LT PUSH8 0xFFFFFFFFFFFFFFFF DUP3 GT OR PUSH2 0x991 JUMPI PUSH1 0x40 MSTORE JUMP JUMPDEST SWAP1 PUSH1 0x1F DUP1 NOT SWAP2 ADD AND DUP2 ADD SWAP1 DUP2 LT PUSH8 0xFFFFFFFFFFFFFFFF DUP3 GT OR PUSH2 0x991 JUMPI PUSH1 0x40 MSTORE JUMP JUMPDEST DUP2 PUSH1 0x1F DUP3 ADD SLT ISZERO PUSH2 0x18F JUMPI DUP1 CALLDATALOAD SWAP1 PUSH8 0xFFFFFFFFFFFFFFFF DUP3 GT PUSH2 0x991 JUMPI PUSH1 0x40 MLOAD SWAP3 PUSH2 0x1E1B PUSH1 0x1F DUP5 ADD PUSH1 0x1F NOT AND PUSH1 0x20 ADD DUP6 PUSH2 0x1DC4 JUMP JUMPDEST DUP3 DUP5 MSTORE PUSH1 0x20 DUP4 DUP4 ADD ADD GT PUSH2 0x18F JUMPI DUP2 PUSH1 0x0 SWAP3 PUSH1 0x20 DUP1 SWAP4 ADD DUP4 DUP7 ADD CALLDATACOPY DUP4 ADD ADD MSTORE SWAP1 JUMP JUMPDEST SWAP1 PUSH1 0x1 DUP3 DUP2 SHR SWAP3 AND DUP1 ISZERO PUSH2 0x1E6D JUMPI JUMPDEST PUSH1 0x20 DUP4 LT EQ PUSH2 0x1E57 JUMPI JUMP JUMPDEST PUSH4 0x4E487B71 PUSH1 0xE0 SHL PUSH1 0x0 MSTORE PUSH1 0x22 PUSH1 0x4 MSTORE PUSH1 0x24 PUSH1 0x0 REVERT JUMPDEST SWAP2 PUSH1 0x7F AND SWAP2 PUSH2 0x1E4C JUMP JUMPDEST SWAP1 PUSH1 0x40 MLOAD SWAP2 DUP3 PUSH1 0x0 DUP3 SLOAD SWAP3 PUSH2 0x1E8B DUP5 PUSH2 0x1E3D JUMP JUMPDEST SWAP1 DUP2 DUP5 MSTORE PUSH1 0x1 SWAP5 DUP6 DUP2 AND SWAP1 DUP2 PUSH1 0x0 EQ PUSH2 0x1EFA JUMPI POP PUSH1 0x1 EQ PUSH2 0x1EB7 JUMPI JUMPDEST POP POP PUSH2 0x1EB5 SWAP3 POP SUB DUP4 PUSH2 0x1DC4 JUMP JUMPDEST JUMP JUMPDEST SWAP1 SWAP4 SWAP2 POP PUSH1 0x0 MSTORE PUSH1 0x20 SWAP1 DUP2 PUSH1 0x0 KECCAK256 SWAP4 PUSH1 0x0 SWAP2 JUMPDEST DUP2 DUP4 LT PUSH2 0x1EE2 JUMPI POP POP PUSH2 0x1EB5 SWAP4 POP DUP3 ADD ADD CODESIZE DUP1 PUSH2 0x1EA7 JUMP JUMPDEST DUP6 SLOAD DUP9 DUP5 ADD DUP6 ADD MSTORE SWAP5 DUP6 ADD SWAP5 DUP8 SWAP5 POP SWAP2 DUP4 ADD SWAP2 PUSH2 0x1ECA JUMP JUMPDEST SWAP2 POP POP PUSH2 0x1EB5 SWAP5 POP PUSH1 0x20 SWAP3 POP PUSH1 0xFF NOT AND DUP3 DUP5 ADD MSTORE ISZERO ISZERO PUSH1 0x5 SHL DUP3 ADD ADD CODESIZE DUP1 PUSH2 0x1EA7 JUMP JUMPDEST SWAP2 SWAP1 DUP3 MLOAD SWAP3 DUP4 DUP3 MSTORE PUSH1 0x0 JUMPDEST DUP5 DUP2 LT PUSH2 0x1F49 JUMPI POP POP DUP3 PUSH1 0x0 PUSH1 0x20 DUP1 SWAP5 SWAP6 DUP5 ADD ADD MSTORE PUSH1 0x1F DUP1 NOT SWAP2 ADD AND ADD ADD SWAP1 JUMP JUMPDEST PUSH1 0x20 DUP2 DUP4 ADD DUP2 ADD MLOAD DUP5 DUP4 ADD DUP3 ADD MSTORE ADD PUSH2 0x1F28 JUMP JUMPDEST SWAP1 PUSH1 0x5 DUP3 LT ISZERO PUSH2 0x2E9 JUMPI MSTORE JUMP JUMPDEST PUSH1 0x40 SWAP1 PUSH1 0x3 NOT ADD SLT PUSH2 0x18F JUMPI PUSH1 0x4 CALLDATALOAD SWAP1 PUSH1 0x24 CALLDATALOAD SWAP1 JUMP JUMPDEST DUP1 SLOAD DUP3 LT ISZERO PUSH2 0x1D75 JUMPI PUSH1 0x0 MSTORE PUSH1 0x6 PUSH1 0x20 PUSH1 0x0 KECCAK256 SWAP2 MUL ADD SWAP1 PUSH1 0x0 SWAP1 JUMP JUMPDEST PUSH1 0x0 SLOAD PUSH1 0x1 PUSH1 0x1 PUSH1 0xA0 SHL SUB AND CALLER SUB PUSH2 0x1FB0 JUMPI JUMP JUMPDEST PUSH1 0x40 MLOAD PUSH4 0x118CDAA7 PUSH1 0xE0 SHL DUP2 MSTORE CALLER PUSH1 0x4 DUP3 ADD MSTORE PUSH1 0x24 SWAP1 REVERT JUMPDEST PUSH1 0x0 NOT DUP2 EQ PUSH2 0x57A JUMPI PUSH1 0x1 ADD SWAP1 JUMP JUMPDEST DUP1 SLOAD PUSH1 0x1 PUSH1 0x40 SHL DUP2 LT ISZERO PUSH2 0x991 JUMPI PUSH2 0x1FF4 SWAP2 PUSH1 0x1 DUP3 ADD DUP2 SSTORE PUSH2 0x1D5D JUMP JUMPDEST DUP2 SWAP3 SWAP2 SLOAD SWAP1 PUSH1 0x3 SHL SWAP2 DUP3 SHL SWAP2 PUSH1 0x0 NOT SWAP1 SHL NOT AND OR SWAP1 SSTORE JUMP JUMPDEST ISZERO PUSH2 0x2013 JUMPI JUMP JUMPDEST PUSH1 0x40 MLOAD PUSH3 0x461BCD PUSH1 0xE5 SHL DUP2 MSTORE PUSH1 0x20 PUSH1 0x4 DUP3 ADD MSTORE PUSH1 0x14 PUSH1 0x24 DUP3 ADD MSTORE PUSH20 0x1319585CD948191BD95CC81B9BDD08195E1A5CDD PUSH1 0x62 SHL PUSH1 0x44 DUP3 ADD MSTORE PUSH1 0x64 SWAP1 REVERT JUMPDEST SWAP1 DUP2 PUSH1 0x20 SWAP2 SUB SLT PUSH2 0x18F JUMPI MLOAD DUP1 ISZERO ISZERO DUP2 SUB PUSH2 0x18F JUMPI SWAP1 JUMP JUMPDEST PUSH1 0x2 PUSH1 0x1 SLOAD EQ PUSH2 0x2078 JUMPI PUSH1 0x2 PUSH1 0x1 SSTORE JUMP JUMPDEST PUSH1 0x40 MLOAD PUSH4 0x3EE5AEB5 PUSH1 0xE0 SHL DUP2 MSTORE PUSH1 0x4 SWAP1 REVERT JUMPDEST ISZERO PUSH2 0x2091 JUMPI JUMP JUMPDEST PUSH1 0x40 MLOAD PUSH3 0x461BCD PUSH1 0xE5 SHL DUP2 MSTORE PUSH1 0x20 PUSH1 0x4 DUP3 ADD MSTORE PUSH1 0x10 PUSH1 0x24 DUP3 ADD MSTORE PUSH16 0x4C65617365206E6F7420616374697665 PUSH1 0x80 SHL PUSH1 0x44 DUP3 ADD MSTORE PUSH1 0x64 SWAP1 REVERT INVALID LOG2 PUSH5 0x6970667358 0x22 SLT KECCAK256 PUSH26 0x4EAFCBA74F9B084B601D9612637115CC17287140F52E6A13CDB5 0xA6 0x22 CALLVALUE PUSH14 0x5664736F6C634300081400330000 "},"methodIdentifiers":{"cancelLease(uint256)":"d6616f75","createLease(address,address,uint256,uint256,uint256,uint256,string,string)":"6aacbdc4","getLandlordLeases(address)":"f08b6a03","getLease(uint256)":"9f44657c","getRentPayments(uint256)":"9547d647","getTenantLeases(address)":"07a78319","isLeaseExpired(uint256)":"3201ad94","landlordLeases(address,uint256)":"550252ac","leases(uint256)":"8927a106","nextLeaseId()":"902238e1","owner()":"8da5cb5b","payRent(uint256,uint256,uint256)":"b73f9e30","paySecurityDeposit(uint256)":"0d7eb601","paymentToken()":"3013ce29","renounceOwnership()":"715018a6","rentPayments(uint256,uint256)":"d064fbe8","returnSecurityDeposit(uint256,uint256)":"bc1af044","setPaymentToken(address)":"6a326ab1","tenantLeases(address,uint256)":"57976894","terminateLease(uint256)":"588e00a5","transferOwnership(address)":"f2fde38b"}}}}}