{"contracts/Compliance.sol":{"Compliance":{"abi":[{"inputs":[{"internalType":"address","name":"_identityRegistry","type":"address"}],"stateMutability":"nonpayable","type":"constructor"},{"inputs":[{"internalType":"address","name":"owner","type":"address"}],"name":"OwnableInvalidOwner","type":"error"},{"inputs":[{"internalType":"address","name":"account","type":"address"}],"name":"OwnableUnauthorizedAccount","type":"error"},{"anonymous":false,"inputs":[{"indexed":true,"internalType":"address","name":"_address","type":"address"}],"name":"AddressBlacklisted","type":"event"},{"anonymous":false,"inputs":[{"indexed":true,"internalType":"address","name":"_address","type":"address"}],"name":"AddressWhitelisted","type":"event"},{"anonymous":false,"inputs":[{"indexed":true,"internalType":"bytes32","name":"_ruleId","type":"bytes32"}],"name":"ComplianceRuleAdded","type":"event"},{"anonymous":false,"inputs":[{"indexed":true,"internalType":"bytes32","name":"_ruleId","type":"bytes32"}],"name":"ComplianceRuleRemoved","type":"event"},{"anonymous":false,"inputs":[{"indexed":true,"internalType":"address","name":"previousOwner","type":"address"},{"indexed":true,"internalType":"address","name":"newOwner","type":"address"}],"name":"OwnershipTransferred","type":"event"},{"inputs":[{"internalType":"bytes32","name":"_ruleId","type":"bytes32"}],"name":"addComplianceRule","outputs":[],"stateMutability":"nonpayable","type":"function"},{"inputs":[{"internalType":"uint16","name":"_country","type":"uint16"}],"name":"addCountryRestriction","outputs":[],"stateMutability":"nonpayable","type":"function"},{"inputs":[{"internalType":"address","name":"_address","type":"address"}],"name":"addToBlacklist","outputs":[],"stateMutability":"nonpayable","type":"function"},{"inputs":[{"internalType":"address","name":"_from","type":"address"},{"internalType":"address","name":"_to","type":"address"},{"internalType":"uint256","name":"_amount","type":"uint256"}],"name":"canTransfer","outputs":[{"internalType":"bool","name":"","type":"bool"}],"stateMutability":"view","type":"function"},{"inputs":[],"name":"currentHolders","outputs":[{"internalType":"uint256","name":"","type":"uint256"}],"stateMutability":"view","type":"function"},{"inputs":[],"name":"identityRegistry","outputs":[{"internalType":"contract IIdentityRegistry","name":"","type":"address"}],"stateMutability":"view","type":"function"},{"inputs":[{"internalType":"address","name":"_address","type":"address"}],"name":"isBlacklisted","outputs":[{"internalType":"bool","name":"","type":"bool"}],"stateMutability":"view","type":"function"},{"inputs":[{"internalType":"bytes32","name":"_ruleId","type":"bytes32"}],"name":"isComplianceRuleActive","outputs":[{"internalType":"bool","name":"","type":"bool"}],"stateMutability":"view","type":"function"},{"inputs":[{"internalType":"uint16","name":"_country","type":"uint16"}],"name":"isCountryRestricted","outputs":[{"internalType":"bool","name":"","type":"bool"}],"stateMutability":"view","type":"function"},{"inputs":[],"name":"maxBalancePerInvestor","outputs":[{"internalType":"uint256","name":"","type":"uint256"}],"stateMutability":"view","type":"function"},{"inputs":[],"name":"maxHolders","outputs":[{"internalType":"uint256","name":"","type":"uint256"}],"stateMutability":"view","type":"function"},{"inputs":[],"name":"owner","outputs":[{"internalType":"address","name":"","type":"address"}],"stateMutability":"view","type":"function"},{"inputs":[{"internalType":"bytes32","name":"_ruleId","type":"bytes32"}],"name":"removeComplianceRule","outputs":[],"stateMutability":"nonpayable","type":"function"},{"inputs":[{"internalType":"uint16","name":"_country","type":"uint16"}],"name":"removeCountryRestriction","outputs":[],"stateMutability":"nonpayable","type":"function"},{"inputs":[{"internalType":"address","name":"_address","type":"address"}],"name":"removeFromBlacklist","outputs":[],"stateMutability":"nonpayable","type":"function"},{"inputs":[],"name":"renounceOwnership","outputs":[],"stateMutability":"nonpayable","type":"function"},{"inputs":[{"internalType":"uint256","name":"_maxBalance","type":"uint256"}],"name":"setMaxBalancePerInvestor","outputs":[],"stateMutability":"nonpayable","type":"function"},{"inputs":[{"internalType":"uint256","name":"_maxHolders","type":"uint256"}],"name":"setMaxHolders","outputs":[],"stateMutability":"nonpayable","type":"function"},{"inputs":[{"internalType":"address","name":"newOwner","type":"address"}],"name":"transferOwnership","outputs":[],"stateMutability":"nonpayable","type":"function"},{"inputs":[{"internalType":"address","name":"_holder","type":"address"},{"internalType":"bool","name":"_isNewHolder","type":"bool"}],"name":"updateHolderCount","outputs":[],"stateMutability":"nonpayable","type":"function"}],"evm":{"bytecode":{"linkReferences":{},"object":"60803461011257601f610daf38819003918201601f19168301916001600160401b038311848410176101175780849260209460405283398101031261011257516001600160a01b03808216918290036101125733156100f9576000549060018060a01b0319913383821617600055604051913391167f8be0079c531659141344cd1fd0a4f28419497f9722a3daafe3b4186f6b6457e0600080a382156100b757506001541617600155604051610c81908161012e8239f35b62461bcd60e51b815260206004820152601960248201527f496e76616c6964206964656e74697479207265676973747279000000000000006044820152606490fd5b604051631e4fbdf760e01b815260006004820152602490fd5b600080fd5b634e487b7160e01b600052604160045260246000fdfe6040608081526004908136101561001557600080fd5b600091823560e01c9081630333ce241461080a578163134e18f4146107e15781633cb32f77146107c257816344337ea11461071d578163537df3b61461065d57816368ff3c08146106305781636aae7b26146105a6578163715018a61461054c5781638365066b1461052a578163888fafde1461050b5781638bf5c4ee146104ec5781638da5cb5b146104c457816391c1c4781461042e578163bc4c8552146103f1578163dc7d0a2d146103cf578163e1fafc841461032e578163e46638e6146102e1578163f2fde38b14610256578163fd4a561e1461013f575063fe575a87146100ff57600080fd5b3461013b57602036600319011261013b5760209160ff9082906001600160a01b03610128610888565b1681526003855220541690519015158152f35b5080fd5b83833461013b578060031936011261013b57610159610888565b602435801590811581036102525780610233575b156101ba57506001600160a01b0316825260086020528120805460ff1916600117905560075460001981146101a757600101600755905080f35b506011602492634e487b7160e01b835252fd5b92939280610215575b6101ce575b50505080f35b6001600160a01b0316835260086020528220805460ff191690556007549081156102025750600019016007558180806101c8565b634e487b7160e01b835260119052602482fd5b506001600160a01b038116845260086020528184205460ff166101c3565b506001600160a01b038216845260086020528284205460ff161561016d565b8480fd5b9050346102dd5760203660031901126102dd57610271610888565b9061027a6108a3565b6001600160a01b039182169283156102c757505082546001600160a01b0319811683178455167f8be0079c531659141344cd1fd0a4f28419497f9722a3daafe3b4186f6b6457e08380a380f35b51631e4fbdf760e01b8152908101849052602490fd5b8280fd5b50503461013b57606036600319011261013b576102fc610888565b91602435906001600160a01b038216820361032b57506020926103229160443591610939565b90519015158152f35b80fd5b919050346102dd5760203660031901126102dd5781359161034d6108a3565b828452600260205260ff82852054161561039b575081835260026020528220805460ff191690557fd5853242224345ddd2178850a0b85acef1ccc7a4d337cc204bd0b17965c9cee88280a280f35b6020606492519162461bcd60e51b8352820152600f60248201526e52756c65206e6f742061637469766560881b6044820152fd5b83903461013b57602036600319011261013b576103ea6108a3565b3560055580f35b9050346102dd5760203660031901126102dd57803561ffff811680910361042a578360ff92849260209652855220541690519015158152f35b8380fd5b919050346102dd5760203660031901126102dd5781359161044d6108a3565b8215610490575081835260026020528220805460ff191660011790557f6117ba698a7a49f4d642317dc83d2addb9dfb1bd82e630219951263dc0e4ee038280a280f35b6020606492519162461bcd60e51b8352820152600f60248201526e125b9d985b1a59081c9d5b19481251608a1b6044820152fd5b50503461013b578160031936011261013b57905490516001600160a01b039091168152602090f35b50503461013b578160031936011261013b576020906006549051908152f35b50503461013b578160031936011261013b576020906005549051908152f35b83903461013b57602036600319011261013b576105456108a3565b3560065580f35b833461032b578060031936011261032b576105656108a3565b80546001600160a01b03198116825581906001600160a01b03167f8be0079c531659141344cd1fd0a4f28419497f9722a3daafe3b4186f6b6457e08280a380f35b9050346102dd5760203660031901126102dd57803561ffff811680910361042a576105cf6108a3565b8084528160205260ff8385205416156105f45783526020528120805460ff1916905580f35b506020606492519162461bcd60e51b8352820152601660248201527510dbdd5b9d1c9e481b9bdd081c995cdd1c9a58dd195960521b6044820152fd5b9050346102dd5760203660031901126102dd578160209360ff923581526002855220541690519015158152f35b919050346102dd5760203660031901126102dd57610679610888565b6106816108a3565b6001600160a01b031680845260036020528184205490929060ff16156106db575081835260036020528220805460ff191690557f4f783c179409b4127238bc9c990bc99b9a651666a0d20b51d6c42849eb88466d8280a280f35b6020606492519162461bcd60e51b8352820152601760248201527f41646472657373206e6f7420626c61636b6c69737465640000000000000000006044820152fd5b919050346102dd5760203660031901126102dd57610739610888565b6107416108a3565b6001600160a01b031691821561078e575081835260036020528220805460ff191660011790557fdaf49ab9345b6cb75bcb5a7f726bff9183c34dcf5c098c385730f9fd893765f68280a280f35b6020606492519162461bcd60e51b8352820152600f60248201526e496e76616c6964206164647265737360881b6044820152fd5b50503461013b578160031936011261013b576020906007549051908152f35b50503461013b578160031936011261013b5760015490516001600160a01b039091168152602090f35b9050346102dd5760203660031901126102dd57803561ffff811680910361042a576108336108a3565b801561084e5783526020528120805460ff1916600117905580f35b506020606492519162461bcd60e51b83528201526014602482015273496e76616c696420636f756e74727920636f646560601b6044820152fd5b600435906001600160a01b038216820361089e57565b600080fd5b6000546001600160a01b031633036108b757565b60405163118cdaa760e01b8152336004820152602490fd5b90601f8019910116810190811067ffffffffffffffff8211176108f157604052565b634e487b7160e01b600052604160045260246000fd5b9081602091031261089e5751801515810361089e5790565b9081602091031261089e575161ffff8116810361089e5790565b6001600160a01b0392918316918215908115610c42575b50610c3a578216918215610b4a576000928084526020926003845260409260ff84872054168015610b3a575b610ab3576001541693835163b9209e3360e01b9081815284600482015282816024818a5afa908115610b30578891610b13575b5015908115610abb575b50610ab357835191637e42683b60e01b9384845260048401528183602481895afa928315610aa9578793610a87575b50602482939486519788938492835260048301525afa938415610a7d578594610a4b575b5060049061ffff80931686525260ff8285205416928315610a38575b505050610a355750600190565b90565b60ff935016835282205416388080610a28565b819450610a6f906004923d8711610a76575b610a6781836108cf565b81019061091f565b9390610a0c565b503d610a5d565b83513d87823e3d90fd5b829350610aa2602491843d8611610a7657610a6781836108cf565b93506109e8565b85513d89823e3d90fd5b505050505090565b905084519081528260048201528181602481895afa908115610aa9578791610ae6575b5015386109b9565b610b069150823d8411610b0c575b610afe81836108cf565b810190610907565b38610ade565b503d610af4565b610b2a9150833d8511610b0c57610afe81836108cf565b386109af565b86513d8a823e3d90fd5b5081865260ff848720541661097c565b9091506000918083526020906003825260409260ff8486205416610c0c576001541690835163b9209e3360e01b81528160048201528381602481865afa908115610c30578691610c13575b5015610c0c5782906024855180948193637e42683b60e01b835260048301525afa908115610bff579161ffff60049260ff95948791610be2575b501685525282205416610a355750600190565b610bf99150833d8511610a7657610a6781836108cf565b38610bcf565b50505051903d90823e3d90fd5b5050505090565b610c2a9150843d8611610b0c57610afe81836108cf565b38610b95565b85513d88823e3d90fd5b505050600090565b9050153861095056fea2646970667358221220fbc5e14bfe8901db0c851ac2d8320ccd45c52a1d11a9f7c225e3bfb9023f5ffd64736f6c63430008140033","opcodes":"PUSH1 0x80 CALLVALUE PUSH2 0x112 JUMPI PUSH1 0x1F PUSH2 0xDAF CODESIZE DUP2 SWAP1 SUB SWAP2 DUP3 ADD PUSH1 0x1F NOT AND DUP4 ADD SWAP2 PUSH1 0x1 PUSH1 0x1 PUSH1 0x40 SHL SUB DUP4 GT DUP5 DUP5 LT OR PUSH2 0x117 JUMPI DUP1 DUP5 SWAP3 PUSH1 0x20 SWAP5 PUSH1 0x40 MSTORE DUP4 CODECOPY DUP2 ADD SUB SLT PUSH2 0x112 JUMPI MLOAD PUSH1 0x1 PUSH1 0x1 PUSH1 0xA0 SHL SUB DUP1 DUP3 AND SWAP2 DUP3 SWAP1 SUB PUSH2 0x112 JUMPI CALLER ISZERO PUSH2 0xF9 JUMPI PUSH1 0x0 SLOAD SWAP1 PUSH1 0x1 DUP1 PUSH1 0xA0 SHL SUB NOT SWAP2 CALLER DUP4 DUP3 AND OR PUSH1 0x0 SSTORE PUSH1 0x40 MLOAD SWAP2 CALLER SWAP2 AND PUSH32 0x8BE0079C531659141344CD1FD0A4F28419497F9722A3DAAFE3B4186F6B6457E0 PUSH1 0x0 DUP1 LOG3 DUP3 ISZERO PUSH2 0xB7 JUMPI POP PUSH1 0x1 SLOAD AND OR PUSH1 0x1 SSTORE PUSH1 0x40 MLOAD PUSH2 0xC81 SWAP1 DUP2 PUSH2 0x12E DUP3 CODECOPY RETURN JUMPDEST PUSH3 0x461BCD PUSH1 0xE5 SHL DUP2 MSTORE PUSH1 0x20 PUSH1 0x4 DUP3 ADD MSTORE PUSH1 0x19 PUSH1 0x24 DUP3 ADD MSTORE PUSH32 0x496E76616C6964206964656E7469747920726567697374727900000000000000 PUSH1 0x44 DUP3 ADD MSTORE PUSH1 0x64 SWAP1 REVERT JUMPDEST PUSH1 0x40 MLOAD PUSH4 0x1E4FBDF7 PUSH1 0xE0 SHL DUP2 MSTORE PUSH1 0x0 PUSH1 0x4 DUP3 ADD MSTORE PUSH1 0x24 SWAP1 REVERT JUMPDEST PUSH1 0x0 DUP1 REVERT JUMPDEST PUSH4 0x4E487B71 PUSH1 0xE0 SHL PUSH1 0x0 MSTORE PUSH1 0x41 PUSH1 0x4 MSTORE PUSH1 0x24 PUSH1 0x0 REVERT INVALID PUSH1 0x40 PUSH1 0x80 DUP2 MSTORE PUSH1 0x4 SWAP1 DUP2 CALLDATASIZE LT ISZERO PUSH2 0x15 JUMPI PUSH1 0x0 DUP1 REVERT JUMPDEST PUSH1 0x0 SWAP2 DUP3 CALLDATALOAD PUSH1 0xE0 SHR SWAP1 DUP2 PUSH4 0x333CE24 EQ PUSH2 0x80A JUMPI DUP2 PUSH4 0x134E18F4 EQ PUSH2 0x7E1 JUMPI DUP2 PUSH4 0x3CB32F77 EQ PUSH2 0x7C2 JUMPI DUP2 PUSH4 0x44337EA1 EQ PUSH2 0x71D JUMPI DUP2 PUSH4 0x537DF3B6 EQ PUSH2 0x65D JUMPI DUP2 PUSH4 0x68FF3C08 EQ PUSH2 0x630 JUMPI DUP2 PUSH4 0x6AAE7B26 EQ PUSH2 0x5A6 JUMPI DUP2 PUSH4 0x715018A6 EQ PUSH2 0x54C JUMPI DUP2 PUSH4 0x8365066B EQ PUSH2 0x52A JUMPI DUP2 PUSH4 0x888FAFDE EQ PUSH2 0x50B JUMPI DUP2 PUSH4 0x8BF5C4EE EQ PUSH2 0x4EC JUMPI DUP2 PUSH4 0x8DA5CB5B EQ PUSH2 0x4C4 JUMPI DUP2 PUSH4 0x91C1C478 EQ PUSH2 0x42E JUMPI DUP2 PUSH4 0xBC4C8552 EQ PUSH2 0x3F1 JUMPI DUP2 PUSH4 0xDC7D0A2D EQ PUSH2 0x3CF JUMPI DUP2 PUSH4 0xE1FAFC84 EQ PUSH2 0x32E JUMPI DUP2 PUSH4 0xE46638E6 EQ PUSH2 0x2E1 JUMPI DUP2 PUSH4 0xF2FDE38B EQ PUSH2 0x256 JUMPI DUP2 PUSH4 0xFD4A561E EQ PUSH2 0x13F JUMPI POP PUSH4 0xFE575A87 EQ PUSH2 0xFF JUMPI PUSH1 0x0 DUP1 REVERT JUMPDEST CALLVALUE PUSH2 0x13B JUMPI PUSH1 0x20 CALLDATASIZE PUSH1 0x3 NOT ADD SLT PUSH2 0x13B JUMPI PUSH1 0x20 SWAP2 PUSH1 0xFF SWAP1 DUP3 SWAP1 PUSH1 0x1 PUSH1 0x1 PUSH1 0xA0 SHL SUB PUSH2 0x128 PUSH2 0x888 JUMP JUMPDEST AND DUP2 MSTORE PUSH1 0x3 DUP6 MSTORE KECCAK256 SLOAD AND SWAP1 MLOAD SWAP1 ISZERO ISZERO DUP2 MSTORE RETURN JUMPDEST POP DUP1 REVERT JUMPDEST DUP4 DUP4 CALLVALUE PUSH2 0x13B JUMPI DUP1 PUSH1 0x3 NOT CALLDATASIZE ADD SLT PUSH2 0x13B JUMPI PUSH2 0x159 PUSH2 0x888 JUMP JUMPDEST PUSH1 0x24 CALLDATALOAD DUP1 ISZERO SWAP1 DUP2 ISZERO DUP2 SUB PUSH2 0x252 JUMPI DUP1 PUSH2 0x233 JUMPI JUMPDEST ISZERO PUSH2 0x1BA JUMPI POP PUSH1 0x1 PUSH1 0x1 PUSH1 0xA0 SHL SUB AND DUP3 MSTORE PUSH1 0x8 PUSH1 0x20 MSTORE DUP2 KECCAK256 DUP1 SLOAD PUSH1 0xFF NOT AND PUSH1 0x1 OR SWAP1 SSTORE PUSH1 0x7 SLOAD PUSH1 0x0 NOT DUP2 EQ PUSH2 0x1A7 JUMPI PUSH1 0x1 ADD PUSH1 0x7 SSTORE SWAP1 POP DUP1 RETURN JUMPDEST POP PUSH1 0x11 PUSH1 0x24 SWAP3 PUSH4 0x4E487B71 PUSH1 0xE0 SHL DUP4 MSTORE MSTORE REVERT JUMPDEST SWAP3 SWAP4 SWAP3 DUP1 PUSH2 0x215 JUMPI JUMPDEST PUSH2 0x1CE JUMPI JUMPDEST POP POP POP DUP1 RETURN JUMPDEST PUSH1 0x1 PUSH1 0x1 PUSH1 0xA0 SHL SUB AND DUP4 MSTORE PUSH1 0x8 PUSH1 0x20 MSTORE DUP3 KECCAK256 DUP1 SLOAD PUSH1 0xFF NOT AND SWAP1 SSTORE PUSH1 0x7 SLOAD SWAP1 DUP2 ISZERO PUSH2 0x202 JUMPI POP PUSH1 0x0 NOT ADD PUSH1 0x7 SSTORE DUP2 DUP1 DUP1 PUSH2 0x1C8 JUMP JUMPDEST PUSH4 0x4E487B71 PUSH1 0xE0 SHL DUP4 MSTORE PUSH1 0x11 SWAP1 MSTORE PUSH1 0x24 DUP3 REVERT JUMPDEST POP PUSH1 0x1 PUSH1 0x1 PUSH1 0xA0 SHL SUB DUP2 AND DUP5 MSTORE PUSH1 0x8 PUSH1 0x20 MSTORE DUP2 DUP5 KECCAK256 SLOAD PUSH1 0xFF AND PUSH2 0x1C3 JUMP JUMPDEST POP PUSH1 0x1 PUSH1 0x1 PUSH1 0xA0 SHL SUB DUP3 AND DUP5 MSTORE PUSH1 0x8 PUSH1 0x20 MSTORE DUP3 DUP5 KECCAK256 SLOAD PUSH1 0xFF AND ISZERO PUSH2 0x16D JUMP JUMPDEST DUP5 DUP1 REVERT JUMPDEST SWAP1 POP CALLVALUE PUSH2 0x2DD JUMPI PUSH1 0x20 CALLDATASIZE PUSH1 0x3 NOT ADD SLT PUSH2 0x2DD JUMPI PUSH2 0x271 PUSH2 0x888 JUMP JUMPDEST SWAP1 PUSH2 0x27A PUSH2 0x8A3 JUMP JUMPDEST PUSH1 0x1 PUSH1 0x1 PUSH1 0xA0 SHL SUB SWAP2 DUP3 AND SWAP3 DUP4 ISZERO PUSH2 0x2C7 JUMPI POP POP DUP3 SLOAD PUSH1 0x1 PUSH1 0x1 PUSH1 0xA0 SHL SUB NOT DUP2 AND DUP4 OR DUP5 SSTORE AND PUSH32 0x8BE0079C531659141344CD1FD0A4F28419497F9722A3DAAFE3B4186F6B6457E0 DUP4 DUP1 LOG3 DUP1 RETURN JUMPDEST MLOAD PUSH4 0x1E4FBDF7 PUSH1 0xE0 SHL DUP2 MSTORE SWAP1 DUP2 ADD DUP5 SWAP1 MSTORE PUSH1 0x24 SWAP1 REVERT JUMPDEST DUP3 DUP1 REVERT JUMPDEST POP POP CALLVALUE PUSH2 0x13B JUMPI PUSH1 0x60 CALLDATASIZE PUSH1 0x3 NOT ADD SLT PUSH2 0x13B JUMPI PUSH2 0x2FC PUSH2 0x888 JUMP JUMPDEST SWAP2 PUSH1 0x24 CALLDATALOAD SWAP1 PUSH1 0x1 PUSH1 0x1 PUSH1 0xA0 SHL SUB DUP3 AND DUP3 SUB PUSH2 0x32B JUMPI POP PUSH1 0x20 SWAP3 PUSH2 0x322 SWAP2 PUSH1 0x44 CALLDATALOAD SWAP2 PUSH2 0x939 JUMP JUMPDEST SWAP1 MLOAD SWAP1 ISZERO ISZERO DUP2 MSTORE RETURN JUMPDEST DUP1 REVERT JUMPDEST SWAP2 SWAP1 POP CALLVALUE PUSH2 0x2DD JUMPI PUSH1 0x20 CALLDATASIZE PUSH1 0x3 NOT ADD SLT PUSH2 0x2DD JUMPI DUP2 CALLDATALOAD SWAP2 PUSH2 0x34D PUSH2 0x8A3 JUMP JUMPDEST DUP3 DUP5 MSTORE PUSH1 0x2 PUSH1 0x20 MSTORE PUSH1 0xFF DUP3 DUP6 KECCAK256 SLOAD AND ISZERO PUSH2 0x39B JUMPI POP DUP2 DUP4 MSTORE PUSH1 0x2 PUSH1 0x20 MSTORE DUP3 KECCAK256 DUP1 SLOAD PUSH1 0xFF NOT AND SWAP1 SSTORE PUSH32 0xD5853242224345DDD2178850A0B85ACEF1CCC7A4D337CC204BD0B17965C9CEE8 DUP3 DUP1 LOG2 DUP1 RETURN JUMPDEST PUSH1 0x20 PUSH1 0x64 SWAP3 MLOAD SWAP2 PUSH3 0x461BCD PUSH1 0xE5 SHL DUP4 MSTORE DUP3 ADD MSTORE PUSH1 0xF PUSH1 0x24 DUP3 ADD MSTORE PUSH15 0x52756C65206E6F7420616374697665 PUSH1 0x88 SHL PUSH1 0x44 DUP3 ADD MSTORE REVERT JUMPDEST DUP4 SWAP1 CALLVALUE PUSH2 0x13B JUMPI PUSH1 0x20 CALLDATASIZE PUSH1 0x3 NOT ADD SLT PUSH2 0x13B JUMPI PUSH2 0x3EA PUSH2 0x8A3 JUMP JUMPDEST CALLDATALOAD PUSH1 0x5 SSTORE DUP1 RETURN JUMPDEST SWAP1 POP CALLVALUE PUSH2 0x2DD JUMPI PUSH1 0x20 CALLDATASIZE PUSH1 0x3 NOT ADD SLT PUSH2 0x2DD JUMPI DUP1 CALLDATALOAD PUSH2 0xFFFF DUP2 AND DUP1 SWAP2 SUB PUSH2 0x42A JUMPI DUP4 PUSH1 0xFF SWAP3 DUP5 SWAP3 PUSH1 0x20 SWAP7 MSTORE DUP6 MSTORE KECCAK256 SLOAD AND SWAP1 MLOAD SWAP1 ISZERO ISZERO DUP2 MSTORE RETURN JUMPDEST DUP4 DUP1 REVERT JUMPDEST SWAP2 SWAP1 POP CALLVALUE PUSH2 0x2DD JUMPI PUSH1 0x20 CALLDATASIZE PUSH1 0x3 NOT ADD SLT PUSH2 0x2DD JUMPI DUP2 CALLDATALOAD SWAP2 PUSH2 0x44D PUSH2 0x8A3 JUMP JUMPDEST DUP3 ISZERO PUSH2 0x490 JUMPI POP DUP2 DUP4 MSTORE PUSH1 0x2 PUSH1 0x20 MSTORE DUP3 KECCAK256 DUP1 SLOAD PUSH1 0xFF NOT AND PUSH1 0x1 OR SWAP1 SSTORE PUSH32 0x6117BA698A7A49F4D642317DC83D2ADDB9DFB1BD82E630219951263DC0E4EE03 DUP3 DUP1 LOG2 DUP1 RETURN JUMPDEST PUSH1 0x20 PUSH1 0x64 SWAP3 MLOAD SWAP2 PUSH3 0x461BCD PUSH1 0xE5 SHL DUP4 MSTORE DUP3 ADD MSTORE PUSH1 0xF PUSH1 0x24 DUP3 ADD MSTORE PUSH15 0x125B9D985B1A59081C9D5B19481251 PUSH1 0x8A SHL PUSH1 0x44 DUP3 ADD MSTORE REVERT JUMPDEST POP POP CALLVALUE PUSH2 0x13B JUMPI DUP2 PUSH1 0x3 NOT CALLDATASIZE ADD SLT PUSH2 0x13B JUMPI SWAP1 SLOAD SWAP1 MLOAD PUSH1 0x1 PUSH1 0x1 PUSH1 0xA0 SHL SUB SWAP1 SWAP2 AND DUP2 MSTORE PUSH1 0x20 SWAP1 RETURN JUMPDEST POP POP CALLVALUE PUSH2 0x13B JUMPI DUP2 PUSH1 0x3 NOT CALLDATASIZE ADD SLT PUSH2 0x13B JUMPI PUSH1 0x20 SWAP1 PUSH1 0x6 SLOAD SWAP1 MLOAD SWAP1 DUP2 MSTORE RETURN JUMPDEST POP POP CALLVALUE PUSH2 0x13B JUMPI DUP2 PUSH1 0x3 NOT CALLDATASIZE ADD SLT PUSH2 0x13B JUMPI PUSH1 0x20 SWAP1 PUSH1 0x5 SLOAD SWAP1 MLOAD SWAP1 DUP2 MSTORE RETURN JUMPDEST DUP4 SWAP1 CALLVALUE PUSH2 0x13B JUMPI PUSH1 0x20 CALLDATASIZE PUSH1 0x3 NOT ADD SLT PUSH2 0x13B JUMPI PUSH2 0x545 PUSH2 0x8A3 JUMP JUMPDEST CALLDATALOAD PUSH1 0x6 SSTORE DUP1 RETURN JUMPDEST DUP4 CALLVALUE PUSH2 0x32B JUMPI DUP1 PUSH1 0x3 NOT CALLDATASIZE ADD SLT PUSH2 0x32B JUMPI PUSH2 0x565 PUSH2 0x8A3 JUMP JUMPDEST DUP1 SLOAD PUSH1 0x1 PUSH1 0x1 PUSH1 0xA0 SHL SUB NOT DUP2 AND DUP3 SSTORE DUP2 SWAP1 PUSH1 0x1 PUSH1 0x1 PUSH1 0xA0 SHL SUB AND PUSH32 0x8BE0079C531659141344CD1FD0A4F28419497F9722A3DAAFE3B4186F6B6457E0 DUP3 DUP1 LOG3 DUP1 RETURN JUMPDEST SWAP1 POP CALLVALUE PUSH2 0x2DD JUMPI PUSH1 0x20 CALLDATASIZE PUSH1 0x3 NOT ADD SLT PUSH2 0x2DD JUMPI DUP1 CALLDATALOAD PUSH2 0xFFFF DUP2 AND DUP1 SWAP2 SUB PUSH2 0x42A JUMPI PUSH2 0x5CF PUSH2 0x8A3 JUMP JUMPDEST DUP1 DUP5 MSTORE DUP2 PUSH1 0x20 MSTORE PUSH1 0xFF DUP4 DUP6 KECCAK256 SLOAD AND ISZERO PUSH2 0x5F4 JUMPI DUP4 MSTORE PUSH1 0x20 MSTORE DUP2 KECCAK256 DUP1 SLOAD PUSH1 0xFF NOT AND SWAP1 SSTORE DUP1 RETURN JUMPDEST POP PUSH1 0x20 PUSH1 0x64 SWAP3 MLOAD SWAP2 PUSH3 0x461BCD PUSH1 0xE5 SHL DUP4 MSTORE DUP3 ADD MSTORE PUSH1 0x16 PUSH1 0x24 DUP3 ADD MSTORE PUSH22 0x10DBDD5B9D1C9E481B9BDD081C995CDD1C9A58DD1959 PUSH1 0x52 SHL PUSH1 0x44 DUP3 ADD MSTORE REVERT JUMPDEST SWAP1 POP CALLVALUE PUSH2 0x2DD JUMPI PUSH1 0x20 CALLDATASIZE PUSH1 0x3 NOT ADD SLT PUSH2 0x2DD JUMPI DUP2 PUSH1 0x20 SWAP4 PUSH1 0xFF SWAP3 CALLDATALOAD DUP2 MSTORE PUSH1 0x2 DUP6 MSTORE KECCAK256 SLOAD AND SWAP1 MLOAD SWAP1 ISZERO ISZERO DUP2 MSTORE RETURN JUMPDEST SWAP2 SWAP1 POP CALLVALUE PUSH2 0x2DD JUMPI PUSH1 0x20 CALLDATASIZE PUSH1 0x3 NOT ADD SLT PUSH2 0x2DD JUMPI PUSH2 0x679 PUSH2 0x888 JUMP JUMPDEST PUSH2 0x681 PUSH2 0x8A3 JUMP JUMPDEST PUSH1 0x1 PUSH1 0x1 PUSH1 0xA0 SHL SUB AND DUP1 DUP5 MSTORE PUSH1 0x3 PUSH1 0x20 MSTORE DUP2 DUP5 KECCAK256 SLOAD SWAP1 SWAP3 SWAP1 PUSH1 0xFF AND ISZERO PUSH2 0x6DB JUMPI POP DUP2 DUP4 MSTORE PUSH1 0x3 PUSH1 0x20 MSTORE DUP3 KECCAK256 DUP1 SLOAD PUSH1 0xFF NOT AND SWAP1 SSTORE PUSH32 0x4F783C179409B4127238BC9C990BC99B9A651666A0D20B51D6C42849EB88466D DUP3 DUP1 LOG2 DUP1 RETURN JUMPDEST PUSH1 0x20 PUSH1 0x64 SWAP3 MLOAD SWAP2 PUSH3 0x461BCD PUSH1 0xE5 SHL DUP4 MSTORE DUP3 ADD MSTORE PUSH1 0x17 PUSH1 0x24 DUP3 ADD MSTORE PUSH32 0x41646472657373206E6F7420626C61636B6C6973746564000000000000000000 PUSH1 0x44 DUP3 ADD MSTORE REVERT JUMPDEST SWAP2 SWAP1 POP CALLVALUE PUSH2 0x2DD JUMPI PUSH1 0x20 CALLDATASIZE PUSH1 0x3 NOT ADD SLT PUSH2 0x2DD JUMPI PUSH2 0x739 PUSH2 0x888 JUMP JUMPDEST PUSH2 0x741 PUSH2 0x8A3 JUMP JUMPDEST PUSH1 0x1 PUSH1 0x1 PUSH1 0xA0 SHL SUB AND SWAP2 DUP3 ISZERO PUSH2 0x78E JUMPI POP DUP2 DUP4 MSTORE PUSH1 0x3 PUSH1 0x20 MSTORE DUP3 KECCAK256 DUP1 SLOAD PUSH1 0xFF NOT AND PUSH1 0x1 OR SWAP1 SSTORE PUSH32 0xDAF49AB9345B6CB75BCB5A7F726BFF9183C34DCF5C098C385730F9FD893765F6 DUP3 DUP1 LOG2 DUP1 RETURN JUMPDEST PUSH1 0x20 PUSH1 0x64 SWAP3 MLOAD SWAP2 PUSH3 0x461BCD PUSH1 0xE5 SHL DUP4 MSTORE DUP3 ADD MSTORE PUSH1 0xF PUSH1 0x24 DUP3 ADD MSTORE PUSH15 0x496E76616C69642061646472657373 PUSH1 0x88 SHL PUSH1 0x44 DUP3 ADD MSTORE REVERT JUMPDEST POP POP CALLVALUE PUSH2 0x13B JUMPI DUP2 PUSH1 0x3 NOT CALLDATASIZE ADD SLT PUSH2 0x13B JUMPI PUSH1 0x20 SWAP1 PUSH1 0x7 SLOAD SWAP1 MLOAD SWAP1 DUP2 MSTORE RETURN JUMPDEST POP POP CALLVALUE PUSH2 0x13B JUMPI DUP2 PUSH1 0x3 NOT CALLDATASIZE ADD SLT PUSH2 0x13B JUMPI PUSH1 0x1 SLOAD SWAP1 MLOAD PUSH1 0x1 PUSH1 0x1 PUSH1 0xA0 SHL SUB SWAP1 SWAP2 AND DUP2 MSTORE PUSH1 0x20 SWAP1 RETURN JUMPDEST SWAP1 POP CALLVALUE PUSH2 0x2DD JUMPI PUSH1 0x20 CALLDATASIZE PUSH1 0x3 NOT ADD SLT PUSH2 0x2DD JUMPI DUP1 CALLDATALOAD PUSH2 0xFFFF DUP2 AND DUP1 SWAP2 SUB PUSH2 0x42A JUMPI PUSH2 0x833 PUSH2 0x8A3 JUMP JUMPDEST DUP1 ISZERO PUSH2 0x84E JUMPI DUP4 MSTORE PUSH1 0x20 MSTORE DUP2 KECCAK256 DUP1 SLOAD PUSH1 0xFF NOT AND PUSH1 0x1 OR SWAP1 SSTORE DUP1 RETURN JUMPDEST POP PUSH1 0x20 PUSH1 0x64 SWAP3 MLOAD SWAP2 PUSH3 0x461BCD PUSH1 0xE5 SHL DUP4 MSTORE DUP3 ADD MSTORE PUSH1 0x14 PUSH1 0x24 DUP3 ADD MSTORE PUSH20 0x496E76616C696420636F756E74727920636F6465 PUSH1 0x60 SHL PUSH1 0x44 DUP3 ADD MSTORE REVERT JUMPDEST PUSH1 0x4 CALLDATALOAD SWAP1 PUSH1 0x1 PUSH1 0x1 PUSH1 0xA0 SHL SUB DUP3 AND DUP3 SUB PUSH2 0x89E JUMPI JUMP JUMPDEST PUSH1 0x0 DUP1 REVERT JUMPDEST PUSH1 0x0 SLOAD PUSH1 0x1 PUSH1 0x1 PUSH1 0xA0 SHL SUB AND CALLER SUB PUSH2 0x8B7 JUMPI JUMP JUMPDEST PUSH1 0x40 MLOAD PUSH4 0x118CDAA7 PUSH1 0xE0 SHL DUP2 MSTORE CALLER PUSH1 0x4 DUP3 ADD MSTORE PUSH1 0x24 SWAP1 REVERT JUMPDEST SWAP1 PUSH1 0x1F DUP1 NOT SWAP2 ADD AND DUP2 ADD SWAP1 DUP2 LT PUSH8 0xFFFFFFFFFFFFFFFF DUP3 GT OR PUSH2 0x8F1 JUMPI PUSH1 0x40 MSTORE JUMP JUMPDEST PUSH4 0x4E487B71 PUSH1 0xE0 SHL PUSH1 0x0 MSTORE PUSH1 0x41 PUSH1 0x4 MSTORE PUSH1 0x24 PUSH1 0x0 REVERT JUMPDEST SWAP1 DUP2 PUSH1 0x20 SWAP2 SUB SLT PUSH2 0x89E JUMPI MLOAD DUP1 ISZERO ISZERO DUP2 SUB PUSH2 0x89E JUMPI SWAP1 JUMP JUMPDEST SWAP1 DUP2 PUSH1 0x20 SWAP2 SUB SLT PUSH2 0x89E JUMPI MLOAD PUSH2 0xFFFF DUP2 AND DUP2 SUB PUSH2 0x89E JUMPI SWAP1 JUMP JUMPDEST PUSH1 0x1 PUSH1 0x1 PUSH1 0xA0 SHL SUB SWAP3 SWAP2 DUP4 AND SWAP2 DUP3 ISZERO SWAP1 DUP2 ISZERO PUSH2 0xC42 JUMPI JUMPDEST POP PUSH2 0xC3A JUMPI DUP3 AND SWAP2 DUP3 ISZERO PUSH2 0xB4A JUMPI PUSH1 0x0 SWAP3 DUP1 DUP5 MSTORE PUSH1 0x20 SWAP3 PUSH1 0x3 DUP5 MSTORE PUSH1 0x40 SWAP3 PUSH1 0xFF DUP5 DUP8 KECCAK256 SLOAD AND DUP1 ISZERO PUSH2 0xB3A JUMPI JUMPDEST PUSH2 0xAB3 JUMPI PUSH1 0x1 SLOAD AND SWAP4 DUP4 MLOAD PUSH4 0xB9209E33 PUSH1 0xE0 SHL SWAP1 DUP2 DUP2 MSTORE DUP5 PUSH1 0x4 DUP3 ADD MSTORE DUP3 DUP2 PUSH1 0x24 DUP2 DUP11 GAS STATICCALL SWAP1 DUP2 ISZERO PUSH2 0xB30 JUMPI DUP9 SWAP2 PUSH2 0xB13 JUMPI JUMPDEST POP ISZERO SWAP1 DUP2 ISZERO PUSH2 0xABB JUMPI JUMPDEST POP PUSH2 0xAB3 JUMPI DUP4 MLOAD SWAP2 PUSH4 0x7E42683B PUSH1 0xE0 SHL SWAP4 DUP5 DUP5 MSTORE PUSH1 0x4 DUP5 ADD MSTORE DUP2 DUP4 PUSH1 0x24 DUP2 DUP10 GAS STATICCALL SWAP3 DUP4 ISZERO PUSH2 0xAA9 JUMPI DUP8 SWAP4 PUSH2 0xA87 JUMPI JUMPDEST POP PUSH1 0x24 DUP3 SWAP4 SWAP5 DUP7 MLOAD SWAP8 DUP9 SWAP4 DUP5 SWAP3 DUP4 MSTORE PUSH1 0x4 DUP4 ADD MSTORE GAS STATICCALL SWAP4 DUP5 ISZERO PUSH2 0xA7D JUMPI DUP6 SWAP5 PUSH2 0xA4B JUMPI JUMPDEST POP PUSH1 0x4 SWAP1 PUSH2 0xFFFF DUP1 SWAP4 AND DUP7 MSTORE MSTORE PUSH1 0xFF DUP3 DUP6 KECCAK256 SLOAD AND SWAP3 DUP4 ISZERO PUSH2 0xA38 JUMPI JUMPDEST POP POP POP PUSH2 0xA35 JUMPI POP PUSH1 0x1 SWAP1 JUMP JUMPDEST SWAP1 JUMP JUMPDEST PUSH1 0xFF SWAP4 POP AND DUP4 MSTORE DUP3 KECCAK256 SLOAD AND CODESIZE DUP1 DUP1 PUSH2 0xA28 JUMP JUMPDEST DUP2 SWAP5 POP PUSH2 0xA6F SWAP1 PUSH1 0x4 SWAP3 RETURNDATASIZE DUP8 GT PUSH2 0xA76 JUMPI JUMPDEST PUSH2 0xA67 DUP2 DUP4 PUSH2 0x8CF JUMP JUMPDEST DUP2 ADD SWAP1 PUSH2 0x91F JUMP JUMPDEST SWAP4 SWAP1 PUSH2 0xA0C JUMP JUMPDEST POP RETURNDATASIZE PUSH2 0xA5D JUMP JUMPDEST DUP4 MLOAD RETURNDATASIZE DUP8 DUP3 RETURNDATACOPY RETURNDATASIZE SWAP1 REVERT JUMPDEST DUP3 SWAP4 POP PUSH2 0xAA2 PUSH1 0x24 SWAP2 DUP5 RETURNDATASIZE DUP7 GT PUSH2 0xA76 JUMPI PUSH2 0xA67 DUP2 DUP4 PUSH2 0x8CF JUMP JUMPDEST SWAP4 POP PUSH2 0x9E8 JUMP JUMPDEST DUP6 MLOAD RETURNDATASIZE DUP10 DUP3 RETURNDATACOPY RETURNDATASIZE SWAP1 REVERT JUMPDEST POP POP POP POP POP SWAP1 JUMP JUMPDEST SWAP1 POP DUP5 MLOAD SWAP1 DUP2 MSTORE DUP3 PUSH1 0x4 DUP3 ADD MSTORE DUP2 DUP2 PUSH1 0x24 DUP2 DUP10 GAS STATICCALL SWAP1 DUP2 ISZERO PUSH2 0xAA9 JUMPI DUP8 SWAP2 PUSH2 0xAE6 JUMPI JUMPDEST POP ISZERO CODESIZE PUSH2 0x9B9 JUMP JUMPDEST PUSH2 0xB06 SWAP2 POP DUP3 RETURNDATASIZE DUP5 GT PUSH2 0xB0C JUMPI JUMPDEST PUSH2 0xAFE DUP2 DUP4 PUSH2 0x8CF JUMP JUMPDEST DUP2 ADD SWAP1 PUSH2 0x907 JUMP JUMPDEST CODESIZE PUSH2 0xADE JUMP JUMPDEST POP RETURNDATASIZE PUSH2 0xAF4 JUMP JUMPDEST PUSH2 0xB2A SWAP2 POP DUP4 RETURNDATASIZE DUP6 GT PUSH2 0xB0C JUMPI PUSH2 0xAFE DUP2 DUP4 PUSH2 0x8CF JUMP JUMPDEST CODESIZE PUSH2 0x9AF JUMP JUMPDEST DUP7 MLOAD RETURNDATASIZE DUP11 DUP3 RETURNDATACOPY RETURNDATASIZE SWAP1 REVERT JUMPDEST POP DUP2 DUP7 MSTORE PUSH1 0xFF DUP5 DUP8 KECCAK256 SLOAD AND PUSH2 0x97C JUMP JUMPDEST SWAP1 SWAP2 POP PUSH1 0x0 SWAP2 DUP1 DUP4 MSTORE PUSH1 0x20 SWAP1 PUSH1 0x3 DUP3 MSTORE PUSH1 0x40 SWAP3 PUSH1 0xFF DUP5 DUP7 KECCAK256 SLOAD AND PUSH2 0xC0C JUMPI PUSH1 0x1 SLOAD AND SWAP1 DUP4 MLOAD PUSH4 0xB9209E33 PUSH1 0xE0 SHL DUP2 MSTORE DUP2 PUSH1 0x4 DUP3 ADD MSTORE DUP4 DUP2 PUSH1 0x24 DUP2 DUP7 GAS STATICCALL SWAP1 DUP2 ISZERO PUSH2 0xC30 JUMPI DUP7 SWAP2 PUSH2 0xC13 JUMPI JUMPDEST POP ISZERO PUSH2 0xC0C JUMPI DUP3 SWAP1 PUSH1 0x24 DUP6 MLOAD DUP1 SWAP5 DUP2 SWAP4 PUSH4 0x7E42683B PUSH1 0xE0 SHL DUP4 MSTORE PUSH1 0x4 DUP4 ADD MSTORE GAS STATICCALL SWAP1 DUP2 ISZERO PUSH2 0xBFF JUMPI SWAP2 PUSH2 0xFFFF PUSH1 0x4 SWAP3 PUSH1 0xFF SWAP6 SWAP5 DUP8 SWAP2 PUSH2 0xBE2 JUMPI JUMPDEST POP AND DUP6 MSTORE MSTORE DUP3 KECCAK256 SLOAD AND PUSH2 0xA35 JUMPI POP PUSH1 0x1 SWAP1 JUMP JUMPDEST PUSH2 0xBF9 SWAP2 POP DUP4 RETURNDATASIZE DUP6 GT PUSH2 0xA76 JUMPI PUSH2 0xA67 DUP2 DUP4 PUSH2 0x8CF JUMP JUMPDEST CODESIZE PUSH2 0xBCF JUMP JUMPDEST POP POP POP MLOAD SWAP1 RETURNDATASIZE SWAP1 DUP3 RETURNDATACOPY RETURNDATASIZE SWAP1 REVERT JUMPDEST POP POP POP POP SWAP1 JUMP JUMPDEST PUSH2 0xC2A SWAP2 POP DUP5 RETURNDATASIZE DUP7 GT PUSH2 0xB0C JUMPI PUSH2 0xAFE DUP2 DUP4 PUSH2 0x8CF JUMP JUMPDEST CODESIZE PUSH2 0xB95 JUMP JUMPDEST DUP6 MLOAD RETURNDATASIZE DUP9 DUP3 RETURNDATACOPY RETURNDATASIZE SWAP1 REVERT JUMPDEST POP POP POP PUSH1 0x0 SWAP1 JUMP JUMPDEST SWAP1 POP ISZERO CODESIZE PUSH2 0x950 JUMP INVALID LOG2 PUSH5 0x6970667358 0x22 SLT KECCAK256 0xFB 0xC5 0xE1 0x4B INVALID DUP10 ADD 0xDB 0xC DUP6 BYTE 0xC2 0xD8 ORIGIN 0xC 0xCD GASLIMIT 0xC5 0x2A SAR GT 0xA9 0xF7 0xC2 0x25 0xE3 0xBF 0xB9 MUL EXTCODEHASH PUSH0 REVERT PUSH5 0x736F6C6343 STOP ADDMOD EQ STOP CALLER "},"methodIdentifiers":{"addComplianceRule(bytes32)":"91c1c478","addCountryRestriction(uint16)":"0333ce24","addToBlacklist(address)":"44337ea1","canTransfer(address,address,uint256)":"e46638e6","currentHolders()":"3cb32f77","identityRegistry()":"134e18f4","isBlacklisted(address)":"fe575a87","isComplianceRuleActive(bytes32)":"68ff3c08","isCountryRestricted(uint16)":"bc4c8552","maxBalancePerInvestor()":"888fafde","maxHolders()":"8bf5c4ee","owner()":"8da5cb5b","removeComplianceRule(bytes32)":"e1fafc84","removeCountryRestriction(uint16)":"6aae7b26","removeFromBlacklist(address)":"537df3b6","renounceOwnership()":"715018a6","setMaxBalancePerInvestor(uint256)":"dc7d0a2d","setMaxHolders(uint256)":"8365066b","transferOwnership(address)":"f2fde38b","updateHolderCount(address,bool)":"fd4a561e"}}}}}