{"contracts/RealEstateToken.sol":{"RealEstateToken":{"abi":[{"inputs":[{"internalType":"string","name":"_name","type":"string"},{"internalType":"string","name":"_symbol","type":"string"},{"internalType":"uint8","name":"_decimals","type":"uint8"},{"internalType":"address","name":"_identityRegistry","type":"address"},{"internalType":"address","name":"_compliance","type":"address"},{"components":[{"internalType":"string","name":"propertyAddress","type":"string"},{"internalType":"uint256","name":"totalValue","type":"uint256"},{"internalType":"uint256","name":"totalShares","type":"uint256"},{"internalType":"string","name":"description","type":"string"},{"internalType":"bool","name":"isActive","type":"bool"}],"internalType":"struct RealEstateToken.PropertyInfo","name":"_propertyInfo","type":"tuple"}],"stateMutability":"nonpayable","type":"constructor"},{"inputs":[],"name":"AccessControlBadConfirmation","type":"error"},{"inputs":[{"internalType":"address","name":"account","type":"address"},{"internalType":"bytes32","name":"neededRole","type":"bytes32"}],"name":"AccessControlUnauthorizedAccount","type":"error"},{"inputs":[{"internalType":"address","name":"spender","type":"address"},{"internalType":"uint256","name":"allowance","type":"uint256"},{"internalType":"uint256","name":"needed","type":"uint256"}],"name":"ERC20InsufficientAllowance","type":"error"},{"inputs":[{"internalType":"address","name":"sender","type":"address"},{"internalType":"uint256","name":"balance","type":"uint256"},{"internalType":"uint256","name":"needed","type":"uint256"}],"name":"ERC20InsufficientBalance","type":"error"},{"inputs":[{"internalType":"address","name":"approver","type":"address"}],"name":"ERC20InvalidApprover","type":"error"},{"inputs":[{"internalType":"address","name":"receiver","type":"address"}],"name":"ERC20InvalidReceiver","type":"error"},{"inputs":[{"internalType":"address","name":"sender","type":"address"}],"name":"ERC20InvalidSender","type":"error"},{"inputs":[{"internalType":"address","name":"spender","type":"address"}],"name":"ERC20InvalidSpender","type":"error"},{"inputs":[{"internalType":"address","name":"owner","type":"address"}],"name":"OwnableInvalidOwner","type":"error"},{"inputs":[{"internalType":"address","name":"account","type":"address"}],"name":"OwnableUnauthorizedAccount","type":"error"},{"anonymous":false,"inputs":[{"indexed":true,"internalType":"address","name":"owner","type":"address"},{"indexed":true,"internalType":"address","name":"spender","type":"address"},{"indexed":false,"internalType":"uint256","name":"value","type":"uint256"}],"name":"Approval","type":"event"},{"anonymous":false,"inputs":[{"indexed":true,"internalType":"address","name":"_compliance","type":"address"}],"name":"ComplianceAdded","type":"event"},{"anonymous":false,"inputs":[{"indexed":true,"internalType":"address","name":"_from","type":"address"},{"indexed":true,"internalType":"address","name":"_to","type":"address"},{"indexed":false,"internalType":"uint256","name":"_amount","type":"uint256"}],"name":"ForcedTransfer","type":"event"},{"anonymous":false,"inputs":[{"indexed":true,"internalType":"address","name":"_identityRegistry","type":"address"}],"name":"IdentityRegistryAdded","type":"event"},{"anonymous":false,"inputs":[{"indexed":true,"internalType":"address","name":"_wallet","type":"address"},{"indexed":true,"internalType":"address","name":"_onchainID","type":"address"}],"name":"OnchainIDSet","type":"event"},{"anonymous":false,"inputs":[{"indexed":true,"internalType":"address","name":"previousOwner","type":"address"},{"indexed":true,"internalType":"address","name":"newOwner","type":"address"}],"name":"OwnershipTransferred","type":"event"},{"anonymous":false,"inputs":[{"indexed":true,"internalType":"bytes32","name":"role","type":"bytes32"},{"indexed":true,"internalType":"bytes32","name":"previousAdminRole","type":"bytes32"},{"indexed":true,"internalType":"bytes32","name":"newAdminRole","type":"bytes32"}],"name":"RoleAdminChanged","type":"event"},{"anonymous":false,"inputs":[{"indexed":true,"internalType":"bytes32","name":"role","type":"bytes32"},{"indexed":true,"internalType":"address","name":"account","type":"address"},{"indexed":true,"internalType":"address","name":"sender","type":"address"}],"name":"RoleGranted","type":"event"},{"anonymous":false,"inputs":[{"indexed":true,"internalType":"bytes32","name":"role","type":"bytes32"},{"indexed":true,"internalType":"address","name":"account","type":"address"},{"indexed":true,"internalType":"address","name":"sender","type":"address"}],"name":"RoleRevoked","type":"event"},{"anonymous":false,"inputs":[{"indexed":true,"internalType":"address","name":"from","type":"address"},{"indexed":true,"internalType":"address","name":"to","type":"address"},{"indexed":false,"internalType":"uint256","name":"value","type":"uint256"}],"name":"Transfer","type":"event"},{"inputs":[],"name":"AGENT_ROLE","outputs":[{"internalType":"bytes32","name":"","type":"bytes32"}],"stateMutability":"view","type":"function"},{"inputs":[],"name":"COMPLIANCE_ROLE","outputs":[{"internalType":"bytes32","name":"","type":"bytes32"}],"stateMutability":"view","type":"function"},{"inputs":[],"name":"DEFAULT_ADMIN_ROLE","outputs":[{"internalType":"bytes32","name":"","type":"bytes32"}],"stateMutability":"view","type":"function"},{"inputs":[{"internalType":"address","name":"_agent","type":"address"}],"name":"addAgent","outputs":[],"stateMutability":"nonpayable","type":"function"},{"inputs":[{"internalType":"address","name":"_officer","type":"address"}],"name":"addComplianceOfficer","outputs":[],"stateMutability":"nonpayable","type":"function"},{"inputs":[{"internalType":"address","name":"owner","type":"address"},{"internalType":"address","name":"spender","type":"address"}],"name":"allowance","outputs":[{"internalType":"uint256","name":"","type":"uint256"}],"stateMutability":"view","type":"function"},{"inputs":[{"internalType":"address","name":"spender","type":"address"},{"internalType":"uint256","name":"value","type":"uint256"}],"name":"approve","outputs":[{"internalType":"bool","name":"","type":"bool"}],"stateMutability":"nonpayable","type":"function"},{"inputs":[{"internalType":"address","name":"account","type":"address"}],"name":"balanceOf","outputs":[{"internalType":"uint256","name":"","type":"uint256"}],"stateMutability":"view","type":"function"},{"inputs":[{"internalType":"address","name":"_from","type":"address"},{"internalType":"uint256","name":"_amount","type":"uint256"}],"name":"burn","outputs":[],"stateMutability":"nonpayable","type":"function"},{"inputs":[{"internalType":"address","name":"_from","type":"address"},{"internalType":"address","name":"_to","type":"address"},{"internalType":"uint256","name":"_amount","type":"uint256"}],"name":"canTransfer","outputs":[{"internalType":"bool","name":"","type":"bool"}],"stateMutability":"view","type":"function"},{"inputs":[],"name":"compliance","outputs":[{"internalType":"contract ICompliance","name":"","type":"address"}],"stateMutability":"view","type":"function"},{"inputs":[],"name":"decimals","outputs":[{"internalType":"uint8","name":"","type":"uint8"}],"stateMutability":"view","type":"function"},{"inputs":[{"internalType":"address","name":"_from","type":"address"},{"internalType":"address","name":"_to","type":"address"},{"internalType":"uint256","name":"_amount","type":"uint256"}],"name":"forcedTransfer","outputs":[],"stateMutability":"nonpayable","type":"function"},{"inputs":[{"internalType":"bytes32","name":"role","type":"bytes32"}],"name":"getRoleAdmin","outputs":[{"internalType":"bytes32","name":"","type":"bytes32"}],"stateMutability":"view","type":"function"},{"inputs":[],"name":"getTotalPropertyValue","outputs":[{"internalType":"uint256","name":"","type":"uint256"}],"stateMutability":"view","type":"function"},{"inputs":[],"name":"getValuePerToken","outputs":[{"internalType":"uint256","name":"","type":"uint256"}],"stateMutability":"view","type":"function"},{"inputs":[{"internalType":"bytes32","name":"role","type":"bytes32"},{"internalType":"address","name":"account","type":"address"}],"name":"grantRole","outputs":[],"stateMutability":"nonpayable","type":"function"},{"inputs":[{"internalType":"bytes32","name":"role","type":"bytes32"},{"internalType":"address","name":"account","type":"address"}],"name":"hasRole","outputs":[{"internalType":"bool","name":"","type":"bool"}],"stateMutability":"view","type":"function"},{"inputs":[],"name":"identityRegistry","outputs":[{"internalType":"contract IIdentityRegistry","name":"","type":"address"}],"stateMutability":"view","type":"function"},{"inputs":[{"internalType":"address","name":"_to","type":"address"},{"internalType":"uint256","name":"_amount","type":"uint256"}],"name":"mint","outputs":[],"stateMutability":"nonpayable","type":"function"},{"inputs":[],"name":"name","outputs":[{"internalType":"string","name":"","type":"string"}],"stateMutability":"view","type":"function"},{"inputs":[{"internalType":"address","name":"_wallet","type":"address"}],"name":"onchainID","outputs":[{"internalType":"address","name":"","type":"address"}],"stateMutability":"view","type":"function"},{"inputs":[],"name":"owner","outputs":[{"internalType":"address","name":"","type":"address"}],"stateMutability":"view","type":"function"},{"inputs":[],"name":"propertyInfo","outputs":[{"internalType":"string","name":"propertyAddress","type":"string"},{"internalType":"uint256","name":"totalValue","type":"uint256"},{"internalType":"uint256","name":"totalShares","type":"uint256"},{"internalType":"string","name":"description","type":"string"},{"internalType":"bool","name":"isActive","type":"bool"}],"stateMutability":"view","type":"function"},{"inputs":[{"internalType":"address","name":"_agent","type":"address"}],"name":"removeAgent","outputs":[],"stateMutability":"nonpayable","type":"function"},{"inputs":[{"internalType":"address","name":"_officer","type":"address"}],"name":"removeComplianceOfficer","outputs":[],"stateMutability":"nonpayable","type":"function"},{"inputs":[],"name":"renounceOwnership","outputs":[],"stateMutability":"nonpayable","type":"function"},{"inputs":[{"internalType":"bytes32","name":"role","type":"bytes32"},{"internalType":"address","name":"callerConfirmation","type":"address"}],"name":"renounceRole","outputs":[],"stateMutability":"nonpayable","type":"function"},{"inputs":[{"internalType":"bytes32","name":"role","type":"bytes32"},{"internalType":"address","name":"account","type":"address"}],"name":"revokeRole","outputs":[],"stateMutability":"nonpayable","type":"function"},{"inputs":[{"internalType":"address","name":"_compliance","type":"address"}],"name":"setComplianceContract","outputs":[],"stateMutability":"nonpayable","type":"function"},{"inputs":[{"internalType":"address","name":"_identityRegistry","type":"address"}],"name":"setIdentityRegistry","outputs":[],"stateMutability":"nonpayable","type":"function"},{"inputs":[{"internalType":"address","name":"_onchainID","type":"address"}],"name":"setOnchainID","outputs":[],"stateMutability":"nonpayable","type":"function"},{"inputs":[{"internalType":"bytes4","name":"interfaceId","type":"bytes4"}],"name":"supportsInterface","outputs":[{"internalType":"bool","name":"","type":"bool"}],"stateMutability":"view","type":"function"},{"inputs":[],"name":"symbol","outputs":[{"internalType":"string","name":"","type":"string"}],"stateMutability":"view","type":"function"},{"inputs":[],"name":"totalSupply","outputs":[{"internalType":"uint256","name":"","type":"uint256"}],"stateMutability":"view","type":"function"},{"inputs":[{"internalType":"address","name":"_to","type":"address"},{"internalType":"uint256","name":"_amount","type":"uint256"}],"name":"transfer","outputs":[{"internalType":"bool","name":"","type":"bool"}],"stateMutability":"nonpayable","type":"function"},{"inputs":[{"internalType":"address","name":"_from","type":"address"},{"internalType":"address","name":"_to","type":"address"},{"internalType":"uint256","name":"_amount","type":"uint256"}],"name":"transferFrom","outputs":[{"internalType":"bool","name":"","type":"bool"}],"stateMutability":"nonpayable","type":"function"},{"inputs":[{"internalType":"address","name":"newOwner","type":"address"}],"name":"transferOwnership","outputs":[],"stateMutability":"nonpayable","type":"function"},{"inputs":[{"components":[{"internalType":"string","name":"propertyAddress","type":"string"},{"internalType":"uint256","name":"totalValue","type":"uint256"},{"internalType":"uint256","name":"totalShares","type":"uint256"},{"internalType":"string","name":"description","type":"string"},{"internalType":"bool","name":"isActive","type":"bool"}],"internalType":"struct RealEstateToken.PropertyInfo","name":"_propertyInfo","type":"tuple"}],"name":"updatePropertyInfo","outputs":[],"stateMutability":"nonpayable","type":"function"}],"evm":{"bytecode":{"linkReferences":{},"object":"60806040523462000cc357620030cb803803806200001d8162000cc8565b928339810160c08282031262000cc35781516001600160401b03811162000cc357816200004c91840162000cee565b60208301516001600160401b03811162000cc357826200006e91850162000cee565b60408401519060ff8216820362000cc3576200008d6060860162000d60565b926200009c6080870162000d60565b60a087015190966001600160401b03821162000cc357019460a08682031262000cc3576040519560a087016001600160401b03811188821017620006595760405280516001600160401b03811162000cc35782620000fc91830162000cee565b8752602081810151908801526040808201519088015260608101516001600160401b03811162000cc3576080926200013691830162000cee565b60608801520151801515810362000cc357608086015280516001600160401b0381116200065957600354600181811c9116801562000cb8575b60208210146200063857601f811162000c52575b50806020601f821160011462000bc95760009162000bbd575b508160011b916000199060031b1c1916176003555b81516001600160401b0381116200065957600454600181811c9116801562000bb2575b60208210146200063857601f811162000b4b575b50806020601f821160011462000ac25760009162000ab6575b508160011b916000199060031b1c1916176004555b331562000a9d5760058054336001600160a01b03198216811790925560405191906001600160a01b03167f8be0079c531659141344cd1fd0a4f28419497f9722a3daafe3b4186f6b6457e0600080a36001600160a01b0385161562000a5b57506001600160a01b0386161562000a165784515115620009d1576020850151156200098c5760408501511562000947578051906001600160401b0382116200065957600a5490600182811c921680156200093c575b6020831014620006385781601f849311620008d8575b50602090601f83116001146200085a576000926200084e575b50508160011b916000199060031b1c191617600a555b8051906001600160401b0382116200065957600b54600181811c9116801562000843575b60208210146200063857601f8111620007dd575b50602090601f8311600114620007695760ff939291600091836200075d575b50508160011b916000199060031b1c191617600b555b600c80549190921660ff19909116179055600780546001600160a01b038381166001600160a01b0319928316179092556008805492861692909116919091179055815180519093906001600160401b0381116200065957600d54600181811c9116801562000752575b60208210146200063857601f8111620006e8575b50602094601f82116001146200067b579481929394956000926200066f575b50508160011b916000199060031b1c191617600d555b6020830151600e556040830151600f55606083015180519093906001600160401b0381116200065957601054600181811c911680156200064e575b60208210146200063857601f8111620005df575b506020601f821160011462000561578190608094959660009262000555575b50508160011b916000199060031b1c1916176010555b0151151560ff801960115416911617601155620004cf3362000d75565b50620004db3362000df6565b50620004e73362000e99565b50604051916001600160a01b03167fd2be862d755bca7e0d39772b2cab3a5578da9c285f69199f4c063c2294a7f36c600080a26001600160a01b03167f7f3a888862559648ec01d97deb7b5012bff86dc91e654a1de397170db40e35b6600080a2612133908162000f388239f35b0151905038806200049c565b60106000908152600080516020620030ab8339815191529690601f198416905b818110620005c6575091608095969791846001959410620005ac575b505050811b01601055620004b2565b015160001960f88460031b161c191690553880806200059d565b8383015189556001909801976020938401930162000581565b6010600052600080516020620030ab833981519152601f830160051c810191602084106200062d575b601f0160051c01905b8181106200062057506200047d565b6000815560010162000611565b909150819062000608565b634e487b7160e01b600052602260045260246000fd5b90607f169062000469565b634e487b7160e01b600052604160045260246000fd5b01519050388062000418565b601f19821695600d60005260206000209160005b888110620006cf57508360019596979810620006b5575b505050811b01600d556200042e565b015160001960f88460031b161c19169055388080620006a6565b919260206001819286850151815501940192016200068f565b600d6000527fd7b6990105719101dabeb77144f2a3385c8033acd3af97e9423a695e81ad1eb5601f830160051c8101916020841062000747575b601f0160051c01905b8181106200073a5750620003f9565b600081556001016200072b565b909150819062000722565b90607f1690620003e5565b01519050388062000366565b90600b60005260206000209160005b601f1985168110620007c4575091839160019360ff9695601f19811610620007aa575b505050811b01600b556200037c565b015160001960f88460031b161c191690553880806200079b565b9192602060018192868501518155019401920162000778565b600b6000527f0175b7a638427703f0dbe7bb9bbf987a2551717b34e79f33b5b1008d1fa01db9601f840160051c8101602085106200083b575b601f830160051c820181106200082e57505062000347565b6000815560010162000816565b508062000816565b90607f169062000333565b015190503880620002f9565b600a600090815293506000805160206200308b83398151915291905b601f1984168510620008bc576001945083601f19811610620008a2575b505050811b01600a556200030f565b015160001960f88460031b161c1916905538808062000893565b8181015183556020948501946001909301929091019062000876565b600a6000529091506000805160206200308b833981519152601f840160051c8101916020851062000931575b90601f859493920160051c01905b818110620009215750620002e0565b6000815584935060010162000912565b909150819062000904565b91607f1691620002ca565b60405162461bcd60e51b815260206004820152601460248201527f496e76616c696420746f74616c207368617265730000000000000000000000006044820152606490fd5b60405162461bcd60e51b815260206004820152601660248201527f496e76616c69642070726f70657274792076616c7565000000000000000000006044820152606490fd5b60405162461bcd60e51b815260206004820152601860248201527f496e76616c69642070726f7065727479206164647265737300000000000000006044820152606490fd5b60405162461bcd60e51b815260206004820152601b60248201527f496e76616c696420636f6d706c69616e636520636f6e747261637400000000006044820152606490fd5b62461bcd60e51b815260206004820152601960248201527f496e76616c6964206964656e74697479207265676973747279000000000000006044820152606490fd5b604051631e4fbdf760e01b815260006004820152602490fd5b90508301513862000201565b600460009081527f8a35acfbc15ff81a39ae7d344fd709f28e8600b4aa8c65c6b64bfe7fe36bd19b9250601f198416905b81811062000b325750908360019493921062000b18575b5050811b0160045562000216565b85015160001960f88460031b161c19169055388062000b0a565b9192602060018192868a01518155019401920162000af3565b60046000527f8a35acfbc15ff81a39ae7d344fd709f28e8600b4aa8c65c6b64bfe7fe36bd19b6005601f8401811c82016020851062000baa575b601f8401821c8301811062000b9d57505050620001e8565b6000815560010162000b85565b508162000b85565b90607f1690620001d4565b9050820151386200019c565b600360009081527fc2575a0e9e593c00f959f8c92f12db2869c3395a3b0502d05e2516446f71f85b9250601f198416905b81811062000c395750908360019493921062000c1f575b5050811b01600355620001b1565b84015160001960f88460031b161c19169055388062000c11565b9192602060018192868901518155019401920162000bfa565b60036000527fc2575a0e9e593c00f959f8c92f12db2869c3395a3b0502d05e2516446f71f85b601f830160051c81016020841062000cb0575b601f830160051c8201811062000ca357505062000183565b6000815560010162000c8b565b508062000c8b565b90607f16906200016f565b600080fd5b6040519190601f01601f191682016001600160401b038111838210176200065957604052565b919080601f8401121562000cc35782516001600160401b038111620006595760209062000d24601f8201601f1916830162000cc8565b9281845282828701011162000cc35760005b81811062000d4c57508260009394955001015290565b858101830151848201840152820162000d36565b51906001600160a01b038216820362000cc357565b6001600160a01b031660008181527f54cdd369e4e8a8515e52ca72ec816c2101831ad1f18bf44102ed171459c9b4f8602052604081205490919060ff1662000df25781805260066020526040822081835260205260408220600160ff1982541617905533916000805160206200306b8339815191528180a4600190565b5090565b6001600160a01b031660008181527f4448119502453e295a09f7d4e8a6a0575d3624c233f99f59abf0835bf259780a60205260408120549091907fcab5a0bfe0b79d2c4b1c2e02599fa044d115b7511f9659307cb42769509677099060ff1662000e945780835260066020526040832082845260205260408320600160ff198254161790556000805160206200306b833981519152339380a4600190565b505090565b6001600160a01b031660008181527f84103e4942d70d0389ab910bdcdf181c3e028bc1897fe6797bb191ac79d8088260205260408120549091907f442a94f1a1fac79af32856af2a64f63648cfa2ef3b98610a5bb7cbec4cee69859060ff1662000e945780835260066020526040832082845260205260408320600160ff198254161790556000805160206200306b833981519152339380a460019056fe6080604081815260048036101561001557600080fd5b600092833560e01c90816301ffc9a71461189b57508063062d3bd71461187257806306fdde031461179f578063095ea7b3146116f6578063134e18f4146116cd57806318160ddd146116ae57806322459e181461168557806323b872dd14611596578063248a9ca31461156c57806329511271146115425780632b06ac72146115235780632f2ff15d146114fa578063313ce567146114d857806336568abe146114915780633d1ddc5b146113eb57806340c10f19146111915780635cfbeb7714610fc05780636290865d14610f9757806365614b8514610b2857806370a0823114610af1578063715018a614610a9457806384e7984214610a1d5780638da5cb5b146109f457806391d14854146109ae57806395d89b41146108c457806397a6278e146108975780639dc29fac1461073d5780639fc1d0e7146105b0578063a217fddf14610595578063a9059cbb14610551578063bb33ec0a1461052d578063cbf3f8611461047d578063ccf2258b146103fe578063d547741f146103bf578063dd62ed3e14610376578063e46638e614610351578063ed2c184f14610312578063f2fde38b146102835763f8de2545146101d057600080fd5b3461027f57602036600319011261027f576101e961192f565b6101f1611e05565b6001600160a01b031691821561023c575050600880546001600160a01b031916821790557f7f3a888862559648ec01d97deb7b5012bff86dc91e654a1de397170db40e35b68280a280f35b906020606492519162461bcd60e51b8352820152601b60248201527f496e76616c696420636f6d706c69616e636520636f6e747261637400000000006044820152fd5b8280fd5b503461027f57602036600319011261027f5761029d61192f565b906102a6611e05565b6001600160a01b039182169283156102fc575050600554826bffffffffffffffffffffffff60a01b821617600555167f8be0079c531659141344cd1fd0a4f28419497f9722a3daafe3b4186f6b6457e08380a380f35b51631e4fbdf760e01b8152908101849052602490fd5b50503461034d57602036600319011261034d576020916001600160a01b039082908261033c61192f565b168152600985522054169051908152f35b5080fd5b50503461034d5760209061036d61036736611960565b91611e49565b90519015158152f35b50503461034d578060031936011261034d578060209261039461192f565b61039c61194a565b6001600160a01b0391821683526001865283832091168252845220549051908152f35b50903461027f578060031936011261027f576103fa91356103f560016103e361194a565b93838752600660205286200154611a5e565b611d8e565b5080f35b503461027f57602036600319011261027f5761041861192f565b91610421611e05565b6001600160a01b0383161561043a57836103fa84611b43565b906020606492519162461bcd60e51b8352820152601760248201527f496e76616c6964206f66666963657220616464726573730000000000000000006044820152fd5b503461027f57602036600319011261027f5761049761192f565b61049f611e05565b6001600160a01b03169182156104ea575050600780546001600160a01b031916821790557fd2be862d755bca7e0d39772b2cab3a5578da9c285f69199f4c063c2294a7f36c8280a280f35b906020606492519162461bcd60e51b8352820152601960248201527f496e76616c6964206964656e74697479207265676973747279000000000000006044820152fd5b50503461034d578160031936011261034d5760209061054a6120a7565b9051908152f35b50503461034d578060031936011261034d5760209061058e61057161192f565b60243590610588610583838333611e49565b61201f565b33611f41565b5160018152f35b50503461034d578160031936011261034d5751908152602090f35b50903461027f576105c036611960565b9091926000805160206120be833981519152865260209260068452818720338852845260ff82882054168015610729575b156106dc576001600160a01b03858116959086156106a257821696871561066a575083809392610662926106487f7b3ce50c216d2ccf9919c6b9f1bfb33f0350a33010f188750b4af38e0044813898971515611ec1565b888b528a875261065d83868d20541015611efe565b611f41565b51908152a380f35b835162461bcd60e51b81529081018690526012602482015271496e76616c696420746f206164647265737360701b6044820152606490fd5b835162461bcd60e51b81528089018790526014602482015273496e76616c69642066726f6d206164647265737360601b6044820152606490fd5b815162461bcd60e51b8152808701859052602160248201527f4e6f7420617574686f72697a656420636f6d706c69616e6365206f66666963656044820152603960f91b6064820152608490fd5b506005546001600160a01b031633146105f1565b5091903461034d578060031936011261034d5761075861192f565b90602435906000805160206120de833981519152845260209460068652818520338652865260ff82862054168015610883575b61079490612064565b6001600160a01b03841693841561084f576107b0841515611ec1565b8486528587526107c584848820541015611efe565b848652858752828620549184831061081b57505091849591817fddf252ad1be2c89b69c2b068fc378daa952ba7f163c4a11628f55a4df523b3ef948688528785520381872055816002540360025551908152a380f35b835163391434e360e21b81526001600160a01b03909216908201908152602081018390526040810185905281906060010390fd5b5085606492519162461bcd60e51b8352820152600f60248201526e496e76616c6964206164647265737360881b6044820152fd5b506005546001600160a01b0316331461078b565b83346108c15760203660031901126108c1576103fa6108b461192f565b6108bc611e05565b611cf4565b80fd5b50903461027f578260031936011261027f57805191838154906108e682611995565b808652926001928084169081156109835750600114610927575b6109238686610911828b03836119cf565b519182916020835260208301906118ef565b0390f35b815294507f8a35acfbc15ff81a39ae7d344fd709f28e8600b4aa8c65c6b64bfe7fe36bd19b5b82861061096b57505050610911826020610923958201019438610900565b8054602087870181019190915290950194810161094d565b905061092397508693506020925061091194915060ff191682840152151560051b8201019438610900565b503461027f578160031936011261027f578160209360ff926109ce61194a565b90358252600686528282206001600160a01b039091168252855220549151911615158152f35b50503461034d578160031936011261034d5760055490516001600160a01b039091168152602090f35b503461027f57602036600319011261027f57610a3761192f565b91610a40611e05565b6001600160a01b03831615610a5957836103fa84611aa2565b906020606492519162461bcd60e51b83528201526015602482015274496e76616c6964206167656e74206164647265737360581b6044820152fd5b83346108c157806003193601126108c157610aad611e05565b600580546001600160a01b0319811690915581906001600160a01b03167f8be0079c531659141344cd1fd0a4f28419497f9722a3daafe3b4186f6b6457e08280a380f35b50503461034d57602036600319011261034d5760209181906001600160a01b03610b1961192f565b16815280845220549051908152f35b5091903461034d5760031960203682018113610f935784359067ffffffffffffffff92838311610f8f5760a0908336030112610f8b57835160a0810181811085821117610f7857855282870135848111610f7457610b8b90883691860101611a07565b81528181019260249182820135855286810190604483013582526064830135878111610f7057610bc26084918c3691870101611a07565b93606083019485520135978815158903610f705760808201988952610be5611e05565b81515115610f2f57865115610ef557825115610ebd575051948551878111610eab5780610c13600d54611995565b97601f98898111610e40575b508790898311600114610dbd578c92610db2575b50508160011b916000199060031b1c191617600d555b51600e5551600f5551968751948511610da1575050610c69601054611995565b828111610d42575b5080918311600114610cbe5750839482939492610cb3575b50508160011b916000199060031b1c1916176010555b51151560ff80196011541691161760115580f35b015190503880610c89565b60108552601f198316957f1b6847dc741a1b0cd08d278845f9d819d87b734759afb55fe2de5cb82a9ae672929186905b888210610d2a57505083600195969710610d11575b505050811b01601055610c9f565b015160001960f88460031b161c19169055388080610d03565b80600185968294968601518155019501930190610cee565b601086527f1b6847dc741a1b0cd08d278845f9d819d87b734759afb55fe2de5cb82a9ae6728380860160051c820192848710610d98575b0160051c01905b818110610d8d5750610c71565b868155600101610d80565b92508192610d79565b634e487b7160e01b87526041905285fd5b015190503880610c33565b600d8d527fd7b6990105719101dabeb77144f2a3385c8033acd3af97e9423a695e81ad1eb59250601f1984168d5b8a828210610e2a575050908460019594939210610e11575b505050811b01600d55610c49565b015160001960f88460031b161c19169055388080610e03565b6001859682939686015181550195019301610deb565b909150600d8c527fd7b6990105719101dabeb77144f2a3385c8033acd3af97e9423a695e81ad1eb58980850160051c8201928a8610610ea2575b9085949392910160051c01905b818110610e945750610c1f565b8d8155849350600101610e87565b92508192610e7a565b634e487b7160e01b8a5260418b52848afd5b5162461bcd60e51b8152808b0186905260148186015273496e76616c696420746f74616c2073686172657360601b6044820152606490fd5b5162461bcd60e51b8152808b0186905260168186015275496e76616c69642070726f70657274792076616c756560501b6044820152606490fd5b5162461bcd60e51b8152808b018690526018818601527f496e76616c69642070726f7065727479206164647265737300000000000000006044820152606490fd5b8980fd5b8680fd5b634e487b7160e01b875260418852602487fd5b8480fd5b8580fd5b8380fd5b50503461034d578160031936011261034d5760085490516001600160a01b039091168152602090f35b50503461034d578160031936011261034d5780519082600d549083610fe483611995565b9182825260019384811690816000146111725750600114611114575b61100c925003846119cf565b600e5490600f549083519580916010549161102683611995565b808a52928281169081156110ea5750600114611091575b5050509461108592916110558261106f9803836119cf565b60ff6011541694805197889760a0895260a08901906118ef565b93602088015286015284820360608601526118ef565b90151560808301520390f35b9250601083527f1b6847dc741a1b0cd08d278845f9d819d87b734759afb55fe2de5cb82a9ae6725b8284106110d2575050508501602001816110558761103d565b80546020858b018101919091529093019281016110b9565b60ff19166020808c019190915293151560051b8a019093019350849250611055915088905061103d565b50600d8652908590837fd7b6990105719101dabeb77144f2a3385c8033acd3af97e9423a695e81ad1eb55b8284106111585750505090602061100c92820101611000565b6020929450805483858a010152019101909183869361113f565b6020925061100c94915060ff191682840152151560051b820101611000565b50903461027f578060031936011261027f576111ab61192f565b916024918235916000805160206120de833981519152865260209360068552828720338852855260ff838820541680156113d7575b6111e990612064565b6001600160a01b039586169586156113a257611206851515611ec1565b8186826007541686519283809263b9209e3360e01b82528c898301525afa90811561139857899161137b575b50156113415785606491600854168551928380926372331c7360e11b82528c888301528b878301528960448301525afa90811561133757889161130a575b50156112d557600254918483018093116112c45750506002558385528483528085208054830190555190815283917fddf252ad1be2c89b69c2b068fc378daa952ba7f163c4a11628f55a4df523b3ef91a380f35b634e487b7160e01b88526011905286fd5b60129085606494519362461bcd60e51b855284015282015271135a5b9d081b9bdd0818dbdb5c1b1a585b9d60721b6044820152fd5b61132a9150863d8811611330575b61132281836119cf565b810190611e31565b38611270565b503d611318565b84513d8a823e3d90fd5b5060169085606494519362461bcd60e51b855284015282015275149958da5c1a595b9d081b9bdd081d995c9a599a595960521b6044820152fd5b6113929150873d89116113305761132281836119cf565b38611232565b85513d8b823e3d90fd5b5060119085606494519362461bcd60e51b855284015282015270125b9d985b1a59081c9958da5c1a595b9d607a1b6044820152fd5b506005546001600160a01b031633146111e0565b50903461027f57602036600319011261027f576001600160a01b0361140e61192f565b1691821561145a575033808452600960205290832080546001600160a01b031916831790557ffa8b688967b8ab251458b0516cd38d119af52e289688a810d13bcd39cc379e498380a380f35b6020606492519162461bcd60e51b83528201526012602482015271125b9d985b1a59081bdb98da185a5b88125160721b6044820152fd5b5091903461034d578060031936011261034d576114ac61194a565b90336001600160a01b038316036114c957506103fa919235611d8e565b5163334bd91960e11b81528390fd5b50503461034d578160031936011261034d5760209060ff600c54169051908152f35b50903461027f578060031936011261027f576103fa913561151e60016103e361194a565b611bdf565b50503461034d578160031936011261034d57602090600e549051908152f35b83346108c15760203660031901126108c1576103fa61155f61192f565b611567611e05565b611c5a565b503461027f57602036600319011261027f5781602093600192358152600685522001549051908152f35b5082903461034d576115a736611960565b9390926115b8610583868686611e49565b6001600160a01b038316808352600160209081528784203385529052868320549160001983106115f1575b60208861058e898989611f41565b86831061165957811561164257331561162b5750825260016020908152868320338452815291869020908590039055829061058e876115e3565b8751634a1406b160e11b8152908101849052602490fd5b875163e602df0560e01b8152908101849052602490fd5b8751637dc7a0d960e11b8152339181019182526020820193909352604081018790528291506060010390fd5b50503461034d578160031936011261034d57602090516000805160206120de8339815191528152f35b50503461034d578160031936011261034d576020906002549051908152f35b50503461034d578160031936011261034d5760075490516001600160a01b039091168152602090f35b503461027f578160031936011261027f5761170f61192f565b602435903315611788576001600160a01b031691821561177157508083602095338152600187528181208582528752205582519081527f8c5be1e5ebec7d5bd14f71427d1e84f3dd0314c0f7b2291e5b200ac8c7c3b925843392a35160018152f35b8351634a1406b160e11b8152908101859052602490fd5b835163e602df0560e01b8152808401869052602490fd5b50503461034d578160031936011261034d57805190826003546117c181611995565b8085529160019180831690811561184a57506001146117ed575b505050610911826109239403836119cf565b9450600385527fc2575a0e9e593c00f959f8c92f12db2869c3395a3b0502d05e2516446f71f85b5b8286106118325750505061091182602061092395820101946117db565b80546020878701810191909152909501948101611815565b61092397508693506020925061091194915060ff191682840152151560051b820101946117db565b50503461034d578160031936011261034d57602090516000805160206120be8339815191528152f35b9250503461027f57602036600319011261027f573563ffffffff60e01b811680910361027f5760209250637965db0b60e01b81149081156118de575b5015158152f35b6301ffc9a760e01b149050386118d7565b919082519283825260005b84811061191b575050826000602080949584010152601f8019910116010190565b6020818301810151848301820152016118fa565b600435906001600160a01b038216820361194557565b600080fd5b602435906001600160a01b038216820361194557565b6060906003190112611945576001600160a01b0390600435828116810361194557916024359081168103611945579060443590565b90600182811c921680156119c5575b60208310146119af57565b634e487b7160e01b600052602260045260246000fd5b91607f16916119a4565b90601f8019910116810190811067ffffffffffffffff8211176119f157604052565b634e487b7160e01b600052604160045260246000fd5b81601f820112156119455780359067ffffffffffffffff82116119f15760405192611a3c601f8401601f1916602001856119cf565b8284526020838301011161194557816000926020809301838601378301015290565b80600052600660205260406000203360005260205260ff6040600020541615611a845750565b6044906040519063e2517d3f60e01b82523360048301526024820152fd5b6001600160a01b031660008181527f4448119502453e295a09f7d4e8a6a0575d3624c233f99f59abf0835bf259780a60205260408120549091906000805160206120de8339815191529060ff16611b3e5780835260066020526040832082845260205260408320600160ff198254161790557f2f8788117e7eff1d82e926ec794901d17c78024a50270940304540a733656f0d339380a4600190565b505090565b6001600160a01b031660008181527f84103e4942d70d0389ab910bdcdf181c3e028bc1897fe6797bb191ac79d8088260205260408120549091906000805160206120be8339815191529060ff16611b3e5780835260066020526040832082845260205260408320600160ff198254161790557f2f8788117e7eff1d82e926ec794901d17c78024a50270940304540a733656f0d339380a4600190565b906000918083526006602052604083209160018060a01b03169182845260205260ff60408420541615600014611b3e5780835260066020526040832082845260205260408320600160ff198254161790557f2f8788117e7eff1d82e926ec794901d17c78024a50270940304540a733656f0d339380a4600190565b6001600160a01b031660008181527f84103e4942d70d0389ab910bdcdf181c3e028bc1897fe6797bb191ac79d8088260205260408120549091906000805160206120be8339815191529060ff1615611b3e578083526006602052604083208284526020526040832060ff1981541690557ff6391f5c32d9c69d2a47ea670b442974b53935d1edc7fd64eb21e047a839171b339380a4600190565b6001600160a01b031660008181527f4448119502453e295a09f7d4e8a6a0575d3624c233f99f59abf0835bf259780a60205260408120549091906000805160206120de8339815191529060ff1615611b3e578083526006602052604083208284526020526040832060ff1981541690557ff6391f5c32d9c69d2a47ea670b442974b53935d1edc7fd64eb21e047a839171b339380a4600190565b906000918083526006602052604083209160018060a01b03169182845260205260ff604084205416600014611b3e578083526006602052604083208284526020526040832060ff1981541690557ff6391f5c32d9c69d2a47ea670b442974b53935d1edc7fd64eb21e047a839171b339380a4600190565b6005546001600160a01b03163303611e1957565b60405163118cdaa760e01b8152336004820152602490fd5b90816020910312611945575180151581036119455790565b6008546040516372331c7360e11b81526001600160a01b03928316600482015292821660248401526044830193909352909160209183916064918391165afa908115611eb557600091611e9a575090565b611eb2915060203d81116113305761132281836119cf565b90565b6040513d6000823e3d90fd5b15611ec857565b60405162461bcd60e51b815260206004820152600e60248201526d125b9d985b1a5908185b5bdd5b9d60921b6044820152606490fd5b15611f0557565b60405162461bcd60e51b8152602060048201526014602482015273496e73756666696369656e742062616c616e636560601b6044820152606490fd5b916001600160a01b038084169283156120065716928315611fed5760009083825281602052604082205490838210611fbb575091604082827fddf252ad1be2c89b69c2b068fc378daa952ba7f163c4a11628f55a4df523b3ef958760209652828652038282205586815220818154019055604051908152a3565b60405163391434e360e21b81526001600160a01b03919091166004820152602481019190915260448101839052606490fd5b60405163ec442f0560e01b815260006004820152602490fd5b604051634b637e8f60e11b815260006004820152602490fd5b1561202657565b60405162461bcd60e51b8152602060048201526016602482015275151c985b9cd9995c881b9bdd0818dbdb5c1b1a585b9d60521b6044820152606490fd5b1561206b57565b60405162461bcd60e51b8152602060048201526014602482015273139bdd08185d5d1a1bdc9a5e9959081859d95b9d60621b6044820152606490fd5b600f5480156120b757600e540490565b5060009056fe442a94f1a1fac79af32856af2a64f63648cfa2ef3b98610a5bb7cbec4cee6985cab5a0bfe0b79d2c4b1c2e02599fa044d115b7511f9659307cb4276950967709a2646970667358221220e698abe62d8f57c36a13a22017a714043f5f2f491fb965c28baefa44937e0f6d64736f6c634300081400332f8788117e7eff1d82e926ec794901d17c78024a50270940304540a733656f0dc65a7bb8d6351c1cf70c95a316cc6a92839c986682d98bc35f958f4883f9d2a81b6847dc741a1b0cd08d278845f9d819d87b734759afb55fe2de5cb82a9ae672","opcodes":"PUSH1 0x80 PUSH1 0x40 MSTORE CALLVALUE PUSH3 0xCC3 JUMPI PUSH3 0x30CB DUP1 CODESIZE SUB DUP1 PUSH3 0x1D DUP2 PUSH3 0xCC8 JUMP JUMPDEST SWAP3 DUP4 CODECOPY DUP2 ADD PUSH1 0xC0 DUP3 DUP3 SUB SLT PUSH3 0xCC3 JUMPI DUP2 MLOAD PUSH1 0x1 PUSH1 0x1 PUSH1 0x40 SHL SUB DUP2 GT PUSH3 0xCC3 JUMPI DUP2 PUSH3 0x4C SWAP2 DUP5 ADD PUSH3 0xCEE JUMP JUMPDEST PUSH1 0x20 DUP4 ADD MLOAD PUSH1 0x1 PUSH1 0x1 PUSH1 0x40 SHL SUB DUP2 GT PUSH3 0xCC3 JUMPI DUP3 PUSH3 0x6E SWAP2 DUP6 ADD PUSH3 0xCEE JUMP JUMPDEST PUSH1 0x40 DUP5 ADD MLOAD SWAP1 PUSH1 0xFF DUP3 AND DUP3 SUB PUSH3 0xCC3 JUMPI PUSH3 0x8D PUSH1 0x60 DUP7 ADD PUSH3 0xD60 JUMP JUMPDEST SWAP3 PUSH3 0x9C PUSH1 0x80 DUP8 ADD PUSH3 0xD60 JUMP JUMPDEST PUSH1 0xA0 DUP8 ADD MLOAD SWAP1 SWAP7 PUSH1 0x1 PUSH1 0x1 PUSH1 0x40 SHL SUB DUP3 GT PUSH3 0xCC3 JUMPI ADD SWAP5 PUSH1 0xA0 DUP7 DUP3 SUB SLT PUSH3 0xCC3 JUMPI PUSH1 0x40 MLOAD SWAP6 PUSH1 0xA0 DUP8 ADD PUSH1 0x1 PUSH1 0x1 PUSH1 0x40 SHL SUB DUP2 GT DUP9 DUP3 LT OR PUSH3 0x659 JUMPI PUSH1 0x40 MSTORE DUP1 MLOAD PUSH1 0x1 PUSH1 0x1 PUSH1 0x40 SHL SUB DUP2 GT PUSH3 0xCC3 JUMPI DUP3 PUSH3 0xFC SWAP2 DUP4 ADD PUSH3 0xCEE JUMP JUMPDEST DUP8 MSTORE PUSH1 0x20 DUP2 DUP2 ADD MLOAD SWAP1 DUP9 ADD MSTORE PUSH1 0x40 DUP1 DUP3 ADD MLOAD SWAP1 DUP9 ADD MSTORE PUSH1 0x60 DUP2 ADD MLOAD PUSH1 0x1 PUSH1 0x1 PUSH1 0x40 SHL SUB DUP2 GT PUSH3 0xCC3 JUMPI PUSH1 0x80 SWAP3 PUSH3 0x136 SWAP2 DUP4 ADD PUSH3 0xCEE JUMP JUMPDEST PUSH1 0x60 DUP9 ADD MSTORE ADD MLOAD DUP1 ISZERO ISZERO DUP2 SUB PUSH3 0xCC3 JUMPI PUSH1 0x80 DUP7 ADD MSTORE DUP1 MLOAD PUSH1 0x1 PUSH1 0x1 PUSH1 0x40 SHL SUB DUP2 GT PUSH3 0x659 JUMPI PUSH1 0x3 SLOAD PUSH1 0x1 DUP2 DUP2 SHR SWAP2 AND DUP1 ISZERO PUSH3 0xCB8 JUMPI JUMPDEST PUSH1 0x20 DUP3 LT EQ PUSH3 0x638 JUMPI PUSH1 0x1F DUP2 GT PUSH3 0xC52 JUMPI JUMPDEST POP DUP1 PUSH1 0x20 PUSH1 0x1F DUP3 GT PUSH1 0x1 EQ PUSH3 0xBC9 JUMPI PUSH1 0x0 SWAP2 PUSH3 0xBBD JUMPI JUMPDEST POP DUP2 PUSH1 0x1 SHL SWAP2 PUSH1 0x0 NOT SWAP1 PUSH1 0x3 SHL SHR NOT AND OR PUSH1 0x3 SSTORE JUMPDEST DUP2 MLOAD PUSH1 0x1 PUSH1 0x1 PUSH1 0x40 SHL SUB DUP2 GT PUSH3 0x659 JUMPI PUSH1 0x4 SLOAD PUSH1 0x1 DUP2 DUP2 SHR SWAP2 AND DUP1 ISZERO PUSH3 0xBB2 JUMPI JUMPDEST PUSH1 0x20 DUP3 LT EQ PUSH3 0x638 JUMPI PUSH1 0x1F DUP2 GT PUSH3 0xB4B JUMPI JUMPDEST POP DUP1 PUSH1 0x20 PUSH1 0x1F DUP3 GT PUSH1 0x1 EQ PUSH3 0xAC2 JUMPI PUSH1 0x0 SWAP2 PUSH3 0xAB6 JUMPI JUMPDEST POP DUP2 PUSH1 0x1 SHL SWAP2 PUSH1 0x0 NOT SWAP1 PUSH1 0x3 SHL SHR NOT AND OR PUSH1 0x4 SSTORE JUMPDEST CALLER ISZERO PUSH3 0xA9D JUMPI PUSH1 0x5 DUP1 SLOAD CALLER PUSH1 0x1 PUSH1 0x1 PUSH1 0xA0 SHL SUB NOT DUP3 AND DUP2 OR SWAP1 SWAP3 SSTORE PUSH1 0x40 MLOAD SWAP2 SWAP1 PUSH1 0x1 PUSH1 0x1 PUSH1 0xA0 SHL SUB AND PUSH32 0x8BE0079C531659141344CD1FD0A4F28419497F9722A3DAAFE3B4186F6B6457E0 PUSH1 0x0 DUP1 LOG3 PUSH1 0x1 PUSH1 0x1 PUSH1 0xA0 SHL SUB DUP6 AND ISZERO PUSH3 0xA5B JUMPI POP PUSH1 0x1 PUSH1 0x1 PUSH1 0xA0 SHL SUB DUP7 AND ISZERO PUSH3 0xA16 JUMPI DUP5 MLOAD MLOAD ISZERO PUSH3 0x9D1 JUMPI PUSH1 0x20 DUP6 ADD MLOAD ISZERO PUSH3 0x98C JUMPI PUSH1 0x40 DUP6 ADD MLOAD ISZERO PUSH3 0x947 JUMPI DUP1 MLOAD SWAP1 PUSH1 0x1 PUSH1 0x1 PUSH1 0x40 SHL SUB DUP3 GT PUSH3 0x659 JUMPI PUSH1 0xA SLOAD SWAP1 PUSH1 0x1 DUP3 DUP2 SHR SWAP3 AND DUP1 ISZERO PUSH3 0x93C JUMPI JUMPDEST PUSH1 0x20 DUP4 LT EQ PUSH3 0x638 JUMPI DUP2 PUSH1 0x1F DUP5 SWAP4 GT PUSH3 0x8D8 JUMPI JUMPDEST POP PUSH1 0x20 SWAP1 PUSH1 0x1F DUP4 GT PUSH1 0x1 EQ PUSH3 0x85A JUMPI PUSH1 0x0 SWAP3 PUSH3 0x84E JUMPI JUMPDEST POP POP DUP2 PUSH1 0x1 SHL SWAP2 PUSH1 0x0 NOT SWAP1 PUSH1 0x3 SHL SHR NOT AND OR PUSH1 0xA SSTORE JUMPDEST DUP1 MLOAD SWAP1 PUSH1 0x1 PUSH1 0x1 PUSH1 0x40 SHL SUB DUP3 GT PUSH3 0x659 JUMPI PUSH1 0xB SLOAD PUSH1 0x1 DUP2 DUP2 SHR SWAP2 AND DUP1 ISZERO PUSH3 0x843 JUMPI JUMPDEST PUSH1 0x20 DUP3 LT EQ PUSH3 0x638 JUMPI PUSH1 0x1F DUP2 GT PUSH3 0x7DD JUMPI JUMPDEST POP PUSH1 0x20 SWAP1 PUSH1 0x1F DUP4 GT PUSH1 0x1 EQ PUSH3 0x769 JUMPI PUSH1 0xFF SWAP4 SWAP3 SWAP2 PUSH1 0x0 SWAP2 DUP4 PUSH3 0x75D JUMPI JUMPDEST POP POP DUP2 PUSH1 0x1 SHL SWAP2 PUSH1 0x0 NOT SWAP1 PUSH1 0x3 SHL SHR NOT AND OR PUSH1 0xB SSTORE JUMPDEST PUSH1 0xC DUP1 SLOAD SWAP2 SWAP1 SWAP3 AND PUSH1 0xFF NOT SWAP1 SWAP2 AND OR SWAP1 SSTORE PUSH1 0x7 DUP1 SLOAD PUSH1 0x1 PUSH1 0x1 PUSH1 0xA0 SHL SUB DUP4 DUP2 AND PUSH1 0x1 PUSH1 0x1 PUSH1 0xA0 SHL SUB NOT SWAP3 DUP4 AND OR SWAP1 SWAP3 SSTORE PUSH1 0x8 DUP1 SLOAD SWAP3 DUP7 AND SWAP3 SWAP1 SWAP2 AND SWAP2 SWAP1 SWAP2 OR SWAP1 SSTORE DUP2 MLOAD DUP1 MLOAD SWAP1 SWAP4 SWAP1 PUSH1 0x1 PUSH1 0x1 PUSH1 0x40 SHL SUB DUP2 GT PUSH3 0x659 JUMPI PUSH1 0xD SLOAD PUSH1 0x1 DUP2 DUP2 SHR SWAP2 AND DUP1 ISZERO PUSH3 0x752 JUMPI JUMPDEST PUSH1 0x20 DUP3 LT EQ PUSH3 0x638 JUMPI PUSH1 0x1F DUP2 GT PUSH3 0x6E8 JUMPI JUMPDEST POP PUSH1 0x20 SWAP5 PUSH1 0x1F DUP3 GT PUSH1 0x1 EQ PUSH3 0x67B JUMPI SWAP5 DUP2 SWAP3 SWAP4 SWAP5 SWAP6 PUSH1 0x0 SWAP3 PUSH3 0x66F JUMPI JUMPDEST POP POP DUP2 PUSH1 0x1 SHL SWAP2 PUSH1 0x0 NOT SWAP1 PUSH1 0x3 SHL SHR NOT AND OR PUSH1 0xD SSTORE JUMPDEST PUSH1 0x20 DUP4 ADD MLOAD PUSH1 0xE SSTORE PUSH1 0x40 DUP4 ADD MLOAD PUSH1 0xF SSTORE PUSH1 0x60 DUP4 ADD MLOAD DUP1 MLOAD SWAP1 SWAP4 SWAP1 PUSH1 0x1 PUSH1 0x1 PUSH1 0x40 SHL SUB DUP2 GT PUSH3 0x659 JUMPI PUSH1 0x10 SLOAD PUSH1 0x1 DUP2 DUP2 SHR SWAP2 AND DUP1 ISZERO PUSH3 0x64E JUMPI JUMPDEST PUSH1 0x20 DUP3 LT EQ PUSH3 0x638 JUMPI PUSH1 0x1F DUP2 GT PUSH3 0x5DF JUMPI JUMPDEST POP PUSH1 0x20 PUSH1 0x1F DUP3 GT PUSH1 0x1 EQ PUSH3 0x561 JUMPI DUP2 SWAP1 PUSH1 0x80 SWAP5 SWAP6 SWAP7 PUSH1 0x0 SWAP3 PUSH3 0x555 JUMPI JUMPDEST POP POP DUP2 PUSH1 0x1 SHL SWAP2 PUSH1 0x0 NOT SWAP1 PUSH1 0x3 SHL SHR NOT AND OR PUSH1 0x10 SSTORE JUMPDEST ADD MLOAD ISZERO ISZERO PUSH1 0xFF DUP1 NOT PUSH1 0x11 SLOAD AND SWAP2 AND OR PUSH1 0x11 SSTORE PUSH3 0x4CF CALLER PUSH3 0xD75 JUMP JUMPDEST POP PUSH3 0x4DB CALLER PUSH3 0xDF6 JUMP JUMPDEST POP PUSH3 0x4E7 CALLER PUSH3 0xE99 JUMP JUMPDEST POP PUSH1 0x40 MLOAD SWAP2 PUSH1 0x1 PUSH1 0x1 PUSH1 0xA0 SHL SUB AND PUSH32 0xD2BE862D755BCA7E0D39772B2CAB3A5578DA9C285F69199F4C063C2294A7F36C PUSH1 0x0 DUP1 LOG2 PUSH1 0x1 PUSH1 0x1 PUSH1 0xA0 SHL SUB AND PUSH32 0x7F3A888862559648EC01D97DEB7B5012BFF86DC91E654A1DE397170DB40E35B6 PUSH1 0x0 DUP1 LOG2 PUSH2 0x2133 SWAP1 DUP2 PUSH3 0xF38 DUP3 CODECOPY RETURN JUMPDEST ADD MLOAD SWAP1 POP CODESIZE DUP1 PUSH3 0x49C JUMP JUMPDEST PUSH1 0x10 PUSH1 0x0 SWAP1 DUP2 MSTORE PUSH1 0x0 DUP1 MLOAD PUSH1 0x20 PUSH3 0x30AB DUP4 CODECOPY DUP2 MLOAD SWAP2 MSTORE SWAP7 SWAP1 PUSH1 0x1F NOT DUP5 AND SWAP1 JUMPDEST DUP2 DUP2 LT PUSH3 0x5C6 JUMPI POP SWAP2 PUSH1 0x80 SWAP6 SWAP7 SWAP8 SWAP2 DUP5 PUSH1 0x1 SWAP6 SWAP5 LT PUSH3 0x5AC JUMPI JUMPDEST POP POP POP DUP2 SHL ADD PUSH1 0x10 SSTORE PUSH3 0x4B2 JUMP JUMPDEST ADD MLOAD PUSH1 0x0 NOT PUSH1 0xF8 DUP5 PUSH1 0x3 SHL AND SHR NOT AND SWAP1 SSTORE CODESIZE DUP1 DUP1 PUSH3 0x59D JUMP JUMPDEST DUP4 DUP4 ADD MLOAD DUP10 SSTORE PUSH1 0x1 SWAP1 SWAP9 ADD SWAP8 PUSH1 0x20 SWAP4 DUP5 ADD SWAP4 ADD PUSH3 0x581 JUMP JUMPDEST PUSH1 0x10 PUSH1 0x0 MSTORE PUSH1 0x0 DUP1 MLOAD PUSH1 0x20 PUSH3 0x30AB DUP4 CODECOPY DUP2 MLOAD SWAP2 MSTORE PUSH1 0x1F DUP4 ADD PUSH1 0x5 SHR DUP2 ADD SWAP2 PUSH1 0x20 DUP5 LT PUSH3 0x62D JUMPI JUMPDEST PUSH1 0x1F ADD PUSH1 0x5 SHR ADD SWAP1 JUMPDEST DUP2 DUP2 LT PUSH3 0x620 JUMPI POP PUSH3 0x47D JUMP JUMPDEST PUSH1 0x0 DUP2 SSTORE PUSH1 0x1 ADD PUSH3 0x611 JUMP JUMPDEST SWAP1 SWAP2 POP DUP2 SWAP1 PUSH3 0x608 JUMP JUMPDEST PUSH4 0x4E487B71 PUSH1 0xE0 SHL PUSH1 0x0 MSTORE PUSH1 0x22 PUSH1 0x4 MSTORE PUSH1 0x24 PUSH1 0x0 REVERT JUMPDEST SWAP1 PUSH1 0x7F AND SWAP1 PUSH3 0x469 JUMP JUMPDEST PUSH4 0x4E487B71 PUSH1 0xE0 SHL PUSH1 0x0 MSTORE PUSH1 0x41 PUSH1 0x4 MSTORE PUSH1 0x24 PUSH1 0x0 REVERT JUMPDEST ADD MLOAD SWAP1 POP CODESIZE DUP1 PUSH3 0x418 JUMP JUMPDEST PUSH1 0x1F NOT DUP3 AND SWAP6 PUSH1 0xD PUSH1 0x0 MSTORE PUSH1 0x20 PUSH1 0x0 KECCAK256 SWAP2 PUSH1 0x0 JUMPDEST DUP9 DUP2 LT PUSH3 0x6CF JUMPI POP DUP4 PUSH1 0x1 SWAP6 SWAP7 SWAP8 SWAP9 LT PUSH3 0x6B5 JUMPI JUMPDEST POP POP POP DUP2 SHL ADD PUSH1 0xD SSTORE PUSH3 0x42E JUMP JUMPDEST ADD MLOAD PUSH1 0x0 NOT PUSH1 0xF8 DUP5 PUSH1 0x3 SHL AND SHR NOT AND SWAP1 SSTORE CODESIZE DUP1 DUP1 PUSH3 0x6A6 JUMP JUMPDEST SWAP2 SWAP3 PUSH1 0x20 PUSH1 0x1 DUP2 SWAP3 DUP7 DUP6 ADD MLOAD DUP2 SSTORE ADD SWAP5 ADD SWAP3 ADD PUSH3 0x68F JUMP JUMPDEST PUSH1 0xD PUSH1 0x0 MSTORE PUSH32 0xD7B6990105719101DABEB77144F2A3385C8033ACD3AF97E9423A695E81AD1EB5 PUSH1 0x1F DUP4 ADD PUSH1 0x5 SHR DUP2 ADD SWAP2 PUSH1 0x20 DUP5 LT PUSH3 0x747 JUMPI JUMPDEST PUSH1 0x1F ADD PUSH1 0x5 SHR ADD SWAP1 JUMPDEST DUP2 DUP2 LT PUSH3 0x73A JUMPI POP PUSH3 0x3F9 JUMP JUMPDEST PUSH1 0x0 DUP2 SSTORE PUSH1 0x1 ADD PUSH3 0x72B JUMP JUMPDEST SWAP1 SWAP2 POP DUP2 SWAP1 PUSH3 0x722 JUMP JUMPDEST SWAP1 PUSH1 0x7F AND SWAP1 PUSH3 0x3E5 JUMP JUMPDEST ADD MLOAD SWAP1 POP CODESIZE DUP1 PUSH3 0x366 JUMP JUMPDEST SWAP1 PUSH1 0xB PUSH1 0x0 MSTORE PUSH1 0x20 PUSH1 0x0 KECCAK256 SWAP2 PUSH1 0x0 JUMPDEST PUSH1 0x1F NOT DUP6 AND DUP2 LT PUSH3 0x7C4 JUMPI POP SWAP2 DUP4 SWAP2 PUSH1 0x1 SWAP4 PUSH1 0xFF SWAP7 SWAP6 PUSH1 0x1F NOT DUP2 AND LT PUSH3 0x7AA JUMPI JUMPDEST POP POP POP DUP2 SHL ADD PUSH1 0xB SSTORE PUSH3 0x37C JUMP JUMPDEST ADD MLOAD PUSH1 0x0 NOT PUSH1 0xF8 DUP5 PUSH1 0x3 SHL AND SHR NOT AND SWAP1 SSTORE CODESIZE DUP1 DUP1 PUSH3 0x79B JUMP JUMPDEST SWAP2 SWAP3 PUSH1 0x20 PUSH1 0x1 DUP2 SWAP3 DUP7 DUP6 ADD MLOAD DUP2 SSTORE ADD SWAP5 ADD SWAP3 ADD PUSH3 0x778 JUMP JUMPDEST PUSH1 0xB PUSH1 0x0 MSTORE PUSH32 0x175B7A638427703F0DBE7BB9BBF987A2551717B34E79F33B5B1008D1FA01DB9 PUSH1 0x1F DUP5 ADD PUSH1 0x5 SHR DUP2 ADD PUSH1 0x20 DUP6 LT PUSH3 0x83B JUMPI JUMPDEST PUSH1 0x1F DUP4 ADD PUSH1 0x5 SHR DUP3 ADD DUP2 LT PUSH3 0x82E JUMPI POP POP PUSH3 0x347 JUMP JUMPDEST PUSH1 0x0 DUP2 SSTORE PUSH1 0x1 ADD PUSH3 0x816 JUMP JUMPDEST POP DUP1 PUSH3 0x816 JUMP JUMPDEST SWAP1 PUSH1 0x7F AND SWAP1 PUSH3 0x333 JUMP JUMPDEST ADD MLOAD SWAP1 POP CODESIZE DUP1 PUSH3 0x2F9 JUMP JUMPDEST PUSH1 0xA PUSH1 0x0 SWAP1 DUP2 MSTORE SWAP4 POP PUSH1 0x0 DUP1 MLOAD PUSH1 0x20 PUSH3 0x308B DUP4 CODECOPY DUP2 MLOAD SWAP2 MSTORE SWAP2 SWAP1 JUMPDEST PUSH1 0x1F NOT DUP5 AND DUP6 LT PUSH3 0x8BC JUMPI PUSH1 0x1 SWAP5 POP DUP4 PUSH1 0x1F NOT DUP2 AND LT PUSH3 0x8A2 JUMPI JUMPDEST POP POP POP DUP2 SHL ADD PUSH1 0xA SSTORE PUSH3 0x30F JUMP JUMPDEST ADD MLOAD PUSH1 0x0 NOT PUSH1 0xF8 DUP5 PUSH1 0x3 SHL AND SHR NOT AND SWAP1 SSTORE CODESIZE DUP1 DUP1 PUSH3 0x893 JUMP JUMPDEST DUP2 DUP2 ADD MLOAD DUP4 SSTORE PUSH1 0x20 SWAP5 DUP6 ADD SWAP5 PUSH1 0x1 SWAP1 SWAP4 ADD SWAP3 SWAP1 SWAP2 ADD SWAP1 PUSH3 0x876 JUMP JUMPDEST PUSH1 0xA PUSH1 0x0 MSTORE SWAP1 SWAP2 POP PUSH1 0x0 DUP1 MLOAD PUSH1 0x20 PUSH3 0x308B DUP4 CODECOPY DUP2 MLOAD SWAP2 MSTORE PUSH1 0x1F DUP5 ADD PUSH1 0x5 SHR DUP2 ADD SWAP2 PUSH1 0x20 DUP6 LT PUSH3 0x931 JUMPI JUMPDEST SWAP1 PUSH1 0x1F DUP6 SWAP5 SWAP4 SWAP3 ADD PUSH1 0x5 SHR ADD SWAP1 JUMPDEST DUP2 DUP2 LT PUSH3 0x921 JUMPI POP PUSH3 0x2E0 JUMP JUMPDEST PUSH1 0x0 DUP2 SSTORE DUP5 SWAP4 POP PUSH1 0x1 ADD PUSH3 0x912 JUMP JUMPDEST SWAP1 SWAP2 POP DUP2 SWAP1 PUSH3 0x904 JUMP JUMPDEST SWAP2 PUSH1 0x7F AND SWAP2 PUSH3 0x2CA JUMP JUMPDEST PUSH1 0x40 MLOAD PUSH3 0x461BCD PUSH1 0xE5 SHL DUP2 MSTORE PUSH1 0x20 PUSH1 0x4 DUP3 ADD MSTORE PUSH1 0x14 PUSH1 0x24 DUP3 ADD MSTORE PUSH32 0x496E76616C696420746F74616C20736861726573000000000000000000000000 PUSH1 0x44 DUP3 ADD MSTORE PUSH1 0x64 SWAP1 REVERT JUMPDEST PUSH1 0x40 MLOAD PUSH3 0x461BCD PUSH1 0xE5 SHL DUP2 MSTORE PUSH1 0x20 PUSH1 0x4 DUP3 ADD MSTORE PUSH1 0x16 PUSH1 0x24 DUP3 ADD MSTORE PUSH32 0x496E76616C69642070726F70657274792076616C756500000000000000000000 PUSH1 0x44 DUP3 ADD MSTORE PUSH1 0x64 SWAP1 REVERT JUMPDEST PUSH1 0x40 MLOAD PUSH3 0x461BCD PUSH1 0xE5 SHL DUP2 MSTORE PUSH1 0x20 PUSH1 0x4 DUP3 ADD MSTORE PUSH1 0x18 PUSH1 0x24 DUP3 ADD MSTORE PUSH32 0x496E76616C69642070726F706572747920616464726573730000000000000000 PUSH1 0x44 DUP3 ADD MSTORE PUSH1 0x64 SWAP1 REVERT JUMPDEST PUSH1 0x40 MLOAD PUSH3 0x461BCD PUSH1 0xE5 SHL DUP2 MSTORE PUSH1 0x20 PUSH1 0x4 DUP3 ADD MSTORE PUSH1 0x1B PUSH1 0x24 DUP3 ADD MSTORE PUSH32 0x496E76616C696420636F6D706C69616E636520636F6E74726163740000000000 PUSH1 0x44 DUP3 ADD MSTORE PUSH1 0x64 SWAP1 REVERT JUMPDEST PUSH3 0x461BCD PUSH1 0xE5 SHL DUP2 MSTORE PUSH1 0x20 PUSH1 0x4 DUP3 ADD MSTORE PUSH1 0x19 PUSH1 0x24 DUP3 ADD MSTORE PUSH32 0x496E76616C6964206964656E7469747920726567697374727900000000000000 PUSH1 0x44 DUP3 ADD MSTORE PUSH1 0x64 SWAP1 REVERT JUMPDEST PUSH1 0x40 MLOAD PUSH4 0x1E4FBDF7 PUSH1 0xE0 SHL DUP2 MSTORE PUSH1 0x0 PUSH1 0x4 DUP3 ADD MSTORE PUSH1 0x24 SWAP1 REVERT JUMPDEST SWAP1 POP DUP4 ADD MLOAD CODESIZE PUSH3 0x201 JUMP JUMPDEST PUSH1 0x4 PUSH1 0x0 SWAP1 DUP2 MSTORE PUSH32 0x8A35ACFBC15FF81A39AE7D344FD709F28E8600B4AA8C65C6B64BFE7FE36BD19B SWAP3 POP PUSH1 0x1F NOT DUP5 AND SWAP1 JUMPDEST DUP2 DUP2 LT PUSH3 0xB32 JUMPI POP SWAP1 DUP4 PUSH1 0x1 SWAP5 SWAP4 SWAP3 LT PUSH3 0xB18 JUMPI JUMPDEST POP POP DUP2 SHL ADD PUSH1 0x4 SSTORE PUSH3 0x216 JUMP JUMPDEST DUP6 ADD MLOAD PUSH1 0x0 NOT PUSH1 0xF8 DUP5 PUSH1 0x3 SHL AND SHR NOT AND SWAP1 SSTORE CODESIZE DUP1 PUSH3 0xB0A JUMP JUMPDEST SWAP2 SWAP3 PUSH1 0x20 PUSH1 0x1 DUP2 SWAP3 DUP7 DUP11 ADD MLOAD DUP2 SSTORE ADD SWAP5 ADD SWAP3 ADD PUSH3 0xAF3 JUMP JUMPDEST PUSH1 0x4 PUSH1 0x0 MSTORE PUSH32 0x8A35ACFBC15FF81A39AE7D344FD709F28E8600B4AA8C65C6B64BFE7FE36BD19B PUSH1 0x5 PUSH1 0x1F DUP5 ADD DUP2 SHR DUP3 ADD PUSH1 0x20 DUP6 LT PUSH3 0xBAA JUMPI JUMPDEST PUSH1 0x1F DUP5 ADD DUP3 SHR DUP4 ADD DUP2 LT PUSH3 0xB9D JUMPI POP POP POP PUSH3 0x1E8 JUMP JUMPDEST PUSH1 0x0 DUP2 SSTORE PUSH1 0x1 ADD PUSH3 0xB85 JUMP JUMPDEST POP DUP2 PUSH3 0xB85 JUMP JUMPDEST SWAP1 PUSH1 0x7F AND SWAP1 PUSH3 0x1D4 JUMP JUMPDEST SWAP1 POP DUP3 ADD MLOAD CODESIZE PUSH3 0x19C JUMP JUMPDEST PUSH1 0x3 PUSH1 0x0 SWAP1 DUP2 MSTORE PUSH32 0xC2575A0E9E593C00F959F8C92F12DB2869C3395A3B0502D05E2516446F71F85B SWAP3 POP PUSH1 0x1F NOT DUP5 AND SWAP1 JUMPDEST DUP2 DUP2 LT PUSH3 0xC39 JUMPI POP SWAP1 DUP4 PUSH1 0x1 SWAP5 SWAP4 SWAP3 LT PUSH3 0xC1F JUMPI JUMPDEST POP POP DUP2 SHL ADD PUSH1 0x3 SSTORE PUSH3 0x1B1 JUMP JUMPDEST DUP5 ADD MLOAD PUSH1 0x0 NOT PUSH1 0xF8 DUP5 PUSH1 0x3 SHL AND SHR NOT AND SWAP1 SSTORE CODESIZE DUP1 PUSH3 0xC11 JUMP JUMPDEST SWAP2 SWAP3 PUSH1 0x20 PUSH1 0x1 DUP2 SWAP3 DUP7 DUP10 ADD MLOAD DUP2 SSTORE ADD SWAP5 ADD SWAP3 ADD PUSH3 0xBFA JUMP JUMPDEST PUSH1 0x3 PUSH1 0x0 MSTORE PUSH32 0xC2575A0E9E593C00F959F8C92F12DB2869C3395A3B0502D05E2516446F71F85B PUSH1 0x1F DUP4 ADD PUSH1 0x5 SHR DUP2 ADD PUSH1 0x20 DUP5 LT PUSH3 0xCB0 JUMPI JUMPDEST PUSH1 0x1F DUP4 ADD PUSH1 0x5 SHR DUP3 ADD DUP2 LT PUSH3 0xCA3 JUMPI POP POP PUSH3 0x183 JUMP JUMPDEST PUSH1 0x0 DUP2 SSTORE PUSH1 0x1 ADD PUSH3 0xC8B JUMP JUMPDEST POP DUP1 PUSH3 0xC8B JUMP JUMPDEST SWAP1 PUSH1 0x7F AND SWAP1 PUSH3 0x16F JUMP JUMPDEST PUSH1 0x0 DUP1 REVERT JUMPDEST PUSH1 0x40 MLOAD SWAP2 SWAP1 PUSH1 0x1F ADD PUSH1 0x1F NOT AND DUP3 ADD PUSH1 0x1 PUSH1 0x1 PUSH1 0x40 SHL SUB DUP2 GT DUP4 DUP3 LT OR PUSH3 0x659 JUMPI PUSH1 0x40 MSTORE JUMP JUMPDEST SWAP2 SWAP1 DUP1 PUSH1 0x1F DUP5 ADD SLT ISZERO PUSH3 0xCC3 JUMPI DUP3 MLOAD PUSH1 0x1 PUSH1 0x1 PUSH1 0x40 SHL SUB DUP2 GT PUSH3 0x659 JUMPI PUSH1 0x20 SWAP1 PUSH3 0xD24 PUSH1 0x1F DUP3 ADD PUSH1 0x1F NOT AND DUP4 ADD PUSH3 0xCC8 JUMP JUMPDEST SWAP3 DUP2 DUP5 MSTORE DUP3 DUP3 DUP8 ADD ADD GT PUSH3 0xCC3 JUMPI PUSH1 0x0 JUMPDEST DUP2 DUP2 LT PUSH3 0xD4C JUMPI POP DUP3 PUSH1 0x0 SWAP4 SWAP5 SWAP6 POP ADD ADD MSTORE SWAP1 JUMP JUMPDEST DUP6 DUP2 ADD DUP4 ADD MLOAD DUP5 DUP3 ADD DUP5 ADD MSTORE DUP3 ADD PUSH3 0xD36 JUMP JUMPDEST MLOAD SWAP1 PUSH1 0x1 PUSH1 0x1 PUSH1 0xA0 SHL SUB DUP3 AND DUP3 SUB PUSH3 0xCC3 JUMPI JUMP JUMPDEST PUSH1 0x1 PUSH1 0x1 PUSH1 0xA0 SHL SUB AND PUSH1 0x0 DUP2 DUP2 MSTORE PUSH32 0x54CDD369E4E8A8515E52CA72EC816C2101831AD1F18BF44102ED171459C9B4F8 PUSH1 0x20 MSTORE PUSH1 0x40 DUP2 KECCAK256 SLOAD SWAP1 SWAP2 SWAP1 PUSH1 0xFF AND PUSH3 0xDF2 JUMPI DUP2 DUP1 MSTORE PUSH1 0x6 PUSH1 0x20 MSTORE PUSH1 0x40 DUP3 KECCAK256 DUP2 DUP4 MSTORE PUSH1 0x20 MSTORE PUSH1 0x40 DUP3 KECCAK256 PUSH1 0x1 PUSH1 0xFF NOT DUP3 SLOAD AND OR SWAP1 SSTORE CALLER SWAP2 PUSH1 0x0 DUP1 MLOAD PUSH1 0x20 PUSH3 0x306B DUP4 CODECOPY DUP2 MLOAD SWAP2 MSTORE DUP2 DUP1 LOG4 PUSH1 0x1 SWAP1 JUMP JUMPDEST POP SWAP1 JUMP JUMPDEST PUSH1 0x1 PUSH1 0x1 PUSH1 0xA0 SHL SUB AND PUSH1 0x0 DUP2 DUP2 MSTORE PUSH32 0x4448119502453E295A09F7D4E8A6A0575D3624C233F99F59ABF0835BF259780A PUSH1 0x20 MSTORE PUSH1 0x40 DUP2 KECCAK256 SLOAD SWAP1 SWAP2 SWAP1 PUSH32 0xCAB5A0BFE0B79D2C4B1C2E02599FA044D115B7511F9659307CB4276950967709 SWAP1 PUSH1 0xFF AND PUSH3 0xE94 JUMPI DUP1 DUP4 MSTORE PUSH1 0x6 PUSH1 0x20 MSTORE PUSH1 0x40 DUP4 KECCAK256 DUP3 DUP5 MSTORE PUSH1 0x20 MSTORE PUSH1 0x40 DUP4 KECCAK256 PUSH1 0x1 PUSH1 0xFF NOT DUP3 SLOAD AND OR SWAP1 SSTORE PUSH1 0x0 DUP1 MLOAD PUSH1 0x20 PUSH3 0x306B DUP4 CODECOPY DUP2 MLOAD SWAP2 MSTORE CALLER SWAP4 DUP1 LOG4 PUSH1 0x1 SWAP1 JUMP JUMPDEST POP POP SWAP1 JUMP JUMPDEST PUSH1 0x1 PUSH1 0x1 PUSH1 0xA0 SHL SUB AND PUSH1 0x0 DUP2 DUP2 MSTORE PUSH32 0x84103E4942D70D0389AB910BDCDF181C3E028BC1897FE6797BB191AC79D80882 PUSH1 0x20 MSTORE PUSH1 0x40 DUP2 KECCAK256 SLOAD SWAP1 SWAP2 SWAP1 PUSH32 0x442A94F1A1FAC79AF32856AF2A64F63648CFA2EF3B98610A5BB7CBEC4CEE6985 SWAP1 PUSH1 0xFF AND PUSH3 0xE94 JUMPI DUP1 DUP4 MSTORE PUSH1 0x6 PUSH1 0x20 MSTORE PUSH1 0x40 DUP4 KECCAK256 DUP3 DUP5 MSTORE PUSH1 0x20 MSTORE PUSH1 0x40 DUP4 KECCAK256 PUSH1 0x1 PUSH1 0xFF NOT DUP3 SLOAD AND OR SWAP1 SSTORE PUSH1 0x0 DUP1 MLOAD PUSH1 0x20 PUSH3 0x306B DUP4 CODECOPY DUP2 MLOAD SWAP2 MSTORE CALLER SWAP4 DUP1 LOG4 PUSH1 0x1 SWAP1 JUMP INVALID PUSH1 0x80 PUSH1 0x40 DUP2 DUP2 MSTORE PUSH1 0x4 DUP1 CALLDATASIZE LT ISZERO PUSH2 0x15 JUMPI PUSH1 0x0 DUP1 REVERT JUMPDEST PUSH1 0x0 SWAP3 DUP4 CALLDATALOAD PUSH1 0xE0 SHR SWAP1 DUP2 PUSH4 0x1FFC9A7 EQ PUSH2 0x189B JUMPI POP DUP1 PUSH4 0x62D3BD7 EQ PUSH2 0x1872 JUMPI DUP1 PUSH4 0x6FDDE03 EQ PUSH2 0x179F JUMPI DUP1 PUSH4 0x95EA7B3 EQ PUSH2 0x16F6 JUMPI DUP1 PUSH4 0x134E18F4 EQ PUSH2 0x16CD JUMPI DUP1 PUSH4 0x18160DDD EQ PUSH2 0x16AE JUMPI DUP1 PUSH4 0x22459E18 EQ PUSH2 0x1685 JUMPI DUP1 PUSH4 0x23B872DD EQ PUSH2 0x1596 JUMPI DUP1 PUSH4 0x248A9CA3 EQ PUSH2 0x156C JUMPI DUP1 PUSH4 0x29511271 EQ PUSH2 0x1542 JUMPI DUP1 PUSH4 0x2B06AC72 EQ PUSH2 0x1523 JUMPI DUP1 PUSH4 0x2F2FF15D EQ PUSH2 0x14FA JUMPI DUP1 PUSH4 0x313CE567 EQ PUSH2 0x14D8 JUMPI DUP1 PUSH4 0x36568ABE EQ PUSH2 0x1491 JUMPI DUP1 PUSH4 0x3D1DDC5B EQ PUSH2 0x13EB JUMPI DUP1 PUSH4 0x40C10F19 EQ PUSH2 0x1191 JUMPI DUP1 PUSH4 0x5CFBEB77 EQ PUSH2 0xFC0 JUMPI DUP1 PUSH4 0x6290865D EQ PUSH2 0xF97 JUMPI DUP1 PUSH4 0x65614B85 EQ PUSH2 0xB28 JUMPI DUP1 PUSH4 0x70A08231 EQ PUSH2 0xAF1 JUMPI DUP1 PUSH4 0x715018A6 EQ PUSH2 0xA94 JUMPI DUP1 PUSH4 0x84E79842 EQ PUSH2 0xA1D JUMPI DUP1 PUSH4 0x8DA5CB5B EQ PUSH2 0x9F4 JUMPI DUP1 PUSH4 0x91D14854 EQ PUSH2 0x9AE JUMPI DUP1 PUSH4 0x95D89B41 EQ PUSH2 0x8C4 JUMPI DUP1 PUSH4 0x97A6278E EQ PUSH2 0x897 JUMPI DUP1 PUSH4 0x9DC29FAC EQ PUSH2 0x73D JUMPI DUP1 PUSH4 0x9FC1D0E7 EQ PUSH2 0x5B0 JUMPI DUP1 PUSH4 0xA217FDDF EQ PUSH2 0x595 JUMPI DUP1 PUSH4 0xA9059CBB EQ PUSH2 0x551 JUMPI DUP1 PUSH4 0xBB33EC0A EQ PUSH2 0x52D JUMPI DUP1 PUSH4 0xCBF3F861 EQ PUSH2 0x47D JUMPI DUP1 PUSH4 0xCCF2258B EQ PUSH2 0x3FE JUMPI DUP1 PUSH4 0xD547741F EQ PUSH2 0x3BF JUMPI DUP1 PUSH4 0xDD62ED3E EQ PUSH2 0x376 JUMPI DUP1 PUSH4 0xE46638E6 EQ PUSH2 0x351 JUMPI DUP1 PUSH4 0xED2C184F EQ PUSH2 0x312 JUMPI DUP1 PUSH4 0xF2FDE38B EQ PUSH2 0x283 JUMPI PUSH4 0xF8DE2545 EQ PUSH2 0x1D0 JUMPI PUSH1 0x0 DUP1 REVERT JUMPDEST CALLVALUE PUSH2 0x27F JUMPI PUSH1 0x20 CALLDATASIZE PUSH1 0x3 NOT ADD SLT PUSH2 0x27F JUMPI PUSH2 0x1E9 PUSH2 0x192F JUMP JUMPDEST PUSH2 0x1F1 PUSH2 0x1E05 JUMP JUMPDEST PUSH1 0x1 PUSH1 0x1 PUSH1 0xA0 SHL SUB AND SWAP2 DUP3 ISZERO PUSH2 0x23C JUMPI POP POP PUSH1 0x8 DUP1 SLOAD PUSH1 0x1 PUSH1 0x1 PUSH1 0xA0 SHL SUB NOT AND DUP3 OR SWAP1 SSTORE PUSH32 0x7F3A888862559648EC01D97DEB7B5012BFF86DC91E654A1DE397170DB40E35B6 DUP3 DUP1 LOG2 DUP1 RETURN JUMPDEST SWAP1 PUSH1 0x20 PUSH1 0x64 SWAP3 MLOAD SWAP2 PUSH3 0x461BCD PUSH1 0xE5 SHL DUP4 MSTORE DUP3 ADD MSTORE PUSH1 0x1B PUSH1 0x24 DUP3 ADD MSTORE PUSH32 0x496E76616C696420636F6D706C69616E636520636F6E74726163740000000000 PUSH1 0x44 DUP3 ADD MSTORE REVERT JUMPDEST DUP3 DUP1 REVERT JUMPDEST POP CALLVALUE PUSH2 0x27F JUMPI PUSH1 0x20 CALLDATASIZE PUSH1 0x3 NOT ADD SLT PUSH2 0x27F JUMPI PUSH2 0x29D PUSH2 0x192F JUMP JUMPDEST SWAP1 PUSH2 0x2A6 PUSH2 0x1E05 JUMP JUMPDEST PUSH1 0x1 PUSH1 0x1 PUSH1 0xA0 SHL SUB SWAP2 DUP3 AND SWAP3 DUP4 ISZERO PUSH2 0x2FC JUMPI POP POP PUSH1 0x5 SLOAD DUP3 PUSH12 0xFFFFFFFFFFFFFFFFFFFFFFFF PUSH1 0xA0 SHL DUP3 AND OR PUSH1 0x5 SSTORE AND PUSH32 0x8BE0079C531659141344CD1FD0A4F28419497F9722A3DAAFE3B4186F6B6457E0 DUP4 DUP1 LOG3 DUP1 RETURN JUMPDEST MLOAD PUSH4 0x1E4FBDF7 PUSH1 0xE0 SHL DUP2 MSTORE SWAP1 DUP2 ADD DUP5 SWAP1 MSTORE PUSH1 0x24 SWAP1 REVERT JUMPDEST POP POP CALLVALUE PUSH2 0x34D JUMPI PUSH1 0x20 CALLDATASIZE PUSH1 0x3 NOT ADD SLT PUSH2 0x34D JUMPI PUSH1 0x20 SWAP2 PUSH1 0x1 PUSH1 0x1 PUSH1 0xA0 SHL SUB SWAP1 DUP3 SWAP1 DUP3 PUSH2 0x33C PUSH2 0x192F JUMP JUMPDEST AND DUP2 MSTORE PUSH1 0x9 DUP6 MSTORE KECCAK256 SLOAD AND SWAP1 MLOAD SWAP1 DUP2 MSTORE RETURN JUMPDEST POP DUP1 REVERT JUMPDEST POP POP CALLVALUE PUSH2 0x34D JUMPI PUSH1 0x20 SWAP1 PUSH2 0x36D PUSH2 0x367 CALLDATASIZE PUSH2 0x1960 JUMP JUMPDEST SWAP2 PUSH2 0x1E49 JUMP JUMPDEST SWAP1 MLOAD SWAP1 ISZERO ISZERO DUP2 MSTORE RETURN JUMPDEST POP POP CALLVALUE PUSH2 0x34D JUMPI DUP1 PUSH1 0x3 NOT CALLDATASIZE ADD SLT PUSH2 0x34D JUMPI DUP1 PUSH1 0x20 SWAP3 PUSH2 0x394 PUSH2 0x192F JUMP JUMPDEST PUSH2 0x39C PUSH2 0x194A JUMP JUMPDEST PUSH1 0x1 PUSH1 0x1 PUSH1 0xA0 SHL SUB SWAP2 DUP3 AND DUP4 MSTORE PUSH1 0x1 DUP7 MSTORE DUP4 DUP4 KECCAK256 SWAP2 AND DUP3 MSTORE DUP5 MSTORE KECCAK256 SLOAD SWAP1 MLOAD SWAP1 DUP2 MSTORE RETURN JUMPDEST POP SWAP1 CALLVALUE PUSH2 0x27F JUMPI DUP1 PUSH1 0x3 NOT CALLDATASIZE ADD SLT PUSH2 0x27F JUMPI PUSH2 0x3FA SWAP2 CALLDATALOAD PUSH2 0x3F5 PUSH1 0x1 PUSH2 0x3E3 PUSH2 0x194A JUMP JUMPDEST SWAP4 DUP4 DUP8 MSTORE PUSH1 0x6 PUSH1 0x20 MSTORE DUP7 KECCAK256 ADD SLOAD PUSH2 0x1A5E JUMP JUMPDEST PUSH2 0x1D8E JUMP JUMPDEST POP DUP1 RETURN JUMPDEST POP CALLVALUE PUSH2 0x27F JUMPI PUSH1 0x20 CALLDATASIZE PUSH1 0x3 NOT ADD SLT PUSH2 0x27F JUMPI PUSH2 0x418 PUSH2 0x192F JUMP JUMPDEST SWAP2 PUSH2 0x421 PUSH2 0x1E05 JUMP JUMPDEST PUSH1 0x1 PUSH1 0x1 PUSH1 0xA0 SHL SUB DUP4 AND ISZERO PUSH2 0x43A JUMPI DUP4 PUSH2 0x3FA DUP5 PUSH2 0x1B43 JUMP JUMPDEST SWAP1 PUSH1 0x20 PUSH1 0x64 SWAP3 MLOAD SWAP2 PUSH3 0x461BCD PUSH1 0xE5 SHL DUP4 MSTORE DUP3 ADD MSTORE PUSH1 0x17 PUSH1 0x24 DUP3 ADD MSTORE PUSH32 0x496E76616C6964206F6666696365722061646472657373000000000000000000 PUSH1 0x44 DUP3 ADD MSTORE REVERT JUMPDEST POP CALLVALUE PUSH2 0x27F JUMPI PUSH1 0x20 CALLDATASIZE PUSH1 0x3 NOT ADD SLT PUSH2 0x27F JUMPI PUSH2 0x497 PUSH2 0x192F JUMP JUMPDEST PUSH2 0x49F PUSH2 0x1E05 JUMP JUMPDEST PUSH1 0x1 PUSH1 0x1 PUSH1 0xA0 SHL SUB AND SWAP2 DUP3 ISZERO PUSH2 0x4EA JUMPI POP POP PUSH1 0x7 DUP1 SLOAD PUSH1 0x1 PUSH1 0x1 PUSH1 0xA0 SHL SUB NOT AND DUP3 OR SWAP1 SSTORE PUSH32 0xD2BE862D755BCA7E0D39772B2CAB3A5578DA9C285F69199F4C063C2294A7F36C DUP3 DUP1 LOG2 DUP1 RETURN JUMPDEST SWAP1 PUSH1 0x20 PUSH1 0x64 SWAP3 MLOAD SWAP2 PUSH3 0x461BCD PUSH1 0xE5 SHL DUP4 MSTORE DUP3 ADD MSTORE PUSH1 0x19 PUSH1 0x24 DUP3 ADD MSTORE PUSH32 0x496E76616C6964206964656E7469747920726567697374727900000000000000 PUSH1 0x44 DUP3 ADD MSTORE REVERT JUMPDEST POP POP CALLVALUE PUSH2 0x34D JUMPI DUP2 PUSH1 0x3 NOT CALLDATASIZE ADD SLT PUSH2 0x34D JUMPI PUSH1 0x20 SWAP1 PUSH2 0x54A PUSH2 0x20A7 JUMP JUMPDEST SWAP1 MLOAD SWAP1 DUP2 MSTORE RETURN JUMPDEST POP POP CALLVALUE PUSH2 0x34D JUMPI DUP1 PUSH1 0x3 NOT CALLDATASIZE ADD SLT PUSH2 0x34D JUMPI PUSH1 0x20 SWAP1 PUSH2 0x58E PUSH2 0x571 PUSH2 0x192F JUMP JUMPDEST PUSH1 0x24 CALLDATALOAD SWAP1 PUSH2 0x588 PUSH2 0x583 DUP4 DUP4 CALLER PUSH2 0x1E49 JUMP JUMPDEST PUSH2 0x201F JUMP JUMPDEST CALLER PUSH2 0x1F41 JUMP JUMPDEST MLOAD PUSH1 0x1 DUP2 MSTORE RETURN JUMPDEST POP POP CALLVALUE PUSH2 0x34D JUMPI DUP2 PUSH1 0x3 NOT CALLDATASIZE ADD SLT PUSH2 0x34D JUMPI MLOAD SWAP1 DUP2 MSTORE PUSH1 0x20 SWAP1 RETURN JUMPDEST POP SWAP1 CALLVALUE PUSH2 0x27F JUMPI PUSH2 0x5C0 CALLDATASIZE PUSH2 0x1960 JUMP JUMPDEST SWAP1 SWAP2 SWAP3 PUSH1 0x0 DUP1 MLOAD PUSH1 0x20 PUSH2 0x20BE DUP4 CODECOPY DUP2 MLOAD SWAP2 MSTORE DUP7 MSTORE PUSH1 0x20 SWAP3 PUSH1 0x6 DUP5 MSTORE DUP2 DUP8 KECCAK256 CALLER DUP9 MSTORE DUP5 MSTORE PUSH1 0xFF DUP3 DUP9 KECCAK256 SLOAD AND DUP1 ISZERO PUSH2 0x729 JUMPI JUMPDEST ISZERO PUSH2 0x6DC JUMPI PUSH1 0x1 PUSH1 0x1 PUSH1 0xA0 SHL SUB DUP6 DUP2 AND SWAP6 SWAP1 DUP7 ISZERO PUSH2 0x6A2 JUMPI DUP3 AND SWAP7 DUP8 ISZERO PUSH2 0x66A JUMPI POP DUP4 DUP1 SWAP4 SWAP3 PUSH2 0x662 SWAP3 PUSH2 0x648 PUSH32 0x7B3CE50C216D2CCF9919C6B9F1BFB33F0350A33010F188750B4AF38E00448138 SWAP9 SWAP8 ISZERO ISZERO PUSH2 0x1EC1 JUMP JUMPDEST DUP9 DUP12 MSTORE DUP11 DUP8 MSTORE PUSH2 0x65D DUP4 DUP7 DUP14 KECCAK256 SLOAD LT ISZERO PUSH2 0x1EFE JUMP JUMPDEST PUSH2 0x1F41 JUMP JUMPDEST MLOAD SWAP1 DUP2 MSTORE LOG3 DUP1 RETURN JUMPDEST DUP4 MLOAD PUSH3 0x461BCD PUSH1 0xE5 SHL DUP2 MSTORE SWAP1 DUP2 ADD DUP7 SWAP1 MSTORE PUSH1 0x12 PUSH1 0x24 DUP3 ADD MSTORE PUSH18 0x496E76616C696420746F2061646472657373 PUSH1 0x70 SHL PUSH1 0x44 DUP3 ADD MSTORE PUSH1 0x64 SWAP1 REVERT JUMPDEST DUP4 MLOAD PUSH3 0x461BCD PUSH1 0xE5 SHL DUP2 MSTORE DUP1 DUP10 ADD DUP8 SWAP1 MSTORE PUSH1 0x14 PUSH1 0x24 DUP3 ADD MSTORE PUSH20 0x496E76616C69642066726F6D2061646472657373 PUSH1 0x60 SHL PUSH1 0x44 DUP3 ADD MSTORE PUSH1 0x64 SWAP1 REVERT JUMPDEST DUP2 MLOAD PUSH3 0x461BCD PUSH1 0xE5 SHL DUP2 MSTORE DUP1 DUP8 ADD DUP6 SWAP1 MSTORE PUSH1 0x21 PUSH1 0x24 DUP3 ADD MSTORE PUSH32 0x4E6F7420617574686F72697A656420636F6D706C69616E6365206F6666696365 PUSH1 0x44 DUP3 ADD MSTORE PUSH1 0x39 PUSH1 0xF9 SHL PUSH1 0x64 DUP3 ADD MSTORE PUSH1 0x84 SWAP1 REVERT JUMPDEST POP PUSH1 0x5 SLOAD PUSH1 0x1 PUSH1 0x1 PUSH1 0xA0 SHL SUB AND CALLER EQ PUSH2 0x5F1 JUMP JUMPDEST POP SWAP2 SWAP1 CALLVALUE PUSH2 0x34D JUMPI DUP1 PUSH1 0x3 NOT CALLDATASIZE ADD SLT PUSH2 0x34D JUMPI PUSH2 0x758 PUSH2 0x192F JUMP JUMPDEST SWAP1 PUSH1 0x24 CALLDATALOAD SWAP1 PUSH1 0x0 DUP1 MLOAD PUSH1 0x20 PUSH2 0x20DE DUP4 CODECOPY DUP2 MLOAD SWAP2 MSTORE DUP5 MSTORE PUSH1 0x20 SWAP5 PUSH1 0x6 DUP7 MSTORE DUP2 DUP6 KECCAK256 CALLER DUP7 MSTORE DUP7 MSTORE PUSH1 0xFF DUP3 DUP7 KECCAK256 SLOAD AND DUP1 ISZERO PUSH2 0x883 JUMPI JUMPDEST PUSH2 0x794 SWAP1 PUSH2 0x2064 JUMP JUMPDEST PUSH1 0x1 PUSH1 0x1 PUSH1 0xA0 SHL SUB DUP5 AND SWAP4 DUP5 ISZERO PUSH2 0x84F JUMPI PUSH2 0x7B0 DUP5 ISZERO ISZERO PUSH2 0x1EC1 JUMP JUMPDEST DUP5 DUP7 MSTORE DUP6 DUP8 MSTORE PUSH2 0x7C5 DUP5 DUP5 DUP9 KECCAK256 SLOAD LT ISZERO PUSH2 0x1EFE JUMP JUMPDEST DUP5 DUP7 MSTORE DUP6 DUP8 MSTORE DUP3 DUP7 KECCAK256 SLOAD SWAP2 DUP5 DUP4 LT PUSH2 0x81B JUMPI POP POP SWAP2 DUP5 SWAP6 SWAP2 DUP2 PUSH32 0xDDF252AD1BE2C89B69C2B068FC378DAA952BA7F163C4A11628F55A4DF523B3EF SWAP5 DUP7 DUP9 MSTORE DUP8 DUP6 MSTORE SUB DUP2 DUP8 KECCAK256 SSTORE DUP2 PUSH1 0x2 SLOAD SUB PUSH1 0x2 SSTORE MLOAD SWAP1 DUP2 MSTORE LOG3 DUP1 RETURN JUMPDEST DUP4 MLOAD PUSH4 0x391434E3 PUSH1 0xE2 SHL DUP2 MSTORE PUSH1 0x1 PUSH1 0x1 PUSH1 0xA0 SHL SUB SWAP1 SWAP3 AND SWAP1 DUP3 ADD SWAP1 DUP2 MSTORE PUSH1 0x20 DUP2 ADD DUP4 SWAP1 MSTORE PUSH1 0x40 DUP2 ADD DUP6 SWAP1 MSTORE DUP2 SWAP1 PUSH1 0x60 ADD SUB SWAP1 REVERT JUMPDEST POP DUP6 PUSH1 0x64 SWAP3 MLOAD SWAP2 PUSH3 0x461BCD PUSH1 0xE5 SHL DUP4 MSTORE DUP3 ADD MSTORE PUSH1 0xF PUSH1 0x24 DUP3 ADD MSTORE PUSH15 0x496E76616C69642061646472657373 PUSH1 0x88 SHL PUSH1 0x44 DUP3 ADD MSTORE REVERT JUMPDEST POP PUSH1 0x5 SLOAD PUSH1 0x1 PUSH1 0x1 PUSH1 0xA0 SHL SUB AND CALLER EQ PUSH2 0x78B JUMP JUMPDEST DUP4 CALLVALUE PUSH2 0x8C1 JUMPI PUSH1 0x20 CALLDATASIZE PUSH1 0x3 NOT ADD SLT PUSH2 0x8C1 JUMPI PUSH2 0x3FA PUSH2 0x8B4 PUSH2 0x192F JUMP JUMPDEST PUSH2 0x8BC PUSH2 0x1E05 JUMP JUMPDEST PUSH2 0x1CF4 JUMP JUMPDEST DUP1 REVERT JUMPDEST POP SWAP1 CALLVALUE PUSH2 0x27F JUMPI DUP3 PUSH1 0x3 NOT CALLDATASIZE ADD SLT PUSH2 0x27F JUMPI DUP1 MLOAD SWAP2 DUP4 DUP2 SLOAD SWAP1 PUSH2 0x8E6 DUP3 PUSH2 0x1995 JUMP JUMPDEST DUP1 DUP7 MSTORE SWAP3 PUSH1 0x1 SWAP3 DUP1 DUP5 AND SWAP1 DUP2 ISZERO PUSH2 0x983 JUMPI POP PUSH1 0x1 EQ PUSH2 0x927 JUMPI JUMPDEST PUSH2 0x923 DUP7 DUP7 PUSH2 0x911 DUP3 DUP12 SUB DUP4 PUSH2 0x19CF JUMP JUMPDEST MLOAD SWAP2 DUP3 SWAP2 PUSH1 0x20 DUP4 MSTORE PUSH1 0x20 DUP4 ADD SWAP1 PUSH2 0x18EF JUMP JUMPDEST SUB SWAP1 RETURN JUMPDEST DUP2 MSTORE SWAP5 POP PUSH32 0x8A35ACFBC15FF81A39AE7D344FD709F28E8600B4AA8C65C6B64BFE7FE36BD19B JUMPDEST DUP3 DUP7 LT PUSH2 0x96B JUMPI POP POP POP PUSH2 0x911 DUP3 PUSH1 0x20 PUSH2 0x923 SWAP6 DUP3 ADD ADD SWAP5 CODESIZE PUSH2 0x900 JUMP JUMPDEST DUP1 SLOAD PUSH1 0x20 DUP8 DUP8 ADD DUP2 ADD SWAP2 SWAP1 SWAP2 MSTORE SWAP1 SWAP6 ADD SWAP5 DUP2 ADD PUSH2 0x94D JUMP JUMPDEST SWAP1 POP PUSH2 0x923 SWAP8 POP DUP7 SWAP4 POP PUSH1 0x20 SWAP3 POP PUSH2 0x911 SWAP5 SWAP2 POP PUSH1 0xFF NOT AND DUP3 DUP5 ADD MSTORE ISZERO ISZERO PUSH1 0x5 SHL DUP3 ADD ADD SWAP5 CODESIZE PUSH2 0x900 JUMP JUMPDEST POP CALLVALUE PUSH2 0x27F JUMPI DUP2 PUSH1 0x3 NOT CALLDATASIZE ADD SLT PUSH2 0x27F JUMPI DUP2 PUSH1 0x20 SWAP4 PUSH1 0xFF SWAP3 PUSH2 0x9CE PUSH2 0x194A JUMP JUMPDEST SWAP1 CALLDATALOAD DUP3 MSTORE PUSH1 0x6 DUP7 MSTORE DUP3 DUP3 KECCAK256 PUSH1 0x1 PUSH1 0x1 PUSH1 0xA0 SHL SUB SWAP1 SWAP2 AND DUP3 MSTORE DUP6 MSTORE KECCAK256 SLOAD SWAP2 MLOAD SWAP2 AND ISZERO ISZERO DUP2 MSTORE RETURN JUMPDEST POP POP CALLVALUE PUSH2 0x34D JUMPI DUP2 PUSH1 0x3 NOT CALLDATASIZE ADD SLT PUSH2 0x34D JUMPI PUSH1 0x5 SLOAD SWAP1 MLOAD PUSH1 0x1 PUSH1 0x1 PUSH1 0xA0 SHL SUB SWAP1 SWAP2 AND DUP2 MSTORE PUSH1 0x20 SWAP1 RETURN JUMPDEST POP CALLVALUE PUSH2 0x27F JUMPI PUSH1 0x20 CALLDATASIZE PUSH1 0x3 NOT ADD SLT PUSH2 0x27F JUMPI PUSH2 0xA37 PUSH2 0x192F JUMP JUMPDEST SWAP2 PUSH2 0xA40 PUSH2 0x1E05 JUMP JUMPDEST PUSH1 0x1 PUSH1 0x1 PUSH1 0xA0 SHL SUB DUP4 AND ISZERO PUSH2 0xA59 JUMPI DUP4 PUSH2 0x3FA DUP5 PUSH2 0x1AA2 JUMP JUMPDEST SWAP1 PUSH1 0x20 PUSH1 0x64 SWAP3 MLOAD SWAP2 PUSH3 0x461BCD PUSH1 0xE5 SHL DUP4 MSTORE DUP3 ADD MSTORE PUSH1 0x15 PUSH1 0x24 DUP3 ADD MSTORE PUSH21 0x496E76616C6964206167656E742061646472657373 PUSH1 0x58 SHL PUSH1 0x44 DUP3 ADD MSTORE REVERT JUMPDEST DUP4 CALLVALUE PUSH2 0x8C1 JUMPI DUP1 PUSH1 0x3 NOT CALLDATASIZE ADD SLT PUSH2 0x8C1 JUMPI PUSH2 0xAAD PUSH2 0x1E05 JUMP JUMPDEST PUSH1 0x5 DUP1 SLOAD PUSH1 0x1 PUSH1 0x1 PUSH1 0xA0 SHL SUB NOT DUP2 AND SWAP1 SWAP2 SSTORE DUP2 SWAP1 PUSH1 0x1 PUSH1 0x1 PUSH1 0xA0 SHL SUB AND PUSH32 0x8BE0079C531659141344CD1FD0A4F28419497F9722A3DAAFE3B4186F6B6457E0 DUP3 DUP1 LOG3 DUP1 RETURN JUMPDEST POP POP CALLVALUE PUSH2 0x34D JUMPI PUSH1 0x20 CALLDATASIZE PUSH1 0x3 NOT ADD SLT PUSH2 0x34D JUMPI PUSH1 0x20 SWAP2 DUP2 SWAP1 PUSH1 0x1 PUSH1 0x1 PUSH1 0xA0 SHL SUB PUSH2 0xB19 PUSH2 0x192F JUMP JUMPDEST AND DUP2 MSTORE DUP1 DUP5 MSTORE KECCAK256 SLOAD SWAP1 MLOAD SWAP1 DUP2 MSTORE RETURN JUMPDEST POP SWAP2 SWAP1 CALLVALUE PUSH2 0x34D JUMPI PUSH1 0x3 NOT PUSH1 0x20 CALLDATASIZE DUP3 ADD DUP2 SGT PUSH2 0xF93 JUMPI DUP5 CALLDATALOAD SWAP1 PUSH8 0xFFFFFFFFFFFFFFFF SWAP3 DUP4 DUP4 GT PUSH2 0xF8F JUMPI PUSH1 0xA0 SWAP1 DUP4 CALLDATASIZE SUB ADD SLT PUSH2 0xF8B JUMPI DUP4 MLOAD PUSH1 0xA0 DUP2 ADD DUP2 DUP2 LT DUP6 DUP3 GT OR PUSH2 0xF78 JUMPI DUP6 MSTORE DUP3 DUP8 ADD CALLDATALOAD DUP5 DUP2 GT PUSH2 0xF74 JUMPI PUSH2 0xB8B SWAP1 DUP9 CALLDATASIZE SWAP2 DUP7 ADD ADD PUSH2 0x1A07 JUMP JUMPDEST DUP2 MSTORE DUP2 DUP2 ADD SWAP3 PUSH1 0x24 SWAP2 DUP3 DUP3 ADD CALLDATALOAD DUP6 MSTORE DUP7 DUP2 ADD SWAP1 PUSH1 0x44 DUP4 ADD CALLDATALOAD DUP3 MSTORE PUSH1 0x64 DUP4 ADD CALLDATALOAD DUP8 DUP2 GT PUSH2 0xF70 JUMPI PUSH2 0xBC2 PUSH1 0x84 SWAP2 DUP13 CALLDATASIZE SWAP2 DUP8 ADD ADD PUSH2 0x1A07 JUMP JUMPDEST SWAP4 PUSH1 0x60 DUP4 ADD SWAP5 DUP6 MSTORE ADD CALLDATALOAD SWAP8 DUP9 ISZERO ISZERO DUP10 SUB PUSH2 0xF70 JUMPI PUSH1 0x80 DUP3 ADD SWAP9 DUP10 MSTORE PUSH2 0xBE5 PUSH2 0x1E05 JUMP JUMPDEST DUP2 MLOAD MLOAD ISZERO PUSH2 0xF2F JUMPI DUP7 MLOAD ISZERO PUSH2 0xEF5 JUMPI DUP3 MLOAD ISZERO PUSH2 0xEBD JUMPI POP MLOAD SWAP5 DUP6 MLOAD DUP8 DUP2 GT PUSH2 0xEAB JUMPI DUP1 PUSH2 0xC13 PUSH1 0xD SLOAD PUSH2 0x1995 JUMP JUMPDEST SWAP8 PUSH1 0x1F SWAP9 DUP10 DUP2 GT PUSH2 0xE40 JUMPI JUMPDEST POP DUP8 SWAP1 DUP10 DUP4 GT PUSH1 0x1 EQ PUSH2 0xDBD JUMPI DUP13 SWAP3 PUSH2 0xDB2 JUMPI JUMPDEST POP POP DUP2 PUSH1 0x1 SHL SWAP2 PUSH1 0x0 NOT SWAP1 PUSH1 0x3 SHL SHR NOT AND OR PUSH1 0xD SSTORE JUMPDEST MLOAD PUSH1 0xE SSTORE MLOAD PUSH1 0xF SSTORE MLOAD SWAP7 DUP8 MLOAD SWAP5 DUP6 GT PUSH2 0xDA1 JUMPI POP POP PUSH2 0xC69 PUSH1 0x10 SLOAD PUSH2 0x1995 JUMP JUMPDEST DUP3 DUP2 GT PUSH2 0xD42 JUMPI JUMPDEST POP DUP1 SWAP2 DUP4 GT PUSH1 0x1 EQ PUSH2 0xCBE JUMPI POP DUP4 SWAP5 DUP3 SWAP4 SWAP5 SWAP3 PUSH2 0xCB3 JUMPI JUMPDEST POP POP DUP2 PUSH1 0x1 SHL SWAP2 PUSH1 0x0 NOT SWAP1 PUSH1 0x3 SHL SHR NOT AND OR PUSH1 0x10 SSTORE JUMPDEST MLOAD ISZERO ISZERO PUSH1 0xFF DUP1 NOT PUSH1 0x11 SLOAD AND SWAP2 AND OR PUSH1 0x11 SSTORE DUP1 RETURN JUMPDEST ADD MLOAD SWAP1 POP CODESIZE DUP1 PUSH2 0xC89 JUMP JUMPDEST PUSH1 0x10 DUP6 MSTORE PUSH1 0x1F NOT DUP4 AND SWAP6 PUSH32 0x1B6847DC741A1B0CD08D278845F9D819D87B734759AFB55FE2DE5CB82A9AE672 SWAP3 SWAP2 DUP7 SWAP1 JUMPDEST DUP9 DUP3 LT PUSH2 0xD2A JUMPI POP POP DUP4 PUSH1 0x1 SWAP6 SWAP7 SWAP8 LT PUSH2 0xD11 JUMPI JUMPDEST POP POP POP DUP2 SHL ADD PUSH1 0x10 SSTORE PUSH2 0xC9F JUMP JUMPDEST ADD MLOAD PUSH1 0x0 NOT PUSH1 0xF8 DUP5 PUSH1 0x3 SHL AND SHR NOT AND SWAP1 SSTORE CODESIZE DUP1 DUP1 PUSH2 0xD03 JUMP JUMPDEST DUP1 PUSH1 0x1 DUP6 SWAP7 DUP3 SWAP5 SWAP7 DUP7 ADD MLOAD DUP2 SSTORE ADD SWAP6 ADD SWAP4 ADD SWAP1 PUSH2 0xCEE JUMP JUMPDEST PUSH1 0x10 DUP7 MSTORE PUSH32 0x1B6847DC741A1B0CD08D278845F9D819D87B734759AFB55FE2DE5CB82A9AE672 DUP4 DUP1 DUP7 ADD PUSH1 0x5 SHR DUP3 ADD SWAP3 DUP5 DUP8 LT PUSH2 0xD98 JUMPI JUMPDEST ADD PUSH1 0x5 SHR ADD SWAP1 JUMPDEST DUP2 DUP2 LT PUSH2 0xD8D JUMPI POP PUSH2 0xC71 JUMP JUMPDEST DUP7 DUP2 SSTORE PUSH1 0x1 ADD PUSH2 0xD80 JUMP JUMPDEST SWAP3 POP DUP2 SWAP3 PUSH2 0xD79 JUMP JUMPDEST PUSH4 0x4E487B71 PUSH1 0xE0 SHL DUP8 MSTORE PUSH1 0x41 SWAP1 MSTORE DUP6 REVERT JUMPDEST ADD MLOAD SWAP1 POP CODESIZE DUP1 PUSH2 0xC33 JUMP JUMPDEST PUSH1 0xD DUP14 MSTORE PUSH32 0xD7B6990105719101DABEB77144F2A3385C8033ACD3AF97E9423A695E81AD1EB5 SWAP3 POP PUSH1 0x1F NOT DUP5 AND DUP14 JUMPDEST DUP11 DUP3 DUP3 LT PUSH2 0xE2A JUMPI POP POP SWAP1 DUP5 PUSH1 0x1 SWAP6 SWAP5 SWAP4 SWAP3 LT PUSH2 0xE11 JUMPI JUMPDEST POP POP POP DUP2 SHL ADD PUSH1 0xD SSTORE PUSH2 0xC49 JUMP JUMPDEST ADD MLOAD PUSH1 0x0 NOT PUSH1 0xF8 DUP5 PUSH1 0x3 SHL AND SHR NOT AND SWAP1 SSTORE CODESIZE DUP1 DUP1 PUSH2 0xE03 JUMP JUMPDEST PUSH1 0x1 DUP6 SWAP7 DUP3 SWAP4 SWAP7 DUP7 ADD MLOAD DUP2 SSTORE ADD SWAP6 ADD SWAP4 ADD PUSH2 0xDEB JUMP JUMPDEST SWAP1 SWAP2 POP PUSH1 0xD DUP13 MSTORE PUSH32 0xD7B6990105719101DABEB77144F2A3385C8033ACD3AF97E9423A695E81AD1EB5 DUP10 DUP1 DUP6 ADD PUSH1 0x5 SHR DUP3 ADD SWAP3 DUP11 DUP7 LT PUSH2 0xEA2 JUMPI JUMPDEST SWAP1 DUP6 SWAP5 SWAP4 SWAP3 SWAP2 ADD PUSH1 0x5 SHR ADD SWAP1 JUMPDEST DUP2 DUP2 LT PUSH2 0xE94 JUMPI POP PUSH2 0xC1F JUMP JUMPDEST DUP14 DUP2 SSTORE DUP5 SWAP4 POP PUSH1 0x1 ADD PUSH2 0xE87 JUMP JUMPDEST SWAP3 POP DUP2 SWAP3 PUSH2 0xE7A JUMP JUMPDEST PUSH4 0x4E487B71 PUSH1 0xE0 SHL DUP11 MSTORE PUSH1 0x41 DUP12 MSTORE DUP5 DUP11 REVERT JUMPDEST MLOAD PUSH3 0x461BCD PUSH1 0xE5 SHL DUP2 MSTORE DUP1 DUP12 ADD DUP7 SWAP1 MSTORE PUSH1 0x14 DUP2 DUP7 ADD MSTORE PUSH20 0x496E76616C696420746F74616C20736861726573 PUSH1 0x60 SHL PUSH1 0x44 DUP3 ADD MSTORE PUSH1 0x64 SWAP1 REVERT JUMPDEST MLOAD PUSH3 0x461BCD PUSH1 0xE5 SHL DUP2 MSTORE DUP1 DUP12 ADD DUP7 SWAP1 MSTORE PUSH1 0x16 DUP2 DUP7 ADD MSTORE PUSH22 0x496E76616C69642070726F70657274792076616C7565 PUSH1 0x50 SHL PUSH1 0x44 DUP3 ADD MSTORE PUSH1 0x64 SWAP1 REVERT JUMPDEST MLOAD PUSH3 0x461BCD PUSH1 0xE5 SHL DUP2 MSTORE DUP1 DUP12 ADD DUP7 SWAP1 MSTORE PUSH1 0x18 DUP2 DUP7 ADD MSTORE PUSH32 0x496E76616C69642070726F706572747920616464726573730000000000000000 PUSH1 0x44 DUP3 ADD MSTORE PUSH1 0x64 SWAP1 REVERT JUMPDEST DUP10 DUP1 REVERT JUMPDEST DUP7 DUP1 REVERT JUMPDEST PUSH4 0x4E487B71 PUSH1 0xE0 SHL DUP8 MSTORE PUSH1 0x41 DUP9 MSTORE PUSH1 0x24 DUP8 REVERT JUMPDEST DUP5 DUP1 REVERT JUMPDEST DUP6 DUP1 REVERT JUMPDEST DUP4 DUP1 REVERT JUMPDEST POP POP CALLVALUE PUSH2 0x34D JUMPI DUP2 PUSH1 0x3 NOT CALLDATASIZE ADD SLT PUSH2 0x34D JUMPI PUSH1 0x8 SLOAD SWAP1 MLOAD PUSH1 0x1 PUSH1 0x1 PUSH1 0xA0 SHL SUB SWAP1 SWAP2 AND DUP2 MSTORE PUSH1 0x20 SWAP1 RETURN JUMPDEST POP POP CALLVALUE PUSH2 0x34D JUMPI DUP2 PUSH1 0x3 NOT CALLDATASIZE ADD SLT PUSH2 0x34D JUMPI DUP1 MLOAD SWAP1 DUP3 PUSH1 0xD SLOAD SWAP1 DUP4 PUSH2 0xFE4 DUP4 PUSH2 0x1995 JUMP JUMPDEST SWAP2 DUP3 DUP3 MSTORE PUSH1 0x1 SWAP4 DUP5 DUP2 AND SWAP1 DUP2 PUSH1 0x0 EQ PUSH2 0x1172 JUMPI POP PUSH1 0x1 EQ PUSH2 0x1114 JUMPI JUMPDEST PUSH2 0x100C SWAP3 POP SUB DUP5 PUSH2 0x19CF JUMP JUMPDEST PUSH1 0xE SLOAD SWAP1 PUSH1 0xF SLOAD SWAP1 DUP4 MLOAD SWAP6 DUP1 SWAP2 PUSH1 0x10 SLOAD SWAP2 PUSH2 0x1026 DUP4 PUSH2 0x1995 JUMP JUMPDEST DUP1 DUP11 MSTORE SWAP3 DUP3 DUP2 AND SWAP1 DUP2 ISZERO PUSH2 0x10EA JUMPI POP PUSH1 0x1 EQ PUSH2 0x1091 JUMPI JUMPDEST POP POP POP SWAP5 PUSH2 0x1085 SWAP3 SWAP2 PUSH2 0x1055 DUP3 PUSH2 0x106F SWAP9 SUB DUP4 PUSH2 0x19CF JUMP JUMPDEST PUSH1 0xFF PUSH1 0x11 SLOAD AND SWAP5 DUP1 MLOAD SWAP8 DUP9 SWAP8 PUSH1 0xA0 DUP10 MSTORE PUSH1 0xA0 DUP10 ADD SWAP1 PUSH2 0x18EF JUMP JUMPDEST SWAP4 PUSH1 0x20 DUP9 ADD MSTORE DUP7 ADD MSTORE DUP5 DUP3 SUB PUSH1 0x60 DUP7 ADD MSTORE PUSH2 0x18EF JUMP JUMPDEST SWAP1 ISZERO ISZERO PUSH1 0x80 DUP4 ADD MSTORE SUB SWAP1 RETURN JUMPDEST SWAP3 POP PUSH1 0x10 DUP4 MSTORE PUSH32 0x1B6847DC741A1B0CD08D278845F9D819D87B734759AFB55FE2DE5CB82A9AE672 JUMPDEST DUP3 DUP5 LT PUSH2 0x10D2 JUMPI POP POP POP DUP6 ADD PUSH1 0x20 ADD DUP2 PUSH2 0x1055 DUP8 PUSH2 0x103D JUMP JUMPDEST DUP1 SLOAD PUSH1 0x20 DUP6 DUP12 ADD DUP2 ADD SWAP2 SWAP1 SWAP2 MSTORE SWAP1 SWAP4 ADD SWAP3 DUP2 ADD PUSH2 0x10B9 JUMP JUMPDEST PUSH1 0xFF NOT AND PUSH1 0x20 DUP1 DUP13 ADD SWAP2 SWAP1 SWAP2 MSTORE SWAP4 ISZERO ISZERO PUSH1 0x5 SHL DUP11 ADD SWAP1 SWAP4 ADD SWAP4 POP DUP5 SWAP3 POP PUSH2 0x1055 SWAP2 POP DUP9 SWAP1 POP PUSH2 0x103D JUMP JUMPDEST POP PUSH1 0xD DUP7 MSTORE SWAP1 DUP6 SWAP1 DUP4 PUSH32 0xD7B6990105719101DABEB77144F2A3385C8033ACD3AF97E9423A695E81AD1EB5 JUMPDEST DUP3 DUP5 LT PUSH2 0x1158 JUMPI POP POP POP SWAP1 PUSH1 0x20 PUSH2 0x100C SWAP3 DUP3 ADD ADD PUSH2 0x1000 JUMP JUMPDEST PUSH1 0x20 SWAP3 SWAP5 POP DUP1 SLOAD DUP4 DUP6 DUP11 ADD ADD MSTORE ADD SWAP2 ADD SWAP1 SWAP2 DUP4 DUP7 SWAP4 PUSH2 0x113F JUMP JUMPDEST PUSH1 0x20 SWAP3 POP PUSH2 0x100C SWAP5 SWAP2 POP PUSH1 0xFF NOT AND DUP3 DUP5 ADD MSTORE ISZERO ISZERO PUSH1 0x5 SHL DUP3 ADD ADD PUSH2 0x1000 JUMP JUMPDEST POP SWAP1 CALLVALUE PUSH2 0x27F JUMPI DUP1 PUSH1 0x3 NOT CALLDATASIZE ADD SLT PUSH2 0x27F JUMPI PUSH2 0x11AB PUSH2 0x192F JUMP JUMPDEST SWAP2 PUSH1 0x24 SWAP2 DUP3 CALLDATALOAD SWAP2 PUSH1 0x0 DUP1 MLOAD PUSH1 0x20 PUSH2 0x20DE DUP4 CODECOPY DUP2 MLOAD SWAP2 MSTORE DUP7 MSTORE PUSH1 0x20 SWAP4 PUSH1 0x6 DUP6 MSTORE DUP3 DUP8 KECCAK256 CALLER DUP9 MSTORE DUP6 MSTORE PUSH1 0xFF DUP4 DUP9 KECCAK256 SLOAD AND DUP1 ISZERO PUSH2 0x13D7 JUMPI JUMPDEST PUSH2 0x11E9 SWAP1 PUSH2 0x2064 JUMP JUMPDEST PUSH1 0x1 PUSH1 0x1 PUSH1 0xA0 SHL SUB SWAP6 DUP7 AND SWAP6 DUP7 ISZERO PUSH2 0x13A2 JUMPI PUSH2 0x1206 DUP6 ISZERO ISZERO PUSH2 0x1EC1 JUMP JUMPDEST DUP2 DUP7 DUP3 PUSH1 0x7 SLOAD AND DUP7 MLOAD SWAP3 DUP4 DUP1 SWAP3 PUSH4 0xB9209E33 PUSH1 0xE0 SHL DUP3 MSTORE DUP13 DUP10 DUP4 ADD MSTORE GAS STATICCALL SWAP1 DUP2 ISZERO PUSH2 0x1398 JUMPI DUP10 SWAP2 PUSH2 0x137B JUMPI JUMPDEST POP ISZERO PUSH2 0x1341 JUMPI DUP6 PUSH1 0x64 SWAP2 PUSH1 0x8 SLOAD AND DUP6 MLOAD SWAP3 DUP4 DUP1 SWAP3 PUSH4 0x72331C73 PUSH1 0xE1 SHL DUP3 MSTORE DUP13 DUP9 DUP4 ADD MSTORE DUP12 DUP8 DUP4 ADD MSTORE DUP10 PUSH1 0x44 DUP4 ADD MSTORE GAS STATICCALL SWAP1 DUP2 ISZERO PUSH2 0x1337 JUMPI DUP9 SWAP2 PUSH2 0x130A JUMPI JUMPDEST POP ISZERO PUSH2 0x12D5 JUMPI PUSH1 0x2 SLOAD SWAP2 DUP5 DUP4 ADD DUP1 SWAP4 GT PUSH2 0x12C4 JUMPI POP POP PUSH1 0x2 SSTORE DUP4 DUP6 MSTORE DUP5 DUP4 MSTORE DUP1 DUP6 KECCAK256 DUP1 SLOAD DUP4 ADD SWAP1 SSTORE MLOAD SWAP1 DUP2 MSTORE DUP4 SWAP2 PUSH32 0xDDF252AD1BE2C89B69C2B068FC378DAA952BA7F163C4A11628F55A4DF523B3EF SWAP2 LOG3 DUP1 RETURN JUMPDEST PUSH4 0x4E487B71 PUSH1 0xE0 SHL DUP9 MSTORE PUSH1 0x11 SWAP1 MSTORE DUP7 REVERT JUMPDEST PUSH1 0x12 SWAP1 DUP6 PUSH1 0x64 SWAP5 MLOAD SWAP4 PUSH3 0x461BCD PUSH1 0xE5 SHL DUP6 MSTORE DUP5 ADD MSTORE DUP3 ADD MSTORE PUSH18 0x135A5B9D081B9BDD0818DBDB5C1B1A585B9D PUSH1 0x72 SHL PUSH1 0x44 DUP3 ADD MSTORE REVERT JUMPDEST PUSH2 0x132A SWAP2 POP DUP7 RETURNDATASIZE DUP9 GT PUSH2 0x1330 JUMPI JUMPDEST PUSH2 0x1322 DUP2 DUP4 PUSH2 0x19CF JUMP JUMPDEST DUP2 ADD SWAP1 PUSH2 0x1E31 JUMP JUMPDEST CODESIZE PUSH2 0x1270 JUMP JUMPDEST POP RETURNDATASIZE PUSH2 0x1318 JUMP JUMPDEST DUP5 MLOAD RETURNDATASIZE DUP11 DUP3 RETURNDATACOPY RETURNDATASIZE SWAP1 REVERT JUMPDEST POP PUSH1 0x16 SWAP1 DUP6 PUSH1 0x64 SWAP5 MLOAD SWAP4 PUSH3 0x461BCD PUSH1 0xE5 SHL DUP6 MSTORE DUP5 ADD MSTORE DUP3 ADD MSTORE PUSH22 0x149958DA5C1A595B9D081B9BDD081D995C9A599A5959 PUSH1 0x52 SHL PUSH1 0x44 DUP3 ADD MSTORE REVERT JUMPDEST PUSH2 0x1392 SWAP2 POP DUP8 RETURNDATASIZE DUP10 GT PUSH2 0x1330 JUMPI PUSH2 0x1322 DUP2 DUP4 PUSH2 0x19CF JUMP JUMPDEST CODESIZE PUSH2 0x1232 JUMP JUMPDEST DUP6 MLOAD RETURNDATASIZE DUP12 DUP3 RETURNDATACOPY RETURNDATASIZE SWAP1 REVERT JUMPDEST POP PUSH1 0x11 SWAP1 DUP6 PUSH1 0x64 SWAP5 MLOAD SWAP4 PUSH3 0x461BCD PUSH1 0xE5 SHL DUP6 MSTORE DUP5 ADD MSTORE DUP3 ADD MSTORE PUSH17 0x125B9D985B1A59081C9958DA5C1A595B9D PUSH1 0x7A SHL PUSH1 0x44 DUP3 ADD MSTORE REVERT JUMPDEST POP PUSH1 0x5 SLOAD PUSH1 0x1 PUSH1 0x1 PUSH1 0xA0 SHL SUB AND CALLER EQ PUSH2 0x11E0 JUMP JUMPDEST POP SWAP1 CALLVALUE PUSH2 0x27F JUMPI PUSH1 0x20 CALLDATASIZE PUSH1 0x3 NOT ADD SLT PUSH2 0x27F JUMPI PUSH1 0x1 PUSH1 0x1 PUSH1 0xA0 SHL SUB PUSH2 0x140E PUSH2 0x192F JUMP JUMPDEST AND SWAP2 DUP3 ISZERO PUSH2 0x145A JUMPI POP CALLER DUP1 DUP5 MSTORE PUSH1 0x9 PUSH1 0x20 MSTORE SWAP1 DUP4 KECCAK256 DUP1 SLOAD PUSH1 0x1 PUSH1 0x1 PUSH1 0xA0 SHL SUB NOT AND DUP4 OR SWAP1 SSTORE PUSH32 0xFA8B688967B8AB251458B0516CD38D119AF52E289688A810D13BCD39CC379E49 DUP4 DUP1 LOG3 DUP1 RETURN JUMPDEST PUSH1 0x20 PUSH1 0x64 SWAP3 MLOAD SWAP2 PUSH3 0x461BCD PUSH1 0xE5 SHL DUP4 MSTORE DUP3 ADD MSTORE PUSH1 0x12 PUSH1 0x24 DUP3 ADD MSTORE PUSH18 0x125B9D985B1A59081BDB98DA185A5B881251 PUSH1 0x72 SHL PUSH1 0x44 DUP3 ADD MSTORE REVERT JUMPDEST POP SWAP2 SWAP1 CALLVALUE PUSH2 0x34D JUMPI DUP1 PUSH1 0x3 NOT CALLDATASIZE ADD SLT PUSH2 0x34D JUMPI PUSH2 0x14AC PUSH2 0x194A JUMP JUMPDEST SWAP1 CALLER PUSH1 0x1 PUSH1 0x1 PUSH1 0xA0 SHL SUB DUP4 AND SUB PUSH2 0x14C9 JUMPI POP PUSH2 0x3FA SWAP2 SWAP3 CALLDATALOAD PUSH2 0x1D8E JUMP JUMPDEST MLOAD PUSH4 0x334BD919 PUSH1 0xE1 SHL DUP2 MSTORE DUP4 SWAP1 REVERT JUMPDEST POP POP CALLVALUE PUSH2 0x34D JUMPI DUP2 PUSH1 0x3 NOT CALLDATASIZE ADD SLT PUSH2 0x34D JUMPI PUSH1 0x20 SWAP1 PUSH1 0xFF PUSH1 0xC SLOAD AND SWAP1 MLOAD SWAP1 DUP2 MSTORE RETURN JUMPDEST POP SWAP1 CALLVALUE PUSH2 0x27F JUMPI DUP1 PUSH1 0x3 NOT CALLDATASIZE ADD SLT PUSH2 0x27F JUMPI PUSH2 0x3FA SWAP2 CALLDATALOAD PUSH2 0x151E PUSH1 0x1 PUSH2 0x3E3 PUSH2 0x194A JUMP JUMPDEST PUSH2 0x1BDF JUMP JUMPDEST POP POP CALLVALUE PUSH2 0x34D JUMPI DUP2 PUSH1 0x3 NOT CALLDATASIZE ADD SLT PUSH2 0x34D JUMPI PUSH1 0x20 SWAP1 PUSH1 0xE SLOAD SWAP1 MLOAD SWAP1 DUP2 MSTORE RETURN JUMPDEST DUP4 CALLVALUE PUSH2 0x8C1 JUMPI PUSH1 0x20 CALLDATASIZE PUSH1 0x3 NOT ADD SLT PUSH2 0x8C1 JUMPI PUSH2 0x3FA PUSH2 0x155F PUSH2 0x192F JUMP JUMPDEST PUSH2 0x1567 PUSH2 0x1E05 JUMP JUMPDEST PUSH2 0x1C5A JUMP JUMPDEST POP CALLVALUE PUSH2 0x27F JUMPI PUSH1 0x20 CALLDATASIZE PUSH1 0x3 NOT ADD SLT PUSH2 0x27F JUMPI DUP2 PUSH1 0x20 SWAP4 PUSH1 0x1 SWAP3 CALLDATALOAD DUP2 MSTORE PUSH1 0x6 DUP6 MSTORE KECCAK256 ADD SLOAD SWAP1 MLOAD SWAP1 DUP2 MSTORE RETURN JUMPDEST POP DUP3 SWAP1 CALLVALUE PUSH2 0x34D JUMPI PUSH2 0x15A7 CALLDATASIZE PUSH2 0x1960 JUMP JUMPDEST SWAP4 SWAP1 SWAP3 PUSH2 0x15B8 PUSH2 0x583 DUP7 DUP7 DUP7 PUSH2 0x1E49 JUMP JUMPDEST PUSH1 0x1 PUSH1 0x1 PUSH1 0xA0 SHL SUB DUP4 AND DUP1 DUP4 MSTORE PUSH1 0x1 PUSH1 0x20 SWAP1 DUP2 MSTORE DUP8 DUP5 KECCAK256 CALLER DUP6 MSTORE SWAP1 MSTORE DUP7 DUP4 KECCAK256 SLOAD SWAP2 PUSH1 0x0 NOT DUP4 LT PUSH2 0x15F1 JUMPI JUMPDEST PUSH1 0x20 DUP9 PUSH2 0x58E DUP10 DUP10 DUP10 PUSH2 0x1F41 JUMP JUMPDEST DUP7 DUP4 LT PUSH2 0x1659 JUMPI DUP2 ISZERO PUSH2 0x1642 JUMPI CALLER ISZERO PUSH2 0x162B JUMPI POP DUP3 MSTORE PUSH1 0x1 PUSH1 0x20 SWAP1 DUP2 MSTORE DUP7 DUP4 KECCAK256 CALLER DUP5 MSTORE DUP2 MSTORE SWAP2 DUP7 SWAP1 KECCAK256 SWAP1 DUP6 SWAP1 SUB SWAP1 SSTORE DUP3 SWAP1 PUSH2 0x58E DUP8 PUSH2 0x15E3 JUMP JUMPDEST DUP8 MLOAD PUSH4 0x4A1406B1 PUSH1 0xE1 SHL DUP2 MSTORE SWAP1 DUP2 ADD DUP5 SWAP1 MSTORE PUSH1 0x24 SWAP1 REVERT JUMPDEST DUP8 MLOAD PUSH4 0xE602DF05 PUSH1 0xE0 SHL DUP2 MSTORE SWAP1 DUP2 ADD DUP5 SWAP1 MSTORE PUSH1 0x24 SWAP1 REVERT JUMPDEST DUP8 MLOAD PUSH4 0x7DC7A0D9 PUSH1 0xE1 SHL DUP2 MSTORE CALLER SWAP2 DUP2 ADD SWAP2 DUP3 MSTORE PUSH1 0x20 DUP3 ADD SWAP4 SWAP1 SWAP4 MSTORE PUSH1 0x40 DUP2 ADD DUP8 SWAP1 MSTORE DUP3 SWAP2 POP PUSH1 0x60 ADD SUB SWAP1 REVERT JUMPDEST POP POP CALLVALUE PUSH2 0x34D JUMPI DUP2 PUSH1 0x3 NOT CALLDATASIZE ADD SLT PUSH2 0x34D JUMPI PUSH1 0x20 SWAP1 MLOAD PUSH1 0x0 DUP1 MLOAD PUSH1 0x20 PUSH2 0x20DE DUP4 CODECOPY DUP2 MLOAD SWAP2 MSTORE DUP2 MSTORE RETURN JUMPDEST POP POP CALLVALUE PUSH2 0x34D JUMPI DUP2 PUSH1 0x3 NOT CALLDATASIZE ADD SLT PUSH2 0x34D JUMPI PUSH1 0x20 SWAP1 PUSH1 0x2 SLOAD SWAP1 MLOAD SWAP1 DUP2 MSTORE RETURN JUMPDEST POP POP CALLVALUE PUSH2 0x34D JUMPI DUP2 PUSH1 0x3 NOT CALLDATASIZE ADD SLT PUSH2 0x34D JUMPI PUSH1 0x7 SLOAD SWAP1 MLOAD PUSH1 0x1 PUSH1 0x1 PUSH1 0xA0 SHL SUB SWAP1 SWAP2 AND DUP2 MSTORE PUSH1 0x20 SWAP1 RETURN JUMPDEST POP CALLVALUE PUSH2 0x27F JUMPI DUP2 PUSH1 0x3 NOT CALLDATASIZE ADD SLT PUSH2 0x27F JUMPI PUSH2 0x170F PUSH2 0x192F JUMP JUMPDEST PUSH1 0x24 CALLDATALOAD SWAP1 CALLER ISZERO PUSH2 0x1788 JUMPI PUSH1 0x1 PUSH1 0x1 PUSH1 0xA0 SHL SUB AND SWAP2 DUP3 ISZERO PUSH2 0x1771 JUMPI POP DUP1 DUP4 PUSH1 0x20 SWAP6 CALLER DUP2 MSTORE PUSH1 0x1 DUP8 MSTORE DUP2 DUP2 KECCAK256 DUP6 DUP3 MSTORE DUP8 MSTORE KECCAK256 SSTORE DUP3 MLOAD SWAP1 DUP2 MSTORE PUSH32 0x8C5BE1E5EBEC7D5BD14F71427D1E84F3DD0314C0F7B2291E5B200AC8C7C3B925 DUP5 CALLER SWAP3 LOG3 MLOAD PUSH1 0x1 DUP2 MSTORE RETURN JUMPDEST DUP4 MLOAD PUSH4 0x4A1406B1 PUSH1 0xE1 SHL DUP2 MSTORE SWAP1 DUP2 ADD DUP6 SWAP1 MSTORE PUSH1 0x24 SWAP1 REVERT JUMPDEST DUP4 MLOAD PUSH4 0xE602DF05 PUSH1 0xE0 SHL DUP2 MSTORE DUP1 DUP5 ADD DUP7 SWAP1 MSTORE PUSH1 0x24 SWAP1 REVERT JUMPDEST POP POP CALLVALUE PUSH2 0x34D JUMPI DUP2 PUSH1 0x3 NOT CALLDATASIZE ADD SLT PUSH2 0x34D JUMPI DUP1 MLOAD SWAP1 DUP3 PUSH1 0x3 SLOAD PUSH2 0x17C1 DUP2 PUSH2 0x1995 JUMP JUMPDEST DUP1 DUP6 MSTORE SWAP2 PUSH1 0x1 SWAP2 DUP1 DUP4 AND SWAP1 DUP2 ISZERO PUSH2 0x184A JUMPI POP PUSH1 0x1 EQ PUSH2 0x17ED JUMPI JUMPDEST POP POP POP PUSH2 0x911 DUP3 PUSH2 0x923 SWAP5 SUB DUP4 PUSH2 0x19CF JUMP JUMPDEST SWAP5 POP PUSH1 0x3 DUP6 MSTORE PUSH32 0xC2575A0E9E593C00F959F8C92F12DB2869C3395A3B0502D05E2516446F71F85B JUMPDEST DUP3 DUP7 LT PUSH2 0x1832 JUMPI POP POP POP PUSH2 0x911 DUP3 PUSH1 0x20 PUSH2 0x923 SWAP6 DUP3 ADD ADD SWAP5 PUSH2 0x17DB JUMP JUMPDEST DUP1 SLOAD PUSH1 0x20 DUP8 DUP8 ADD DUP2 ADD SWAP2 SWAP1 SWAP2 MSTORE SWAP1 SWAP6 ADD SWAP5 DUP2 ADD PUSH2 0x1815 JUMP JUMPDEST PUSH2 0x923 SWAP8 POP DUP7 SWAP4 POP PUSH1 0x20 SWAP3 POP PUSH2 0x911 SWAP5 SWAP2 POP PUSH1 0xFF NOT AND DUP3 DUP5 ADD MSTORE ISZERO ISZERO PUSH1 0x5 SHL DUP3 ADD ADD SWAP5 PUSH2 0x17DB JUMP JUMPDEST POP POP CALLVALUE PUSH2 0x34D JUMPI DUP2 PUSH1 0x3 NOT CALLDATASIZE ADD SLT PUSH2 0x34D JUMPI PUSH1 0x20 SWAP1 MLOAD PUSH1 0x0 DUP1 MLOAD PUSH1 0x20 PUSH2 0x20BE DUP4 CODECOPY DUP2 MLOAD SWAP2 MSTORE DUP2 MSTORE RETURN JUMPDEST SWAP3 POP POP CALLVALUE PUSH2 0x27F JUMPI PUSH1 0x20 CALLDATASIZE PUSH1 0x3 NOT ADD SLT PUSH2 0x27F JUMPI CALLDATALOAD PUSH4 0xFFFFFFFF PUSH1 0xE0 SHL DUP2 AND DUP1 SWAP2 SUB PUSH2 0x27F JUMPI PUSH1 0x20 SWAP3 POP PUSH4 0x7965DB0B PUSH1 0xE0 SHL DUP2 EQ SWAP1 DUP2 ISZERO PUSH2 0x18DE JUMPI JUMPDEST POP ISZERO ISZERO DUP2 MSTORE RETURN JUMPDEST PUSH4 0x1FFC9A7 PUSH1 0xE0 SHL EQ SWAP1 POP CODESIZE PUSH2 0x18D7 JUMP JUMPDEST SWAP2 SWAP1 DUP3 MLOAD SWAP3 DUP4 DUP3 MSTORE PUSH1 0x0 JUMPDEST DUP5 DUP2 LT PUSH2 0x191B JUMPI POP POP DUP3 PUSH1 0x0 PUSH1 0x20 DUP1 SWAP5 SWAP6 DUP5 ADD ADD MSTORE PUSH1 0x1F DUP1 NOT SWAP2 ADD AND ADD ADD SWAP1 JUMP JUMPDEST PUSH1 0x20 DUP2 DUP4 ADD DUP2 ADD MLOAD DUP5 DUP4 ADD DUP3 ADD MSTORE ADD PUSH2 0x18FA JUMP JUMPDEST PUSH1 0x4 CALLDATALOAD SWAP1 PUSH1 0x1 PUSH1 0x1 PUSH1 0xA0 SHL SUB DUP3 AND DUP3 SUB PUSH2 0x1945 JUMPI JUMP JUMPDEST PUSH1 0x0 DUP1 REVERT JUMPDEST PUSH1 0x24 CALLDATALOAD SWAP1 PUSH1 0x1 PUSH1 0x1 PUSH1 0xA0 SHL SUB DUP3 AND DUP3 SUB PUSH2 0x1945 JUMPI JUMP JUMPDEST PUSH1 0x60 SWAP1 PUSH1 0x3 NOT ADD SLT PUSH2 0x1945 JUMPI PUSH1 0x1 PUSH1 0x1 PUSH1 0xA0 SHL SUB SWAP1 PUSH1 0x4 CALLDATALOAD DUP3 DUP2 AND DUP2 SUB PUSH2 0x1945 JUMPI SWAP2 PUSH1 0x24 CALLDATALOAD SWAP1 DUP2 AND DUP2 SUB PUSH2 0x1945 JUMPI SWAP1 PUSH1 0x44 CALLDATALOAD SWAP1 JUMP JUMPDEST SWAP1 PUSH1 0x1 DUP3 DUP2 SHR SWAP3 AND DUP1 ISZERO PUSH2 0x19C5 JUMPI JUMPDEST PUSH1 0x20 DUP4 LT EQ PUSH2 0x19AF JUMPI JUMP JUMPDEST PUSH4 0x4E487B71 PUSH1 0xE0 SHL PUSH1 0x0 MSTORE PUSH1 0x22 PUSH1 0x4 MSTORE PUSH1 0x24 PUSH1 0x0 REVERT JUMPDEST SWAP2 PUSH1 0x7F AND SWAP2 PUSH2 0x19A4 JUMP JUMPDEST SWAP1 PUSH1 0x1F DUP1 NOT SWAP2 ADD AND DUP2 ADD SWAP1 DUP2 LT PUSH8 0xFFFFFFFFFFFFFFFF DUP3 GT OR PUSH2 0x19F1 JUMPI PUSH1 0x40 MSTORE JUMP JUMPDEST PUSH4 0x4E487B71 PUSH1 0xE0 SHL PUSH1 0x0 MSTORE PUSH1 0x41 PUSH1 0x4 MSTORE PUSH1 0x24 PUSH1 0x0 REVERT JUMPDEST DUP2 PUSH1 0x1F DUP3 ADD SLT ISZERO PUSH2 0x1945 JUMPI DUP1 CALLDATALOAD SWAP1 PUSH8 0xFFFFFFFFFFFFFFFF DUP3 GT PUSH2 0x19F1 JUMPI PUSH1 0x40 MLOAD SWAP3 PUSH2 0x1A3C PUSH1 0x1F DUP5 ADD PUSH1 0x1F NOT AND PUSH1 0x20 ADD DUP6 PUSH2 0x19CF JUMP JUMPDEST DUP3 DUP5 MSTORE PUSH1 0x20 DUP4 DUP4 ADD ADD GT PUSH2 0x1945 JUMPI DUP2 PUSH1 0x0 SWAP3 PUSH1 0x20 DUP1 SWAP4 ADD DUP4 DUP7 ADD CALLDATACOPY DUP4 ADD ADD MSTORE SWAP1 JUMP JUMPDEST DUP1 PUSH1 0x0 MSTORE PUSH1 0x6 PUSH1 0x20 MSTORE PUSH1 0x40 PUSH1 0x0 KECCAK256 CALLER PUSH1 0x0 MSTORE PUSH1 0x20 MSTORE PUSH1 0xFF PUSH1 0x40 PUSH1 0x0 KECCAK256 SLOAD AND ISZERO PUSH2 0x1A84 JUMPI POP JUMP JUMPDEST PUSH1 0x44 SWAP1 PUSH1 0x40 MLOAD SWAP1 PUSH4 0xE2517D3F PUSH1 0xE0 SHL DUP3 MSTORE CALLER PUSH1 0x4 DUP4 ADD MSTORE PUSH1 0x24 DUP3 ADD MSTORE REVERT JUMPDEST PUSH1 0x1 PUSH1 0x1 PUSH1 0xA0 SHL SUB AND PUSH1 0x0 DUP2 DUP2 MSTORE PUSH32 0x4448119502453E295A09F7D4E8A6A0575D3624C233F99F59ABF0835BF259780A PUSH1 0x20 MSTORE PUSH1 0x40 DUP2 KECCAK256 SLOAD SWAP1 SWAP2 SWAP1 PUSH1 0x0 DUP1 MLOAD PUSH1 0x20 PUSH2 0x20DE DUP4 CODECOPY DUP2 MLOAD SWAP2 MSTORE SWAP1 PUSH1 0xFF AND PUSH2 0x1B3E JUMPI DUP1 DUP4 MSTORE PUSH1 0x6 PUSH1 0x20 MSTORE PUSH1 0x40 DUP4 KECCAK256 DUP3 DUP5 MSTORE PUSH1 0x20 MSTORE PUSH1 0x40 DUP4 KECCAK256 PUSH1 0x1 PUSH1 0xFF NOT DUP3 SLOAD AND OR SWAP1 SSTORE PUSH32 0x2F8788117E7EFF1D82E926EC794901D17C78024A50270940304540A733656F0D CALLER SWAP4 DUP1 LOG4 PUSH1 0x1 SWAP1 JUMP JUMPDEST POP POP SWAP1 JUMP JUMPDEST PUSH1 0x1 PUSH1 0x1 PUSH1 0xA0 SHL SUB AND PUSH1 0x0 DUP2 DUP2 MSTORE PUSH32 0x84103E4942D70D0389AB910BDCDF181C3E028BC1897FE6797BB191AC79D80882 PUSH1 0x20 MSTORE PUSH1 0x40 DUP2 KECCAK256 SLOAD SWAP1 SWAP2 SWAP1 PUSH1 0x0 DUP1 MLOAD PUSH1 0x20 PUSH2 0x20BE DUP4 CODECOPY DUP2 MLOAD SWAP2 MSTORE SWAP1 PUSH1 0xFF AND PUSH2 0x1B3E JUMPI DUP1 DUP4 MSTORE PUSH1 0x6 PUSH1 0x20 MSTORE PUSH1 0x40 DUP4 KECCAK256 DUP3 DUP5 MSTORE PUSH1 0x20 MSTORE PUSH1 0x40 DUP4 KECCAK256 PUSH1 0x1 PUSH1 0xFF NOT DUP3 SLOAD AND OR SWAP1 SSTORE PUSH32 0x2F8788117E7EFF1D82E926EC794901D17C78024A50270940304540A733656F0D CALLER SWAP4 DUP1 LOG4 PUSH1 0x1 SWAP1 JUMP JUMPDEST SWAP1 PUSH1 0x0 SWAP2 DUP1 DUP4 MSTORE PUSH1 0x6 PUSH1 0x20 MSTORE PUSH1 0x40 DUP4 KECCAK256 SWAP2 PUSH1 0x1 DUP1 PUSH1 0xA0 SHL SUB AND SWAP2 DUP3 DUP5 MSTORE PUSH1 0x20 MSTORE PUSH1 0xFF PUSH1 0x40 DUP5 KECCAK256 SLOAD AND ISZERO PUSH1 0x0 EQ PUSH2 0x1B3E JUMPI DUP1 DUP4 MSTORE PUSH1 0x6 PUSH1 0x20 MSTORE PUSH1 0x40 DUP4 KECCAK256 DUP3 DUP5 MSTORE PUSH1 0x20 MSTORE PUSH1 0x40 DUP4 KECCAK256 PUSH1 0x1 PUSH1 0xFF NOT DUP3 SLOAD AND OR SWAP1 SSTORE PUSH32 0x2F8788117E7EFF1D82E926EC794901D17C78024A50270940304540A733656F0D CALLER SWAP4 DUP1 LOG4 PUSH1 0x1 SWAP1 JUMP JUMPDEST PUSH1 0x1 PUSH1 0x1 PUSH1 0xA0 SHL SUB AND PUSH1 0x0 DUP2 DUP2 MSTORE PUSH32 0x84103E4942D70D0389AB910BDCDF181C3E028BC1897FE6797BB191AC79D80882 PUSH1 0x20 MSTORE PUSH1 0x40 DUP2 KECCAK256 SLOAD SWAP1 SWAP2 SWAP1 PUSH1 0x0 DUP1 MLOAD PUSH1 0x20 PUSH2 0x20BE DUP4 CODECOPY DUP2 MLOAD SWAP2 MSTORE SWAP1 PUSH1 0xFF AND ISZERO PUSH2 0x1B3E JUMPI DUP1 DUP4 MSTORE PUSH1 0x6 PUSH1 0x20 MSTORE PUSH1 0x40 DUP4 KECCAK256 DUP3 DUP5 MSTORE PUSH1 0x20 MSTORE PUSH1 0x40 DUP4 KECCAK256 PUSH1 0xFF NOT DUP2 SLOAD AND SWAP1 SSTORE PUSH32 0xF6391F5C32D9C69D2A47EA670B442974B53935D1EDC7FD64EB21E047A839171B CALLER SWAP4 DUP1 LOG4 PUSH1 0x1 SWAP1 JUMP JUMPDEST PUSH1 0x1 PUSH1 0x1 PUSH1 0xA0 SHL SUB AND PUSH1 0x0 DUP2 DUP2 MSTORE PUSH32 0x4448119502453E295A09F7D4E8A6A0575D3624C233F99F59ABF0835BF259780A PUSH1 0x20 MSTORE PUSH1 0x40 DUP2 KECCAK256 SLOAD SWAP1 SWAP2 SWAP1 PUSH1 0x0 DUP1 MLOAD PUSH1 0x20 PUSH2 0x20DE DUP4 CODECOPY DUP2 MLOAD SWAP2 MSTORE SWAP1 PUSH1 0xFF AND ISZERO PUSH2 0x1B3E JUMPI DUP1 DUP4 MSTORE PUSH1 0x6 PUSH1 0x20 MSTORE PUSH1 0x40 DUP4 KECCAK256 DUP3 DUP5 MSTORE PUSH1 0x20 MSTORE PUSH1 0x40 DUP4 KECCAK256 PUSH1 0xFF NOT DUP2 SLOAD AND SWAP1 SSTORE PUSH32 0xF6391F5C32D9C69D2A47EA670B442974B53935D1EDC7FD64EB21E047A839171B CALLER SWAP4 DUP1 LOG4 PUSH1 0x1 SWAP1 JUMP JUMPDEST SWAP1 PUSH1 0x0 SWAP2 DUP1 DUP4 MSTORE PUSH1 0x6 PUSH1 0x20 MSTORE PUSH1 0x40 DUP4 KECCAK256 SWAP2 PUSH1 0x1 DUP1 PUSH1 0xA0 SHL SUB AND SWAP2 DUP3 DUP5 MSTORE PUSH1 0x20 MSTORE PUSH1 0xFF PUSH1 0x40 DUP5 KECCAK256 SLOAD AND PUSH1 0x0 EQ PUSH2 0x1B3E JUMPI DUP1 DUP4 MSTORE PUSH1 0x6 PUSH1 0x20 MSTORE PUSH1 0x40 DUP4 KECCAK256 DUP3 DUP5 MSTORE PUSH1 0x20 MSTORE PUSH1 0x40 DUP4 KECCAK256 PUSH1 0xFF NOT DUP2 SLOAD AND SWAP1 SSTORE PUSH32 0xF6391F5C32D9C69D2A47EA670B442974B53935D1EDC7FD64EB21E047A839171B CALLER SWAP4 DUP1 LOG4 PUSH1 0x1 SWAP1 JUMP JUMPDEST PUSH1 0x5 SLOAD PUSH1 0x1 PUSH1 0x1 PUSH1 0xA0 SHL SUB AND CALLER SUB PUSH2 0x1E19 JUMPI JUMP JUMPDEST PUSH1 0x40 MLOAD PUSH4 0x118CDAA7 PUSH1 0xE0 SHL DUP2 MSTORE CALLER PUSH1 0x4 DUP3 ADD MSTORE PUSH1 0x24 SWAP1 REVERT JUMPDEST SWAP1 DUP2 PUSH1 0x20 SWAP2 SUB SLT PUSH2 0x1945 JUMPI MLOAD DUP1 ISZERO ISZERO DUP2 SUB PUSH2 0x1945 JUMPI SWAP1 JUMP JUMPDEST PUSH1 0x8 SLOAD PUSH1 0x40 MLOAD PUSH4 0x72331C73 PUSH1 0xE1 SHL DUP2 MSTORE PUSH1 0x1 PUSH1 0x1 PUSH1 0xA0 SHL SUB SWAP3 DUP4 AND PUSH1 0x4 DUP3 ADD MSTORE SWAP3 DUP3 AND PUSH1 0x24 DUP5 ADD MSTORE PUSH1 0x44 DUP4 ADD SWAP4 SWAP1 SWAP4 MSTORE SWAP1 SWAP2 PUSH1 0x20 SWAP2 DUP4 SWAP2 PUSH1 0x64 SWAP2 DUP4 SWAP2 AND GAS STATICCALL SWAP1 DUP2 ISZERO PUSH2 0x1EB5 JUMPI PUSH1 0x0 SWAP2 PUSH2 0x1E9A JUMPI POP SWAP1 JUMP JUMPDEST PUSH2 0x1EB2 SWAP2 POP PUSH1 0x20 RETURNDATASIZE DUP2 GT PUSH2 0x1330 JUMPI PUSH2 0x1322 DUP2 DUP4 PUSH2 0x19CF JUMP JUMPDEST SWAP1 JUMP JUMPDEST PUSH1 0x40 MLOAD RETURNDATASIZE PUSH1 0x0 DUP3 RETURNDATACOPY RETURNDATASIZE SWAP1 REVERT JUMPDEST ISZERO PUSH2 0x1EC8 JUMPI JUMP JUMPDEST PUSH1 0x40 MLOAD PUSH3 0x461BCD PUSH1 0xE5 SHL DUP2 MSTORE PUSH1 0x20 PUSH1 0x4 DUP3 ADD MSTORE PUSH1 0xE PUSH1 0x24 DUP3 ADD MSTORE PUSH14 0x125B9D985B1A5908185B5BDD5B9D PUSH1 0x92 SHL PUSH1 0x44 DUP3 ADD MSTORE PUSH1 0x64 SWAP1 REVERT JUMPDEST ISZERO PUSH2 0x1F05 JUMPI JUMP JUMPDEST PUSH1 0x40 MLOAD PUSH3 0x461BCD PUSH1 0xE5 SHL DUP2 MSTORE PUSH1 0x20 PUSH1 0x4 DUP3 ADD MSTORE PUSH1 0x14 PUSH1 0x24 DUP3 ADD MSTORE PUSH20 0x496E73756666696369656E742062616C616E6365 PUSH1 0x60 SHL PUSH1 0x44 DUP3 ADD MSTORE PUSH1 0x64 SWAP1 REVERT JUMPDEST SWAP2 PUSH1 0x1 PUSH1 0x1 PUSH1 0xA0 SHL SUB DUP1 DUP5 AND SWAP3 DUP4 ISZERO PUSH2 0x2006 JUMPI AND SWAP3 DUP4 ISZERO PUSH2 0x1FED JUMPI PUSH1 0x0 SWAP1 DUP4 DUP3 MSTORE DUP2 PUSH1 0x20 MSTORE PUSH1 0x40 DUP3 KECCAK256 SLOAD SWAP1 DUP4 DUP3 LT PUSH2 0x1FBB JUMPI POP SWAP2 PUSH1 0x40 DUP3 DUP3 PUSH32 0xDDF252AD1BE2C89B69C2B068FC378DAA952BA7F163C4A11628F55A4DF523B3EF SWAP6 DUP8 PUSH1 0x20 SWAP7 MSTORE DUP3 DUP7 MSTORE SUB DUP3 DUP3 KECCAK256 SSTORE DUP7 DUP2 MSTORE KECCAK256 DUP2 DUP2 SLOAD ADD SWAP1 SSTORE PUSH1 0x40 MLOAD SWAP1 DUP2 MSTORE LOG3 JUMP JUMPDEST PUSH1 0x40 MLOAD PUSH4 0x391434E3 PUSH1 0xE2 SHL DUP2 MSTORE PUSH1 0x1 PUSH1 0x1 PUSH1 0xA0 SHL SUB SWAP2 SWAP1 SWAP2 AND PUSH1 0x4 DUP3 ADD MSTORE PUSH1 0x24 DUP2 ADD SWAP2 SWAP1 SWAP2 MSTORE PUSH1 0x44 DUP2 ADD DUP4 SWAP1 MSTORE PUSH1 0x64 SWAP1 REVERT JUMPDEST PUSH1 0x40 MLOAD PUSH4 0xEC442F05 PUSH1 0xE0 SHL DUP2 MSTORE PUSH1 0x0 PUSH1 0x4 DUP3 ADD MSTORE PUSH1 0x24 SWAP1 REVERT JUMPDEST PUSH1 0x40 MLOAD PUSH4 0x4B637E8F PUSH1 0xE1 SHL DUP2 MSTORE PUSH1 0x0 PUSH1 0x4 DUP3 ADD MSTORE PUSH1 0x24 SWAP1 REVERT JUMPDEST ISZERO PUSH2 0x2026 JUMPI JUMP JUMPDEST PUSH1 0x40 MLOAD PUSH3 0x461BCD PUSH1 0xE5 SHL DUP2 MSTORE PUSH1 0x20 PUSH1 0x4 DUP3 ADD MSTORE PUSH1 0x16 PUSH1 0x24 DUP3 ADD MSTORE PUSH22 0x151C985B9CD9995C881B9BDD0818DBDB5C1B1A585B9D PUSH1 0x52 SHL PUSH1 0x44 DUP3 ADD MSTORE PUSH1 0x64 SWAP1 REVERT JUMPDEST ISZERO PUSH2 0x206B JUMPI JUMP JUMPDEST PUSH1 0x40 MLOAD PUSH3 0x461BCD PUSH1 0xE5 SHL DUP2 MSTORE PUSH1 0x20 PUSH1 0x4 DUP3 ADD MSTORE PUSH1 0x14 PUSH1 0x24 DUP3 ADD MSTORE PUSH20 0x139BDD08185D5D1A1BDC9A5E9959081859D95B9D PUSH1 0x62 SHL PUSH1 0x44 DUP3 ADD MSTORE PUSH1 0x64 SWAP1 REVERT JUMPDEST PUSH1 0xF SLOAD DUP1 ISZERO PUSH2 0x20B7 JUMPI PUSH1 0xE SLOAD DIV SWAP1 JUMP JUMPDEST POP PUSH1 0x0 SWAP1 JUMP INVALID PREVRANDAO 0x2A SWAP5 CALL LOG1 STATICCALL 0xC7 SWAP11 RETURN 0x28 JUMP 0xAF 0x2A PUSH5 0xF63648CFA2 0xEF EXTCODESIZE SWAP9 PUSH2 0xA5B 0xB7 0xCB 0xEC 0x4C 0xEE PUSH10 0x85CAB5A0BFE0B79D2C4B SHR 0x2E MUL MSIZE SWAP16 LOG0 PREVRANDAO 0xD1 ISZERO 0xB7 MLOAD 0x1F SWAP7 MSIZE ADDRESS PUSH29 0xB4276950967709A2646970667358221220E698ABE62D8F57C36A13A220 OR 0xA7 EQ DIV EXTCODEHASH PUSH0 0x2F 0x49 0x1F 0xB9 PUSH6 0xC28BAEFA4493 PUSH31 0xF6D64736F6C634300081400332F8788117E7EFF1D82E926EC794901D17C78 MUL 0x4A POP 0x27 MULMOD BLOCKHASH ADDRESS GASLIMIT BLOCKHASH 0xA7 CALLER PUSH6 0x6F0DC65A7BB8 0xD6 CALLDATALOAD SHR SHR 0xF7 0xC SWAP6 LOG3 AND 0xCC PUSH11 0x92839C986682D98BC35F95 DUP16 BASEFEE DUP4 0xF9 0xD2 0xA8 SHL PUSH9 0x47DC741A1B0CD08D27 DUP9 GASLIMIT 0xF9 0xD8 NOT 0xD8 PUSH28 0x734759AFB55FE2DE5CB82A9AE6720000000000000000000000000000 "},"methodIdentifiers":{"AGENT_ROLE()":"22459e18","COMPLIANCE_ROLE()":"062d3bd7","DEFAULT_ADMIN_ROLE()":"a217fddf","addAgent(address)":"84e79842","addComplianceOfficer(address)":"ccf2258b","allowance(address,address)":"dd62ed3e","approve(address,uint256)":"095ea7b3","balanceOf(address)":"70a08231","burn(address,uint256)":"9dc29fac","canTransfer(address,address,uint256)":"e46638e6","compliance()":"6290865d","decimals()":"313ce567","forcedTransfer(address,address,uint256)":"9fc1d0e7","getRoleAdmin(bytes32)":"248a9ca3","getTotalPropertyValue()":"2b06ac72","getValuePerToken()":"bb33ec0a","grantRole(bytes32,address)":"2f2ff15d","hasRole(bytes32,address)":"91d14854","identityRegistry()":"134e18f4","mint(address,uint256)":"40c10f19","name()":"06fdde03","onchainID(address)":"ed2c184f","owner()":"8da5cb5b","propertyInfo()":"5cfbeb77","removeAgent(address)":"97a6278e","removeComplianceOfficer(address)":"29511271","renounceOwnership()":"715018a6","renounceRole(bytes32,address)":"36568abe","revokeRole(bytes32,address)":"d547741f","setComplianceContract(address)":"f8de2545","setIdentityRegistry(address)":"cbf3f861","setOnchainID(address)":"3d1ddc5b","supportsInterface(bytes4)":"01ffc9a7","symbol()":"95d89b41","totalSupply()":"18160ddd","transfer(address,uint256)":"a9059cbb","transferFrom(address,address,uint256)":"23b872dd","transferOwnership(address)":"f2fde38b","updatePropertyInfo((string,uint256,uint256,string,bool))":"65614b85"}}}}}