{
  "_format": "hh-sol-artifact-1",
  "contractName": "Compliance",
  "sourceName": "contracts/Compliance.sol",
  "abi": [
    {
      "inputs": [
        {
          "internalType": "address",
          "name": "_identityRegistry",
          "type": "address"
        }
      ],
      "stateMutability": "nonpayable",
      "type": "constructor"
    },
    {
      "inputs": [
        {
          "internalType": "address",
          "name": "owner",
          "type": "address"
        }
      ],
      "name": "OwnableInvalidOwner",
      "type": "error"
    },
    {
      "inputs": [
        {
          "internalType": "address",
          "name": "account",
          "type": "address"
        }
      ],
      "name": "OwnableUnauthorizedAccount",
      "type": "error"
    },
    {
      "anonymous": false,
      "inputs": [
        {
          "indexed": true,
          "internalType": "address",
          "name": "_address",
          "type": "address"
        }
      ],
      "name": "AddressBlacklisted",
      "type": "event"
    },
    {
      "anonymous": false,
      "inputs": [
        {
          "indexed": true,
          "internalType": "address",
          "name": "_address",
          "type": "address"
        }
      ],
      "name": "AddressWhitelisted",
      "type": "event"
    },
    {
      "anonymous": false,
      "inputs": [
        {
          "indexed": true,
          "internalType": "bytes32",
          "name": "_ruleId",
          "type": "bytes32"
        }
      ],
      "name": "ComplianceRuleAdded",
      "type": "event"
    },
    {
      "anonymous": false,
      "inputs": [
        {
          "indexed": true,
          "internalType": "bytes32",
          "name": "_ruleId",
          "type": "bytes32"
        }
      ],
      "name": "ComplianceRuleRemoved",
      "type": "event"
    },
    {
      "anonymous": false,
      "inputs": [
        {
          "indexed": true,
          "internalType": "address",
          "name": "previousOwner",
          "type": "address"
        },
        {
          "indexed": true,
          "internalType": "address",
          "name": "newOwner",
          "type": "address"
        }
      ],
      "name": "OwnershipTransferred",
      "type": "event"
    },
    {
      "inputs": [
        {
          "internalType": "bytes32",
          "name": "_ruleId",
          "type": "bytes32"
        }
      ],
      "name": "addComplianceRule",
      "outputs": [],
      "stateMutability": "nonpayable",
      "type": "function"
    },
    {
      "inputs": [
        {
          "internalType": "uint16",
          "name": "_country",
          "type": "uint16"
        }
      ],
      "name": "addCountryRestriction",
      "outputs": [],
      "stateMutability": "nonpayable",
      "type": "function"
    },
    {
      "inputs": [
        {
          "internalType": "address",
          "name": "_address",
          "type": "address"
        }
      ],
      "name": "addToBlacklist",
      "outputs": [],
      "stateMutability": "nonpayable",
      "type": "function"
    },
    {
      "inputs": [
        {
          "internalType": "address",
          "name": "_from",
          "type": "address"
        },
        {
          "internalType": "address",
          "name": "_to",
          "type": "address"
        },
        {
          "internalType": "uint256",
          "name": "_amount",
          "type": "uint256"
        }
      ],
      "name": "canTransfer",
      "outputs": [
        {
          "internalType": "bool",
          "name": "",
          "type": "bool"
        }
      ],
      "stateMutability": "view",
      "type": "function"
    },
    {
      "inputs": [],
      "name": "currentHolders",
      "outputs": [
        {
          "internalType": "uint256",
          "name": "",
          "type": "uint256"
        }
      ],
      "stateMutability": "view",
      "type": "function"
    },
    {
      "inputs": [],
      "name": "identityRegistry",
      "outputs": [
        {
          "internalType": "contract IIdentityRegistry",
          "name": "",
          "type": "address"
        }
      ],
      "stateMutability": "view",
      "type": "function"
    },
    {
      "inputs": [
        {
          "internalType": "address",
          "name": "_address",
          "type": "address"
        }
      ],
      "name": "isBlacklisted",
      "outputs": [
        {
          "internalType": "bool",
          "name": "",
          "type": "bool"
        }
      ],
      "stateMutability": "view",
      "type": "function"
    },
    {
      "inputs": [
        {
          "internalType": "bytes32",
          "name": "_ruleId",
          "type": "bytes32"
        }
      ],
      "name": "isComplianceRuleActive",
      "outputs": [
        {
          "internalType": "bool",
          "name": "",
          "type": "bool"
        }
      ],
      "stateMutability": "view",
      "type": "function"
    },
    {
      "inputs": [
        {
          "internalType": "uint16",
          "name": "_country",
          "type": "uint16"
        }
      ],
      "name": "isCountryRestricted",
      "outputs": [
        {
          "internalType": "bool",
          "name": "",
          "type": "bool"
        }
      ],
      "stateMutability": "view",
      "type": "function"
    },
    {
      "inputs": [],
      "name": "maxBalancePerInvestor",
      "outputs": [
        {
          "internalType": "uint256",
          "name": "",
          "type": "uint256"
        }
      ],
      "stateMutability": "view",
      "type": "function"
    },
    {
      "inputs": [],
      "name": "maxHolders",
      "outputs": [
        {
          "internalType": "uint256",
          "name": "",
          "type": "uint256"
        }
      ],
      "stateMutability": "view",
      "type": "function"
    },
    {
      "inputs": [],
      "name": "owner",
      "outputs": [
        {
          "internalType": "address",
          "name": "",
          "type": "address"
        }
      ],
      "stateMutability": "view",
      "type": "function"
    },
    {
      "inputs": [
        {
          "internalType": "bytes32",
          "name": "_ruleId",
          "type": "bytes32"
        }
      ],
      "name": "removeComplianceRule",
      "outputs": [],
      "stateMutability": "nonpayable",
      "type": "function"
    },
    {
      "inputs": [
        {
          "internalType": "uint16",
          "name": "_country",
          "type": "uint16"
        }
      ],
      "name": "removeCountryRestriction",
      "outputs": [],
      "stateMutability": "nonpayable",
      "type": "function"
    },
    {
      "inputs": [
        {
          "internalType": "address",
          "name": "_address",
          "type": "address"
        }
      ],
      "name": "removeFromBlacklist",
      "outputs": [],
      "stateMutability": "nonpayable",
      "type": "function"
    },
    {
      "inputs": [],
      "name": "renounceOwnership",
      "outputs": [],
      "stateMutability": "nonpayable",
      "type": "function"
    },
    {
      "inputs": [
        {
          "internalType": "uint256",
          "name": "_maxBalance",
          "type": "uint256"
        }
      ],
      "name": "setMaxBalancePerInvestor",
      "outputs": [],
      "stateMutability": "nonpayable",
      "type": "function"
    },
    {
      "inputs": [
        {
          "internalType": "uint256",
          "name": "_maxHolders",
          "type": "uint256"
        }
      ],
      "name": "setMaxHolders",
      "outputs": [],
      "stateMutability": "nonpayable",
      "type": "function"
    },
    {
      "inputs": [
        {
          "internalType": "address",
          "name": "newOwner",
          "type": "address"
        }
      ],
      "name": "transferOwnership",
      "outputs": [],
      "stateMutability": "nonpayable",
      "type": "function"
    },
    {
      "inputs": [
        {
          "internalType": "address",
          "name": "_holder",
          "type": "address"
        },
        {
          "internalType": "bool",
          "name": "_isNewHolder",
          "type": "bool"
        }
      ],
      "name": "updateHolderCount",
      "outputs": [],
      "stateMutability": "nonpayable",
      "type": "function"
    }
  ],
  "bytecode": "0x60803461011257601f610daf38819003918201601f19168301916001600160401b038311848410176101175780849260209460405283398101031261011257516001600160a01b03808216918290036101125733156100f9576000549060018060a01b0319913383821617600055604051913391167f8be0079c531659141344cd1fd0a4f28419497f9722a3daafe3b4186f6b6457e0600080a382156100b757506001541617600155604051610c81908161012e8239f35b62461bcd60e51b815260206004820152601960248201527f496e76616c6964206964656e74697479207265676973747279000000000000006044820152606490fd5b604051631e4fbdf760e01b815260006004820152602490fd5b600080fd5b634e487b7160e01b600052604160045260246000fdfe6040608081526004908136101561001557600080fd5b600091823560e01c9081630333ce241461080a578163134e18f4146107e15781633cb32f77146107c257816344337ea11461071d578163537df3b61461065d57816368ff3c08146106305781636aae7b26146105a6578163715018a61461054c5781638365066b1461052a578163888fafde1461050b5781638bf5c4ee146104ec5781638da5cb5b146104c457816391c1c4781461042e578163bc4c8552146103f1578163dc7d0a2d146103cf578163e1fafc841461032e578163e46638e6146102e1578163f2fde38b14610256578163fd4a561e1461013f575063fe575a87146100ff57600080fd5b3461013b57602036600319011261013b5760209160ff9082906001600160a01b03610128610888565b1681526003855220541690519015158152f35b5080fd5b83833461013b578060031936011261013b57610159610888565b602435801590811581036102525780610233575b156101ba57506001600160a01b0316825260086020528120805460ff1916600117905560075460001981146101a757600101600755905080f35b506011602492634e487b7160e01b835252fd5b92939280610215575b6101ce575b50505080f35b6001600160a01b0316835260086020528220805460ff191690556007549081156102025750600019016007558180806101c8565b634e487b7160e01b835260119052602482fd5b506001600160a01b038116845260086020528184205460ff166101c3565b506001600160a01b038216845260086020528284205460ff161561016d565b8480fd5b9050346102dd5760203660031901126102dd57610271610888565b9061027a6108a3565b6001600160a01b039182169283156102c757505082546001600160a01b0319811683178455167f8be0079c531659141344cd1fd0a4f28419497f9722a3daafe3b4186f6b6457e08380a380f35b51631e4fbdf760e01b8152908101849052602490fd5b8280fd5b50503461013b57606036600319011261013b576102fc610888565b91602435906001600160a01b038216820361032b57506020926103229160443591610939565b90519015158152f35b80fd5b919050346102dd5760203660031901126102dd5781359161034d6108a3565b828452600260205260ff82852054161561039b575081835260026020528220805460ff191690557fd5853242224345ddd2178850a0b85acef1ccc7a4d337cc204bd0b17965c9cee88280a280f35b6020606492519162461bcd60e51b8352820152600f60248201526e52756c65206e6f742061637469766560881b6044820152fd5b83903461013b57602036600319011261013b576103ea6108a3565b3560055580f35b9050346102dd5760203660031901126102dd57803561ffff811680910361042a578360ff92849260209652855220541690519015158152f35b8380fd5b919050346102dd5760203660031901126102dd5781359161044d6108a3565b8215610490575081835260026020528220805460ff191660011790557f6117ba698a7a49f4d642317dc83d2addb9dfb1bd82e630219951263dc0e4ee038280a280f35b6020606492519162461bcd60e51b8352820152600f60248201526e125b9d985b1a59081c9d5b19481251608a1b6044820152fd5b50503461013b578160031936011261013b57905490516001600160a01b039091168152602090f35b50503461013b578160031936011261013b576020906006549051908152f35b50503461013b578160031936011261013b576020906005549051908152f35b83903461013b57602036600319011261013b576105456108a3565b3560065580f35b833461032b578060031936011261032b576105656108a3565b80546001600160a01b03198116825581906001600160a01b03167f8be0079c531659141344cd1fd0a4f28419497f9722a3daafe3b4186f6b6457e08280a380f35b9050346102dd5760203660031901126102dd57803561ffff811680910361042a576105cf6108a3565b8084528160205260ff8385205416156105f45783526020528120805460ff1916905580f35b506020606492519162461bcd60e51b8352820152601660248201527510dbdd5b9d1c9e481b9bdd081c995cdd1c9a58dd195960521b6044820152fd5b9050346102dd5760203660031901126102dd578160209360ff923581526002855220541690519015158152f35b919050346102dd5760203660031901126102dd57610679610888565b6106816108a3565b6001600160a01b031680845260036020528184205490929060ff16156106db575081835260036020528220805460ff191690557f4f783c179409b4127238bc9c990bc99b9a651666a0d20b51d6c42849eb88466d8280a280f35b6020606492519162461bcd60e51b8352820152601760248201527f41646472657373206e6f7420626c61636b6c69737465640000000000000000006044820152fd5b919050346102dd5760203660031901126102dd57610739610888565b6107416108a3565b6001600160a01b031691821561078e575081835260036020528220805460ff191660011790557fdaf49ab9345b6cb75bcb5a7f726bff9183c34dcf5c098c385730f9fd893765f68280a280f35b6020606492519162461bcd60e51b8352820152600f60248201526e496e76616c6964206164647265737360881b6044820152fd5b50503461013b578160031936011261013b576020906007549051908152f35b50503461013b578160031936011261013b5760015490516001600160a01b039091168152602090f35b9050346102dd5760203660031901126102dd57803561ffff811680910361042a576108336108a3565b801561084e5783526020528120805460ff1916600117905580f35b506020606492519162461bcd60e51b83528201526014602482015273496e76616c696420636f756e74727920636f646560601b6044820152fd5b600435906001600160a01b038216820361089e57565b600080fd5b6000546001600160a01b031633036108b757565b60405163118cdaa760e01b8152336004820152602490fd5b90601f8019910116810190811067ffffffffffffffff8211176108f157604052565b634e487b7160e01b600052604160045260246000fd5b9081602091031261089e5751801515810361089e5790565b9081602091031261089e575161ffff8116810361089e5790565b6001600160a01b0392918316918215908115610c42575b50610c3a578216918215610b4a576000928084526020926003845260409260ff84872054168015610b3a575b610ab3576001541693835163b9209e3360e01b9081815284600482015282816024818a5afa908115610b30578891610b13575b5015908115610abb575b50610ab357835191637e42683b60e01b9384845260048401528183602481895afa928315610aa9578793610a87575b50602482939486519788938492835260048301525afa938415610a7d578594610a4b575b5060049061ffff80931686525260ff8285205416928315610a38575b505050610a355750600190565b90565b60ff935016835282205416388080610a28565b819450610a6f906004923d8711610a76575b610a6781836108cf565b81019061091f565b9390610a0c565b503d610a5d565b83513d87823e3d90fd5b829350610aa2602491843d8611610a7657610a6781836108cf565b93506109e8565b85513d89823e3d90fd5b505050505090565b905084519081528260048201528181602481895afa908115610aa9578791610ae6575b5015386109b9565b610b069150823d8411610b0c575b610afe81836108cf565b810190610907565b38610ade565b503d610af4565b610b2a9150833d8511610b0c57610afe81836108cf565b386109af565b86513d8a823e3d90fd5b5081865260ff848720541661097c565b9091506000918083526020906003825260409260ff8486205416610c0c576001541690835163b9209e3360e01b81528160048201528381602481865afa908115610c30578691610c13575b5015610c0c5782906024855180948193637e42683b60e01b835260048301525afa908115610bff579161ffff60049260ff95948791610be2575b501685525282205416610a355750600190565b610bf99150833d8511610a7657610a6781836108cf565b38610bcf565b50505051903d90823e3d90fd5b5050505090565b610c2a9150843d8611610b0c57610afe81836108cf565b38610b95565b85513d88823e3d90fd5b505050600090565b9050153861095056fea2646970667358221220fbc5e14bfe8901db0c851ac2d8320ccd45c52a1d11a9f7c225e3bfb9023f5ffd64736f6c63430008140033",
  "linkReferences": {},
  "deployedLinkReferences": {}
}