{
  "_format": "hh-sol-artifact-1",
  "contractName": "IdentityRegistry",
  "sourceName": "contracts/IdentityRegistry.sol",
  "abi": [
    {
      "inputs": [],
      "stateMutability": "nonpayable",
      "type": "constructor"
    },
    {
      "inputs": [
        {
          "internalType": "address",
          "name": "owner",
          "type": "address"
        }
      ],
      "name": "OwnableInvalidOwner",
      "type": "error"
    },
    {
      "inputs": [
        {
          "internalType": "address",
          "name": "account",
          "type": "address"
        }
      ],
      "name": "OwnableUnauthorizedAccount",
      "type": "error"
    },
    {
      "anonymous": false,
      "inputs": [
        {
          "indexed": true,
          "internalType": "address",
          "name": "_wallet",
          "type": "address"
        },
        {
          "indexed": false,
          "internalType": "uint16",
          "name": "_country",
          "type": "uint16"
        }
      ],
      "name": "CountryUpdated",
      "type": "event"
    },
    {
      "anonymous": false,
      "inputs": [
        {
          "indexed": true,
          "internalType": "address",
          "name": "_wallet",
          "type": "address"
        },
        {
          "indexed": true,
          "internalType": "address",
          "name": "_onchainID",
          "type": "address"
        }
      ],
      "name": "IdentityRegistered",
      "type": "event"
    },
    {
      "anonymous": false,
      "inputs": [
        {
          "indexed": true,
          "internalType": "address",
          "name": "_wallet",
          "type": "address"
        }
      ],
      "name": "IdentityRemoved",
      "type": "event"
    },
    {
      "anonymous": false,
      "inputs": [
        {
          "indexed": true,
          "internalType": "address",
          "name": "previousOwner",
          "type": "address"
        },
        {
          "indexed": true,
          "internalType": "address",
          "name": "newOwner",
          "type": "address"
        }
      ],
      "name": "OwnershipTransferred",
      "type": "event"
    },
    {
      "inputs": [
        {
          "internalType": "address",
          "name": "_wallet",
          "type": "address"
        }
      ],
      "name": "contains",
      "outputs": [
        {
          "internalType": "bool",
          "name": "",
          "type": "bool"
        }
      ],
      "stateMutability": "view",
      "type": "function"
    },
    {
      "inputs": [
        {
          "internalType": "address",
          "name": "_wallet",
          "type": "address"
        }
      ],
      "name": "identity",
      "outputs": [
        {
          "internalType": "address",
          "name": "",
          "type": "address"
        }
      ],
      "stateMutability": "view",
      "type": "function"
    },
    {
      "inputs": [
        {
          "internalType": "address",
          "name": "_wallet",
          "type": "address"
        }
      ],
      "name": "investorCountry",
      "outputs": [
        {
          "internalType": "uint16",
          "name": "",
          "type": "uint16"
        }
      ],
      "stateMutability": "view",
      "type": "function"
    },
    {
      "inputs": [
        {
          "internalType": "address",
          "name": "_wallet",
          "type": "address"
        }
      ],
      "name": "isVerified",
      "outputs": [
        {
          "internalType": "bool",
          "name": "",
          "type": "bool"
        }
      ],
      "stateMutability": "view",
      "type": "function"
    },
    {
      "inputs": [],
      "name": "owner",
      "outputs": [
        {
          "internalType": "address",
          "name": "",
          "type": "address"
        }
      ],
      "stateMutability": "view",
      "type": "function"
    },
    {
      "inputs": [
        {
          "internalType": "address",
          "name": "_wallet",
          "type": "address"
        },
        {
          "internalType": "address",
          "name": "_onchainID",
          "type": "address"
        },
        {
          "internalType": "uint16",
          "name": "_country",
          "type": "uint16"
        }
      ],
      "name": "registerIdentity",
      "outputs": [],
      "stateMutability": "nonpayable",
      "type": "function"
    },
    {
      "inputs": [
        {
          "internalType": "address",
          "name": "_wallet",
          "type": "address"
        }
      ],
      "name": "removeIdentity",
      "outputs": [],
      "stateMutability": "nonpayable",
      "type": "function"
    },
    {
      "inputs": [],
      "name": "renounceOwnership",
      "outputs": [],
      "stateMutability": "nonpayable",
      "type": "function"
    },
    {
      "inputs": [
        {
          "internalType": "address",
          "name": "newOwner",
          "type": "address"
        }
      ],
      "name": "transferOwnership",
      "outputs": [],
      "stateMutability": "nonpayable",
      "type": "function"
    },
    {
      "inputs": [
        {
          "internalType": "address",
          "name": "_wallet",
          "type": "address"
        },
        {
          "internalType": "uint16",
          "name": "_country",
          "type": "uint16"
        }
      ],
      "name": "updateCountry",
      "outputs": [],
      "stateMutability": "nonpayable",
      "type": "function"
    }
  ],
  "bytecode": "0x6080806040523461007a5733156100645760008054336001600160a01b03198216811783556040519290916001600160a01b0316907f8be0079c531659141344cd1fd0a4f28419497f9722a3daafe3b4186f6b6457e09080a361064b90816100808239f35b631e4fbdf760e01b815260006004820152602490fd5b600080fdfe604060808152600436101561001357600080fd5b600090813560e01c80633b239a7f1461049a578063454a03e01461034c5780635dbe47e81461030f578063715018a6146102b25780637e42683b146102765780638da5cb5b1461024f578063b9209e33146101f5578063c1f2f1aa1461014f578063f0eb5e54146101155763f2fde38b1461008d57600080fd5b34610111576020366003190112610111576100a661053f565b6100ae61055a565b6001600160a01b039081169182156100fa575082546001600160a01b0319811683178455167f8be0079c531659141344cd1fd0a4f28419497f9722a3daafe3b4186f6b6457e08380a380f35b51631e4fbdf760e01b815260048101849052602490fd5b5080fd5b5034610111576020366003190112610111576020916001600160a01b039082908261013e61053f565b168152600185522054169051908152f35b50346101115760203660031901126101115761016961053f565b61017161055a565b6001600160a01b03168083526003602052818320549091906101959060ff166105c9565b8183526001602090815281842080546001600160a01b031916905560028152818420805461ffff19169055600390528220805460ff191690557f374ace31388bb8ee152e1f7ad5e216944c28a32dfedb6c9353ba26bf0cdbb15a8280a280f35b5034610111576020366003190112610111576020916001600160a01b038061021b61053f565b1682526003845260ff8383205416918261023b575b505090519015158152f35b839192506001855220541615153880610230565b5034610111578160031936011261011157905490516001600160a01b039091168152602090f35b50346101115760203660031901126101115760209161ffff9082906001600160a01b036102a161053f565b168152600285522054169051908152f35b823461030c578060031936011261030c576102cb61055a565b80546001600160a01b03198116825581906001600160a01b03167f8be0079c531659141344cd1fd0a4f28419497f9722a3daafe3b4186f6b6457e08280a380f35b80fd5b50346101115760203660031901126101115760209160ff9082906001600160a01b0361033961053f565b1681526003855220541690519015158152f35b50346101115760603660031901126101115761036661053f565b6024356001600160a01b038181169391849003610496576044359261ffff84168094036104925761039561055a565b1691821561045557831561041c576103ae811515610586565b8285526001602052818520846bffffffffffffffffffffffff60a01b82541617905560026020528185209061ffff1982541617905560036020528320600160ff198254161790557f6ae73635c50d24a45af6fbd5e016ac4bed179addbc8bf24e04ff0fcc6d33af198380a380f35b815162461bcd60e51b8152602060048201526012602482015271125b9d985b1a59081bdb98da185a5b88125160721b6044820152606490fd5b815162461bcd60e51b8152602060048201526016602482015275496e76616c69642077616c6c6574206164647265737360501b6044820152606490fd5b8580fd5b8480fd5b50346101115780600319360112610111576104b361053f565b6024359061ffff821680920361053b577f04ed3b726495c2dca1ff1215d9ca54e1a4030abb5e82b0f6ce55702416cee853916020916104f061055a565b6001600160a01b031680865260038352848620549094906105139060ff166105c9565b61051e821515610586565b84865260028352808620805461ffff19168317905551908152a280f35b8380fd5b600435906001600160a01b038216820361055557565b600080fd5b6000546001600160a01b0316330361056e57565b60405163118cdaa760e01b8152336004820152602490fd5b1561058d57565b60405162461bcd60e51b8152602060048201526014602482015273496e76616c696420636f756e74727920636f646560601b6044820152606490fd5b156105d057565b60405162461bcd60e51b815260206004820152601760248201527f4964656e74697479206e6f7420726567697374657265640000000000000000006044820152606490fdfea26469706673582212200d244197c4634d0d1047ec477cc9cbcbbbc565e9eda1d0e0cb6b61458c676a4264736f6c63430008140033",
  "linkReferences": {},
  "deployedLinkReferences": {}
}