{
  "_format": "hh-sol-artifact-1",
  "contractName": "RealEstateToken",
  "sourceName": "contracts/RealEstateToken.sol",
  "abi": [
    {
      "inputs": [
        {
          "internalType": "string",
          "name": "_name",
          "type": "string"
        },
        {
          "internalType": "string",
          "name": "_symbol",
          "type": "string"
        },
        {
          "internalType": "uint8",
          "name": "_decimals",
          "type": "uint8"
        },
        {
          "internalType": "address",
          "name": "_identityRegistry",
          "type": "address"
        },
        {
          "internalType": "address",
          "name": "_compliance",
          "type": "address"
        },
        {
          "components": [
            {
              "internalType": "string",
              "name": "propertyAddress",
              "type": "string"
            },
            {
              "internalType": "uint256",
              "name": "totalValue",
              "type": "uint256"
            },
            {
              "internalType": "uint256",
              "name": "totalShares",
              "type": "uint256"
            },
            {
              "internalType": "string",
              "name": "description",
              "type": "string"
            },
            {
              "internalType": "bool",
              "name": "isActive",
              "type": "bool"
            }
          ],
          "internalType": "struct RealEstateToken.PropertyInfo",
          "name": "_propertyInfo",
          "type": "tuple"
        }
      ],
      "stateMutability": "nonpayable",
      "type": "constructor"
    },
    {
      "inputs": [],
      "name": "AccessControlBadConfirmation",
      "type": "error"
    },
    {
      "inputs": [
        {
          "internalType": "address",
          "name": "account",
          "type": "address"
        },
        {
          "internalType": "bytes32",
          "name": "neededRole",
          "type": "bytes32"
        }
      ],
      "name": "AccessControlUnauthorizedAccount",
      "type": "error"
    },
    {
      "inputs": [
        {
          "internalType": "address",
          "name": "spender",
          "type": "address"
        },
        {
          "internalType": "uint256",
          "name": "allowance",
          "type": "uint256"
        },
        {
          "internalType": "uint256",
          "name": "needed",
          "type": "uint256"
        }
      ],
      "name": "ERC20InsufficientAllowance",
      "type": "error"
    },
    {
      "inputs": [
        {
          "internalType": "address",
          "name": "sender",
          "type": "address"
        },
        {
          "internalType": "uint256",
          "name": "balance",
          "type": "uint256"
        },
        {
          "internalType": "uint256",
          "name": "needed",
          "type": "uint256"
        }
      ],
      "name": "ERC20InsufficientBalance",
      "type": "error"
    },
    {
      "inputs": [
        {
          "internalType": "address",
          "name": "approver",
          "type": "address"
        }
      ],
      "name": "ERC20InvalidApprover",
      "type": "error"
    },
    {
      "inputs": [
        {
          "internalType": "address",
          "name": "receiver",
          "type": "address"
        }
      ],
      "name": "ERC20InvalidReceiver",
      "type": "error"
    },
    {
      "inputs": [
        {
          "internalType": "address",
          "name": "sender",
          "type": "address"
        }
      ],
      "name": "ERC20InvalidSender",
      "type": "error"
    },
    {
      "inputs": [
        {
          "internalType": "address",
          "name": "spender",
          "type": "address"
        }
      ],
      "name": "ERC20InvalidSpender",
      "type": "error"
    },
    {
      "inputs": [
        {
          "internalType": "address",
          "name": "owner",
          "type": "address"
        }
      ],
      "name": "OwnableInvalidOwner",
      "type": "error"
    },
    {
      "inputs": [
        {
          "internalType": "address",
          "name": "account",
          "type": "address"
        }
      ],
      "name": "OwnableUnauthorizedAccount",
      "type": "error"
    },
    {
      "anonymous": false,
      "inputs": [
        {
          "indexed": true,
          "internalType": "address",
          "name": "owner",
          "type": "address"
        },
        {
          "indexed": true,
          "internalType": "address",
          "name": "spender",
          "type": "address"
        },
        {
          "indexed": false,
          "internalType": "uint256",
          "name": "value",
          "type": "uint256"
        }
      ],
      "name": "Approval",
      "type": "event"
    },
    {
      "anonymous": false,
      "inputs": [
        {
          "indexed": true,
          "internalType": "address",
          "name": "_compliance",
          "type": "address"
        }
      ],
      "name": "ComplianceAdded",
      "type": "event"
    },
    {
      "anonymous": false,
      "inputs": [
        {
          "indexed": true,
          "internalType": "address",
          "name": "_from",
          "type": "address"
        },
        {
          "indexed": true,
          "internalType": "address",
          "name": "_to",
          "type": "address"
        },
        {
          "indexed": false,
          "internalType": "uint256",
          "name": "_amount",
          "type": "uint256"
        }
      ],
      "name": "ForcedTransfer",
      "type": "event"
    },
    {
      "anonymous": false,
      "inputs": [
        {
          "indexed": true,
          "internalType": "address",
          "name": "_identityRegistry",
          "type": "address"
        }
      ],
      "name": "IdentityRegistryAdded",
      "type": "event"
    },
    {
      "anonymous": false,
      "inputs": [
        {
          "indexed": true,
          "internalType": "address",
          "name": "_wallet",
          "type": "address"
        },
        {
          "indexed": true,
          "internalType": "address",
          "name": "_onchainID",
          "type": "address"
        }
      ],
      "name": "OnchainIDSet",
      "type": "event"
    },
    {
      "anonymous": false,
      "inputs": [
        {
          "indexed": true,
          "internalType": "address",
          "name": "previousOwner",
          "type": "address"
        },
        {
          "indexed": true,
          "internalType": "address",
          "name": "newOwner",
          "type": "address"
        }
      ],
      "name": "OwnershipTransferred",
      "type": "event"
    },
    {
      "anonymous": false,
      "inputs": [
        {
          "indexed": true,
          "internalType": "bytes32",
          "name": "role",
          "type": "bytes32"
        },
        {
          "indexed": true,
          "internalType": "bytes32",
          "name": "previousAdminRole",
          "type": "bytes32"
        },
        {
          "indexed": true,
          "internalType": "bytes32",
          "name": "newAdminRole",
          "type": "bytes32"
        }
      ],
      "name": "RoleAdminChanged",
      "type": "event"
    },
    {
      "anonymous": false,
      "inputs": [
        {
          "indexed": true,
          "internalType": "bytes32",
          "name": "role",
          "type": "bytes32"
        },
        {
          "indexed": true,
          "internalType": "address",
          "name": "account",
          "type": "address"
        },
        {
          "indexed": true,
          "internalType": "address",
          "name": "sender",
          "type": "address"
        }
      ],
      "name": "RoleGranted",
      "type": "event"
    },
    {
      "anonymous": false,
      "inputs": [
        {
          "indexed": true,
          "internalType": "bytes32",
          "name": "role",
          "type": "bytes32"
        },
        {
          "indexed": true,
          "internalType": "address",
          "name": "account",
          "type": "address"
        },
        {
          "indexed": true,
          "internalType": "address",
          "name": "sender",
          "type": "address"
        }
      ],
      "name": "RoleRevoked",
      "type": "event"
    },
    {
      "anonymous": false,
      "inputs": [
        {
          "indexed": true,
          "internalType": "address",
          "name": "from",
          "type": "address"
        },
        {
          "indexed": true,
          "internalType": "address",
          "name": "to",
          "type": "address"
        },
        {
          "indexed": false,
          "internalType": "uint256",
          "name": "value",
          "type": "uint256"
        }
      ],
      "name": "Transfer",
      "type": "event"
    },
    {
      "inputs": [],
      "name": "AGENT_ROLE",
      "outputs": [
        {
          "internalType": "bytes32",
          "name": "",
          "type": "bytes32"
        }
      ],
      "stateMutability": "view",
      "type": "function"
    },
    {
      "inputs": [],
      "name": "COMPLIANCE_ROLE",
      "outputs": [
        {
          "internalType": "bytes32",
          "name": "",
          "type": "bytes32"
        }
      ],
      "stateMutability": "view",
      "type": "function"
    },
    {
      "inputs": [],
      "name": "DEFAULT_ADMIN_ROLE",
      "outputs": [
        {
          "internalType": "bytes32",
          "name": "",
          "type": "bytes32"
        }
      ],
      "stateMutability": "view",
      "type": "function"
    },
    {
      "inputs": [
        {
          "internalType": "address",
          "name": "_agent",
          "type": "address"
        }
      ],
      "name": "addAgent",
      "outputs": [],
      "stateMutability": "nonpayable",
      "type": "function"
    },
    {
      "inputs": [
        {
          "internalType": "address",
          "name": "_officer",
          "type": "address"
        }
      ],
      "name": "addComplianceOfficer",
      "outputs": [],
      "stateMutability": "nonpayable",
      "type": "function"
    },
    {
      "inputs": [
        {
          "internalType": "address",
          "name": "owner",
          "type": "address"
        },
        {
          "internalType": "address",
          "name": "spender",
          "type": "address"
        }
      ],
      "name": "allowance",
      "outputs": [
        {
          "internalType": "uint256",
          "name": "",
          "type": "uint256"
        }
      ],
      "stateMutability": "view",
      "type": "function"
    },
    {
      "inputs": [
        {
          "internalType": "address",
          "name": "spender",
          "type": "address"
        },
        {
          "internalType": "uint256",
          "name": "value",
          "type": "uint256"
        }
      ],
      "name": "approve",
      "outputs": [
        {
          "internalType": "bool",
          "name": "",
          "type": "bool"
        }
      ],
      "stateMutability": "nonpayable",
      "type": "function"
    },
    {
      "inputs": [
        {
          "internalType": "address",
          "name": "account",
          "type": "address"
        }
      ],
      "name": "balanceOf",
      "outputs": [
        {
          "internalType": "uint256",
          "name": "",
          "type": "uint256"
        }
      ],
      "stateMutability": "view",
      "type": "function"
    },
    {
      "inputs": [
        {
          "internalType": "address",
          "name": "_from",
          "type": "address"
        },
        {
          "internalType": "uint256",
          "name": "_amount",
          "type": "uint256"
        }
      ],
      "name": "burn",
      "outputs": [],
      "stateMutability": "nonpayable",
      "type": "function"
    },
    {
      "inputs": [
        {
          "internalType": "address",
          "name": "_from",
          "type": "address"
        },
        {
          "internalType": "address",
          "name": "_to",
          "type": "address"
        },
        {
          "internalType": "uint256",
          "name": "_amount",
          "type": "uint256"
        }
      ],
      "name": "canTransfer",
      "outputs": [
        {
          "internalType": "bool",
          "name": "",
          "type": "bool"
        }
      ],
      "stateMutability": "view",
      "type": "function"
    },
    {
      "inputs": [],
      "name": "compliance",
      "outputs": [
        {
          "internalType": "contract ICompliance",
          "name": "",
          "type": "address"
        }
      ],
      "stateMutability": "view",
      "type": "function"
    },
    {
      "inputs": [],
      "name": "decimals",
      "outputs": [
        {
          "internalType": "uint8",
          "name": "",
          "type": "uint8"
        }
      ],
      "stateMutability": "view",
      "type": "function"
    },
    {
      "inputs": [
        {
          "internalType": "address",
          "name": "_from",
          "type": "address"
        },
        {
          "internalType": "address",
          "name": "_to",
          "type": "address"
        },
        {
          "internalType": "uint256",
          "name": "_amount",
          "type": "uint256"
        }
      ],
      "name": "forcedTransfer",
      "outputs": [],
      "stateMutability": "nonpayable",
      "type": "function"
    },
    {
      "inputs": [
        {
          "internalType": "bytes32",
          "name": "role",
          "type": "bytes32"
        }
      ],
      "name": "getRoleAdmin",
      "outputs": [
        {
          "internalType": "bytes32",
          "name": "",
          "type": "bytes32"
        }
      ],
      "stateMutability": "view",
      "type": "function"
    },
    {
      "inputs": [],
      "name": "getTotalPropertyValue",
      "outputs": [
        {
          "internalType": "uint256",
          "name": "",
          "type": "uint256"
        }
      ],
      "stateMutability": "view",
      "type": "function"
    },
    {
      "inputs": [],
      "name": "getValuePerToken",
      "outputs": [
        {
          "internalType": "uint256",
          "name": "",
          "type": "uint256"
        }
      ],
      "stateMutability": "view",
      "type": "function"
    },
    {
      "inputs": [
        {
          "internalType": "bytes32",
          "name": "role",
          "type": "bytes32"
        },
        {
          "internalType": "address",
          "name": "account",
          "type": "address"
        }
      ],
      "name": "grantRole",
      "outputs": [],
      "stateMutability": "nonpayable",
      "type": "function"
    },
    {
      "inputs": [
        {
          "internalType": "bytes32",
          "name": "role",
          "type": "bytes32"
        },
        {
          "internalType": "address",
          "name": "account",
          "type": "address"
        }
      ],
      "name": "hasRole",
      "outputs": [
        {
          "internalType": "bool",
          "name": "",
          "type": "bool"
        }
      ],
      "stateMutability": "view",
      "type": "function"
    },
    {
      "inputs": [],
      "name": "identityRegistry",
      "outputs": [
        {
          "internalType": "contract IIdentityRegistry",
          "name": "",
          "type": "address"
        }
      ],
      "stateMutability": "view",
      "type": "function"
    },
    {
      "inputs": [
        {
          "internalType": "address",
          "name": "_to",
          "type": "address"
        },
        {
          "internalType": "uint256",
          "name": "_amount",
          "type": "uint256"
        }
      ],
      "name": "mint",
      "outputs": [],
      "stateMutability": "nonpayable",
      "type": "function"
    },
    {
      "inputs": [],
      "name": "name",
      "outputs": [
        {
          "internalType": "string",
          "name": "",
          "type": "string"
        }
      ],
      "stateMutability": "view",
      "type": "function"
    },
    {
      "inputs": [
        {
          "internalType": "address",
          "name": "_wallet",
          "type": "address"
        }
      ],
      "name": "onchainID",
      "outputs": [
        {
          "internalType": "address",
          "name": "",
          "type": "address"
        }
      ],
      "stateMutability": "view",
      "type": "function"
    },
    {
      "inputs": [],
      "name": "owner",
      "outputs": [
        {
          "internalType": "address",
          "name": "",
          "type": "address"
        }
      ],
      "stateMutability": "view",
      "type": "function"
    },
    {
      "inputs": [],
      "name": "propertyInfo",
      "outputs": [
        {
          "internalType": "string",
          "name": "propertyAddress",
          "type": "string"
        },
        {
          "internalType": "uint256",
          "name": "totalValue",
          "type": "uint256"
        },
        {
          "internalType": "uint256",
          "name": "totalShares",
          "type": "uint256"
        },
        {
          "internalType": "string",
          "name": "description",
          "type": "string"
        },
        {
          "internalType": "bool",
          "name": "isActive",
          "type": "bool"
        }
      ],
      "stateMutability": "view",
      "type": "function"
    },
    {
      "inputs": [
        {
          "internalType": "address",
          "name": "_agent",
          "type": "address"
        }
      ],
      "name": "removeAgent",
      "outputs": [],
      "stateMutability": "nonpayable",
      "type": "function"
    },
    {
      "inputs": [
        {
          "internalType": "address",
          "name": "_officer",
          "type": "address"
        }
      ],
      "name": "removeComplianceOfficer",
      "outputs": [],
      "stateMutability": "nonpayable",
      "type": "function"
    },
    {
      "inputs": [],
      "name": "renounceOwnership",
      "outputs": [],
      "stateMutability": "nonpayable",
      "type": "function"
    },
    {
      "inputs": [
        {
          "internalType": "bytes32",
          "name": "role",
          "type": "bytes32"
        },
        {
          "internalType": "address",
          "name": "callerConfirmation",
          "type": "address"
        }
      ],
      "name": "renounceRole",
      "outputs": [],
      "stateMutability": "nonpayable",
      "type": "function"
    },
    {
      "inputs": [
        {
          "internalType": "bytes32",
          "name": "role",
          "type": "bytes32"
        },
        {
          "internalType": "address",
          "name": "account",
          "type": "address"
        }
      ],
      "name": "revokeRole",
      "outputs": [],
      "stateMutability": "nonpayable",
      "type": "function"
    },
    {
      "inputs": [
        {
          "internalType": "address",
          "name": "_compliance",
          "type": "address"
        }
      ],
      "name": "setComplianceContract",
      "outputs": [],
      "stateMutability": "nonpayable",
      "type": "function"
    },
    {
      "inputs": [
        {
          "internalType": "address",
          "name": "_identityRegistry",
          "type": "address"
        }
      ],
      "name": "setIdentityRegistry",
      "outputs": [],
      "stateMutability": "nonpayable",
      "type": "function"
    },
    {
      "inputs": [
        {
          "internalType": "address",
          "name": "_onchainID",
          "type": "address"
        }
      ],
      "name": "setOnchainID",
      "outputs": [],
      "stateMutability": "nonpayable",
      "type": "function"
    },
    {
      "inputs": [
        {
          "internalType": "bytes4",
          "name": "interfaceId",
          "type": "bytes4"
        }
      ],
      "name": "supportsInterface",
      "outputs": [
        {
          "internalType": "bool",
          "name": "",
          "type": "bool"
        }
      ],
      "stateMutability": "view",
      "type": "function"
    },
    {
      "inputs": [],
      "name": "symbol",
      "outputs": [
        {
          "internalType": "string",
          "name": "",
          "type": "string"
        }
      ],
      "stateMutability": "view",
      "type": "function"
    },
    {
      "inputs": [],
      "name": "totalSupply",
      "outputs": [
        {
          "internalType": "uint256",
          "name": "",
          "type": "uint256"
        }
      ],
      "stateMutability": "view",
      "type": "function"
    },
    {
      "inputs": [
        {
          "internalType": "address",
          "name": "_to",
          "type": "address"
        },
        {
          "internalType": "uint256",
          "name": "_amount",
          "type": "uint256"
        }
      ],
      "name": "transfer",
      "outputs": [
        {
          "internalType": "bool",
          "name": "",
          "type": "bool"
        }
      ],
      "stateMutability": "nonpayable",
      "type": "function"
    },
    {
      "inputs": [
        {
          "internalType": "address",
          "name": "_from",
          "type": "address"
        },
        {
          "internalType": "address",
          "name": "_to",
          "type": "address"
        },
        {
          "internalType": "uint256",
          "name": "_amount",
          "type": "uint256"
        }
      ],
      "name": "transferFrom",
      "outputs": [
        {
          "internalType": "bool",
          "name": "",
          "type": "bool"
        }
      ],
      "stateMutability": "nonpayable",
      "type": "function"
    },
    {
      "inputs": [
        {
          "internalType": "address",
          "name": "newOwner",
          "type": "address"
        }
      ],
      "name": "transferOwnership",
      "outputs": [],
      "stateMutability": "nonpayable",
      "type": "function"
    },
    {
      "inputs": [
        {
          "components": [
            {
              "internalType": "string",
              "name": "propertyAddress",
              "type": "string"
            },
            {
              "internalType": "uint256",
              "name": "totalValue",
              "type": "uint256"
            },
            {
              "internalType": "uint256",
              "name": "totalShares",
              "type": "uint256"
            },
            {
              "internalType": "string",
              "name": "description",
              "type": "string"
            },
            {
              "internalType": "bool",
              "name": "isActive",
              "type": "bool"
            }
          ],
          "internalType": "struct RealEstateToken.PropertyInfo",
          "name": "_propertyInfo",
          "type": "tuple"
        }
      ],
      "name": "updatePropertyInfo",
      "outputs": [],
      "stateMutability": "nonpayable",
      "type": "function"
    }
  ],
  "bytecode": "0x60806040523462000cc357620030cb803803806200001d8162000cc8565b928339810160c08282031262000cc35781516001600160401b03811162000cc357816200004c91840162000cee565b60208301516001600160401b03811162000cc357826200006e91850162000cee565b60408401519060ff8216820362000cc3576200008d6060860162000d60565b926200009c6080870162000d60565b60a087015190966001600160401b03821162000cc357019460a08682031262000cc3576040519560a087016001600160401b03811188821017620006595760405280516001600160401b03811162000cc35782620000fc91830162000cee565b8752602081810151908801526040808201519088015260608101516001600160401b03811162000cc3576080926200013691830162000cee565b60608801520151801515810362000cc357608086015280516001600160401b0381116200065957600354600181811c9116801562000cb8575b60208210146200063857601f811162000c52575b50806020601f821160011462000bc95760009162000bbd575b508160011b916000199060031b1c1916176003555b81516001600160401b0381116200065957600454600181811c9116801562000bb2575b60208210146200063857601f811162000b4b575b50806020601f821160011462000ac25760009162000ab6575b508160011b916000199060031b1c1916176004555b331562000a9d5760058054336001600160a01b03198216811790925560405191906001600160a01b03167f8be0079c531659141344cd1fd0a4f28419497f9722a3daafe3b4186f6b6457e0600080a36001600160a01b0385161562000a5b57506001600160a01b0386161562000a165784515115620009d1576020850151156200098c5760408501511562000947578051906001600160401b0382116200065957600a5490600182811c921680156200093c575b6020831014620006385781601f849311620008d8575b50602090601f83116001146200085a576000926200084e575b50508160011b916000199060031b1c191617600a555b8051906001600160401b0382116200065957600b54600181811c9116801562000843575b60208210146200063857601f8111620007dd575b50602090601f8311600114620007695760ff939291600091836200075d575b50508160011b916000199060031b1c191617600b555b600c80549190921660ff19909116179055600780546001600160a01b038381166001600160a01b0319928316179092556008805492861692909116919091179055815180519093906001600160401b0381116200065957600d54600181811c9116801562000752575b60208210146200063857601f8111620006e8575b50602094601f82116001146200067b579481929394956000926200066f575b50508160011b916000199060031b1c191617600d555b6020830151600e556040830151600f55606083015180519093906001600160401b0381116200065957601054600181811c911680156200064e575b60208210146200063857601f8111620005df575b506020601f821160011462000561578190608094959660009262000555575b50508160011b916000199060031b1c1916176010555b0151151560ff801960115416911617601155620004cf3362000d75565b50620004db3362000df6565b50620004e73362000e99565b50604051916001600160a01b03167fd2be862d755bca7e0d39772b2cab3a5578da9c285f69199f4c063c2294a7f36c600080a26001600160a01b03167f7f3a888862559648ec01d97deb7b5012bff86dc91e654a1de397170db40e35b6600080a2612133908162000f388239f35b0151905038806200049c565b60106000908152600080516020620030ab8339815191529690601f198416905b818110620005c6575091608095969791846001959410620005ac575b505050811b01601055620004b2565b015160001960f88460031b161c191690553880806200059d565b8383015189556001909801976020938401930162000581565b6010600052600080516020620030ab833981519152601f830160051c810191602084106200062d575b601f0160051c01905b8181106200062057506200047d565b6000815560010162000611565b909150819062000608565b634e487b7160e01b600052602260045260246000fd5b90607f169062000469565b634e487b7160e01b600052604160045260246000fd5b01519050388062000418565b601f19821695600d60005260206000209160005b888110620006cf57508360019596979810620006b5575b505050811b01600d556200042e565b015160001960f88460031b161c19169055388080620006a6565b919260206001819286850151815501940192016200068f565b600d6000527fd7b6990105719101dabeb77144f2a3385c8033acd3af97e9423a695e81ad1eb5601f830160051c8101916020841062000747575b601f0160051c01905b8181106200073a5750620003f9565b600081556001016200072b565b909150819062000722565b90607f1690620003e5565b01519050388062000366565b90600b60005260206000209160005b601f1985168110620007c4575091839160019360ff9695601f19811610620007aa575b505050811b01600b556200037c565b015160001960f88460031b161c191690553880806200079b565b9192602060018192868501518155019401920162000778565b600b6000527f0175b7a638427703f0dbe7bb9bbf987a2551717b34e79f33b5b1008d1fa01db9601f840160051c8101602085106200083b575b601f830160051c820181106200082e57505062000347565b6000815560010162000816565b508062000816565b90607f169062000333565b015190503880620002f9565b600a600090815293506000805160206200308b83398151915291905b601f1984168510620008bc576001945083601f19811610620008a2575b505050811b01600a556200030f565b015160001960f88460031b161c1916905538808062000893565b8181015183556020948501946001909301929091019062000876565b600a6000529091506000805160206200308b833981519152601f840160051c8101916020851062000931575b90601f859493920160051c01905b818110620009215750620002e0565b6000815584935060010162000912565b909150819062000904565b91607f1691620002ca565b60405162461bcd60e51b815260206004820152601460248201527f496e76616c696420746f74616c207368617265730000000000000000000000006044820152606490fd5b60405162461bcd60e51b815260206004820152601660248201527f496e76616c69642070726f70657274792076616c7565000000000000000000006044820152606490fd5b60405162461bcd60e51b815260206004820152601860248201527f496e76616c69642070726f7065727479206164647265737300000000000000006044820152606490fd5b60405162461bcd60e51b815260206004820152601b60248201527f496e76616c696420636f6d706c69616e636520636f6e747261637400000000006044820152606490fd5b62461bcd60e51b815260206004820152601960248201527f496e76616c6964206964656e74697479207265676973747279000000000000006044820152606490fd5b604051631e4fbdf760e01b815260006004820152602490fd5b90508301513862000201565b600460009081527f8a35acfbc15ff81a39ae7d344fd709f28e8600b4aa8c65c6b64bfe7fe36bd19b9250601f198416905b81811062000b325750908360019493921062000b18575b5050811b0160045562000216565b85015160001960f88460031b161c19169055388062000b0a565b9192602060018192868a01518155019401920162000af3565b60046000527f8a35acfbc15ff81a39ae7d344fd709f28e8600b4aa8c65c6b64bfe7fe36bd19b6005601f8401811c82016020851062000baa575b601f8401821c8301811062000b9d57505050620001e8565b6000815560010162000b85565b508162000b85565b90607f1690620001d4565b9050820151386200019c565b600360009081527fc2575a0e9e593c00f959f8c92f12db2869c3395a3b0502d05e2516446f71f85b9250601f198416905b81811062000c395750908360019493921062000c1f575b5050811b01600355620001b1565b84015160001960f88460031b161c19169055388062000c11565b9192602060018192868901518155019401920162000bfa565b60036000527fc2575a0e9e593c00f959f8c92f12db2869c3395a3b0502d05e2516446f71f85b601f830160051c81016020841062000cb0575b601f830160051c8201811062000ca357505062000183565b6000815560010162000c8b565b508062000c8b565b90607f16906200016f565b600080fd5b6040519190601f01601f191682016001600160401b038111838210176200065957604052565b919080601f8401121562000cc35782516001600160401b038111620006595760209062000d24601f8201601f1916830162000cc8565b9281845282828701011162000cc35760005b81811062000d4c57508260009394955001015290565b858101830151848201840152820162000d36565b51906001600160a01b038216820362000cc357565b6001600160a01b031660008181527f54cdd369e4e8a8515e52ca72ec816c2101831ad1f18bf44102ed171459c9b4f8602052604081205490919060ff1662000df25781805260066020526040822081835260205260408220600160ff1982541617905533916000805160206200306b8339815191528180a4600190565b5090565b6001600160a01b031660008181527f4448119502453e295a09f7d4e8a6a0575d3624c233f99f59abf0835bf259780a60205260408120549091907fcab5a0bfe0b79d2c4b1c2e02599fa044d115b7511f9659307cb42769509677099060ff1662000e945780835260066020526040832082845260205260408320600160ff198254161790556000805160206200306b833981519152339380a4600190565b505090565b6001600160a01b031660008181527f84103e4942d70d0389ab910bdcdf181c3e028bc1897fe6797bb191ac79d8088260205260408120549091907f442a94f1a1fac79af32856af2a64f63648cfa2ef3b98610a5bb7cbec4cee69859060ff1662000e945780835260066020526040832082845260205260408320600160ff198254161790556000805160206200306b833981519152339380a460019056fe6080604081815260048036101561001557600080fd5b600092833560e01c90816301ffc9a71461189b57508063062d3bd71461187257806306fdde031461179f578063095ea7b3146116f6578063134e18f4146116cd57806318160ddd146116ae57806322459e181461168557806323b872dd14611596578063248a9ca31461156c57806329511271146115425780632b06ac72146115235780632f2ff15d146114fa578063313ce567146114d857806336568abe146114915780633d1ddc5b146113eb57806340c10f19146111915780635cfbeb7714610fc05780636290865d14610f9757806365614b8514610b2857806370a0823114610af1578063715018a614610a9457806384e7984214610a1d5780638da5cb5b146109f457806391d14854146109ae57806395d89b41146108c457806397a6278e146108975780639dc29fac1461073d5780639fc1d0e7146105b0578063a217fddf14610595578063a9059cbb14610551578063bb33ec0a1461052d578063cbf3f8611461047d578063ccf2258b146103fe578063d547741f146103bf578063dd62ed3e14610376578063e46638e614610351578063ed2c184f14610312578063f2fde38b146102835763f8de2545146101d057600080fd5b3461027f57602036600319011261027f576101e961192f565b6101f1611e05565b6001600160a01b031691821561023c575050600880546001600160a01b031916821790557f7f3a888862559648ec01d97deb7b5012bff86dc91e654a1de397170db40e35b68280a280f35b906020606492519162461bcd60e51b8352820152601b60248201527f496e76616c696420636f6d706c69616e636520636f6e747261637400000000006044820152fd5b8280fd5b503461027f57602036600319011261027f5761029d61192f565b906102a6611e05565b6001600160a01b039182169283156102fc575050600554826bffffffffffffffffffffffff60a01b821617600555167f8be0079c531659141344cd1fd0a4f28419497f9722a3daafe3b4186f6b6457e08380a380f35b51631e4fbdf760e01b8152908101849052602490fd5b50503461034d57602036600319011261034d576020916001600160a01b039082908261033c61192f565b168152600985522054169051908152f35b5080fd5b50503461034d5760209061036d61036736611960565b91611e49565b90519015158152f35b50503461034d578060031936011261034d578060209261039461192f565b61039c61194a565b6001600160a01b0391821683526001865283832091168252845220549051908152f35b50903461027f578060031936011261027f576103fa91356103f560016103e361194a565b93838752600660205286200154611a5e565b611d8e565b5080f35b503461027f57602036600319011261027f5761041861192f565b91610421611e05565b6001600160a01b0383161561043a57836103fa84611b43565b906020606492519162461bcd60e51b8352820152601760248201527f496e76616c6964206f66666963657220616464726573730000000000000000006044820152fd5b503461027f57602036600319011261027f5761049761192f565b61049f611e05565b6001600160a01b03169182156104ea575050600780546001600160a01b031916821790557fd2be862d755bca7e0d39772b2cab3a5578da9c285f69199f4c063c2294a7f36c8280a280f35b906020606492519162461bcd60e51b8352820152601960248201527f496e76616c6964206964656e74697479207265676973747279000000000000006044820152fd5b50503461034d578160031936011261034d5760209061054a6120a7565b9051908152f35b50503461034d578060031936011261034d5760209061058e61057161192f565b60243590610588610583838333611e49565b61201f565b33611f41565b5160018152f35b50503461034d578160031936011261034d5751908152602090f35b50903461027f576105c036611960565b9091926000805160206120be833981519152865260209260068452818720338852845260ff82882054168015610729575b156106dc576001600160a01b03858116959086156106a257821696871561066a575083809392610662926106487f7b3ce50c216d2ccf9919c6b9f1bfb33f0350a33010f188750b4af38e0044813898971515611ec1565b888b528a875261065d83868d20541015611efe565b611f41565b51908152a380f35b835162461bcd60e51b81529081018690526012602482015271496e76616c696420746f206164647265737360701b6044820152606490fd5b835162461bcd60e51b81528089018790526014602482015273496e76616c69642066726f6d206164647265737360601b6044820152606490fd5b815162461bcd60e51b8152808701859052602160248201527f4e6f7420617574686f72697a656420636f6d706c69616e6365206f66666963656044820152603960f91b6064820152608490fd5b506005546001600160a01b031633146105f1565b5091903461034d578060031936011261034d5761075861192f565b90602435906000805160206120de833981519152845260209460068652818520338652865260ff82862054168015610883575b61079490612064565b6001600160a01b03841693841561084f576107b0841515611ec1565b8486528587526107c584848820541015611efe565b848652858752828620549184831061081b57505091849591817fddf252ad1be2c89b69c2b068fc378daa952ba7f163c4a11628f55a4df523b3ef948688528785520381872055816002540360025551908152a380f35b835163391434e360e21b81526001600160a01b03909216908201908152602081018390526040810185905281906060010390fd5b5085606492519162461bcd60e51b8352820152600f60248201526e496e76616c6964206164647265737360881b6044820152fd5b506005546001600160a01b0316331461078b565b83346108c15760203660031901126108c1576103fa6108b461192f565b6108bc611e05565b611cf4565b80fd5b50903461027f578260031936011261027f57805191838154906108e682611995565b808652926001928084169081156109835750600114610927575b6109238686610911828b03836119cf565b519182916020835260208301906118ef565b0390f35b815294507f8a35acfbc15ff81a39ae7d344fd709f28e8600b4aa8c65c6b64bfe7fe36bd19b5b82861061096b57505050610911826020610923958201019438610900565b8054602087870181019190915290950194810161094d565b905061092397508693506020925061091194915060ff191682840152151560051b8201019438610900565b503461027f578160031936011261027f578160209360ff926109ce61194a565b90358252600686528282206001600160a01b039091168252855220549151911615158152f35b50503461034d578160031936011261034d5760055490516001600160a01b039091168152602090f35b503461027f57602036600319011261027f57610a3761192f565b91610a40611e05565b6001600160a01b03831615610a5957836103fa84611aa2565b906020606492519162461bcd60e51b83528201526015602482015274496e76616c6964206167656e74206164647265737360581b6044820152fd5b83346108c157806003193601126108c157610aad611e05565b600580546001600160a01b0319811690915581906001600160a01b03167f8be0079c531659141344cd1fd0a4f28419497f9722a3daafe3b4186f6b6457e08280a380f35b50503461034d57602036600319011261034d5760209181906001600160a01b03610b1961192f565b16815280845220549051908152f35b5091903461034d5760031960203682018113610f935784359067ffffffffffffffff92838311610f8f5760a0908336030112610f8b57835160a0810181811085821117610f7857855282870135848111610f7457610b8b90883691860101611a07565b81528181019260249182820135855286810190604483013582526064830135878111610f7057610bc26084918c3691870101611a07565b93606083019485520135978815158903610f705760808201988952610be5611e05565b81515115610f2f57865115610ef557825115610ebd575051948551878111610eab5780610c13600d54611995565b97601f98898111610e40575b508790898311600114610dbd578c92610db2575b50508160011b916000199060031b1c191617600d555b51600e5551600f5551968751948511610da1575050610c69601054611995565b828111610d42575b5080918311600114610cbe5750839482939492610cb3575b50508160011b916000199060031b1c1916176010555b51151560ff80196011541691161760115580f35b015190503880610c89565b60108552601f198316957f1b6847dc741a1b0cd08d278845f9d819d87b734759afb55fe2de5cb82a9ae672929186905b888210610d2a57505083600195969710610d11575b505050811b01601055610c9f565b015160001960f88460031b161c19169055388080610d03565b80600185968294968601518155019501930190610cee565b601086527f1b6847dc741a1b0cd08d278845f9d819d87b734759afb55fe2de5cb82a9ae6728380860160051c820192848710610d98575b0160051c01905b818110610d8d5750610c71565b868155600101610d80565b92508192610d79565b634e487b7160e01b87526041905285fd5b015190503880610c33565b600d8d527fd7b6990105719101dabeb77144f2a3385c8033acd3af97e9423a695e81ad1eb59250601f1984168d5b8a828210610e2a575050908460019594939210610e11575b505050811b01600d55610c49565b015160001960f88460031b161c19169055388080610e03565b6001859682939686015181550195019301610deb565b909150600d8c527fd7b6990105719101dabeb77144f2a3385c8033acd3af97e9423a695e81ad1eb58980850160051c8201928a8610610ea2575b9085949392910160051c01905b818110610e945750610c1f565b8d8155849350600101610e87565b92508192610e7a565b634e487b7160e01b8a5260418b52848afd5b5162461bcd60e51b8152808b0186905260148186015273496e76616c696420746f74616c2073686172657360601b6044820152606490fd5b5162461bcd60e51b8152808b0186905260168186015275496e76616c69642070726f70657274792076616c756560501b6044820152606490fd5b5162461bcd60e51b8152808b018690526018818601527f496e76616c69642070726f7065727479206164647265737300000000000000006044820152606490fd5b8980fd5b8680fd5b634e487b7160e01b875260418852602487fd5b8480fd5b8580fd5b8380fd5b50503461034d578160031936011261034d5760085490516001600160a01b039091168152602090f35b50503461034d578160031936011261034d5780519082600d549083610fe483611995565b9182825260019384811690816000146111725750600114611114575b61100c925003846119cf565b600e5490600f549083519580916010549161102683611995565b808a52928281169081156110ea5750600114611091575b5050509461108592916110558261106f9803836119cf565b60ff6011541694805197889760a0895260a08901906118ef565b93602088015286015284820360608601526118ef565b90151560808301520390f35b9250601083527f1b6847dc741a1b0cd08d278845f9d819d87b734759afb55fe2de5cb82a9ae6725b8284106110d2575050508501602001816110558761103d565b80546020858b018101919091529093019281016110b9565b60ff19166020808c019190915293151560051b8a019093019350849250611055915088905061103d565b50600d8652908590837fd7b6990105719101dabeb77144f2a3385c8033acd3af97e9423a695e81ad1eb55b8284106111585750505090602061100c92820101611000565b6020929450805483858a010152019101909183869361113f565b6020925061100c94915060ff191682840152151560051b820101611000565b50903461027f578060031936011261027f576111ab61192f565b916024918235916000805160206120de833981519152865260209360068552828720338852855260ff838820541680156113d7575b6111e990612064565b6001600160a01b039586169586156113a257611206851515611ec1565b8186826007541686519283809263b9209e3360e01b82528c898301525afa90811561139857899161137b575b50156113415785606491600854168551928380926372331c7360e11b82528c888301528b878301528960448301525afa90811561133757889161130a575b50156112d557600254918483018093116112c45750506002558385528483528085208054830190555190815283917fddf252ad1be2c89b69c2b068fc378daa952ba7f163c4a11628f55a4df523b3ef91a380f35b634e487b7160e01b88526011905286fd5b60129085606494519362461bcd60e51b855284015282015271135a5b9d081b9bdd0818dbdb5c1b1a585b9d60721b6044820152fd5b61132a9150863d8811611330575b61132281836119cf565b810190611e31565b38611270565b503d611318565b84513d8a823e3d90fd5b5060169085606494519362461bcd60e51b855284015282015275149958da5c1a595b9d081b9bdd081d995c9a599a595960521b6044820152fd5b6113929150873d89116113305761132281836119cf565b38611232565b85513d8b823e3d90fd5b5060119085606494519362461bcd60e51b855284015282015270125b9d985b1a59081c9958da5c1a595b9d607a1b6044820152fd5b506005546001600160a01b031633146111e0565b50903461027f57602036600319011261027f576001600160a01b0361140e61192f565b1691821561145a575033808452600960205290832080546001600160a01b031916831790557ffa8b688967b8ab251458b0516cd38d119af52e289688a810d13bcd39cc379e498380a380f35b6020606492519162461bcd60e51b83528201526012602482015271125b9d985b1a59081bdb98da185a5b88125160721b6044820152fd5b5091903461034d578060031936011261034d576114ac61194a565b90336001600160a01b038316036114c957506103fa919235611d8e565b5163334bd91960e11b81528390fd5b50503461034d578160031936011261034d5760209060ff600c54169051908152f35b50903461027f578060031936011261027f576103fa913561151e60016103e361194a565b611bdf565b50503461034d578160031936011261034d57602090600e549051908152f35b83346108c15760203660031901126108c1576103fa61155f61192f565b611567611e05565b611c5a565b503461027f57602036600319011261027f5781602093600192358152600685522001549051908152f35b5082903461034d576115a736611960565b9390926115b8610583868686611e49565b6001600160a01b038316808352600160209081528784203385529052868320549160001983106115f1575b60208861058e898989611f41565b86831061165957811561164257331561162b5750825260016020908152868320338452815291869020908590039055829061058e876115e3565b8751634a1406b160e11b8152908101849052602490fd5b875163e602df0560e01b8152908101849052602490fd5b8751637dc7a0d960e11b8152339181019182526020820193909352604081018790528291506060010390fd5b50503461034d578160031936011261034d57602090516000805160206120de8339815191528152f35b50503461034d578160031936011261034d576020906002549051908152f35b50503461034d578160031936011261034d5760075490516001600160a01b039091168152602090f35b503461027f578160031936011261027f5761170f61192f565b602435903315611788576001600160a01b031691821561177157508083602095338152600187528181208582528752205582519081527f8c5be1e5ebec7d5bd14f71427d1e84f3dd0314c0f7b2291e5b200ac8c7c3b925843392a35160018152f35b8351634a1406b160e11b8152908101859052602490fd5b835163e602df0560e01b8152808401869052602490fd5b50503461034d578160031936011261034d57805190826003546117c181611995565b8085529160019180831690811561184a57506001146117ed575b505050610911826109239403836119cf565b9450600385527fc2575a0e9e593c00f959f8c92f12db2869c3395a3b0502d05e2516446f71f85b5b8286106118325750505061091182602061092395820101946117db565b80546020878701810191909152909501948101611815565b61092397508693506020925061091194915060ff191682840152151560051b820101946117db565b50503461034d578160031936011261034d57602090516000805160206120be8339815191528152f35b9250503461027f57602036600319011261027f573563ffffffff60e01b811680910361027f5760209250637965db0b60e01b81149081156118de575b5015158152f35b6301ffc9a760e01b149050386118d7565b919082519283825260005b84811061191b575050826000602080949584010152601f8019910116010190565b6020818301810151848301820152016118fa565b600435906001600160a01b038216820361194557565b600080fd5b602435906001600160a01b038216820361194557565b6060906003190112611945576001600160a01b0390600435828116810361194557916024359081168103611945579060443590565b90600182811c921680156119c5575b60208310146119af57565b634e487b7160e01b600052602260045260246000fd5b91607f16916119a4565b90601f8019910116810190811067ffffffffffffffff8211176119f157604052565b634e487b7160e01b600052604160045260246000fd5b81601f820112156119455780359067ffffffffffffffff82116119f15760405192611a3c601f8401601f1916602001856119cf565b8284526020838301011161194557816000926020809301838601378301015290565b80600052600660205260406000203360005260205260ff6040600020541615611a845750565b6044906040519063e2517d3f60e01b82523360048301526024820152fd5b6001600160a01b031660008181527f4448119502453e295a09f7d4e8a6a0575d3624c233f99f59abf0835bf259780a60205260408120549091906000805160206120de8339815191529060ff16611b3e5780835260066020526040832082845260205260408320600160ff198254161790557f2f8788117e7eff1d82e926ec794901d17c78024a50270940304540a733656f0d339380a4600190565b505090565b6001600160a01b031660008181527f84103e4942d70d0389ab910bdcdf181c3e028bc1897fe6797bb191ac79d8088260205260408120549091906000805160206120be8339815191529060ff16611b3e5780835260066020526040832082845260205260408320600160ff198254161790557f2f8788117e7eff1d82e926ec794901d17c78024a50270940304540a733656f0d339380a4600190565b906000918083526006602052604083209160018060a01b03169182845260205260ff60408420541615600014611b3e5780835260066020526040832082845260205260408320600160ff198254161790557f2f8788117e7eff1d82e926ec794901d17c78024a50270940304540a733656f0d339380a4600190565b6001600160a01b031660008181527f84103e4942d70d0389ab910bdcdf181c3e028bc1897fe6797bb191ac79d8088260205260408120549091906000805160206120be8339815191529060ff1615611b3e578083526006602052604083208284526020526040832060ff1981541690557ff6391f5c32d9c69d2a47ea670b442974b53935d1edc7fd64eb21e047a839171b339380a4600190565b6001600160a01b031660008181527f4448119502453e295a09f7d4e8a6a0575d3624c233f99f59abf0835bf259780a60205260408120549091906000805160206120de8339815191529060ff1615611b3e578083526006602052604083208284526020526040832060ff1981541690557ff6391f5c32d9c69d2a47ea670b442974b53935d1edc7fd64eb21e047a839171b339380a4600190565b906000918083526006602052604083209160018060a01b03169182845260205260ff604084205416600014611b3e578083526006602052604083208284526020526040832060ff1981541690557ff6391f5c32d9c69d2a47ea670b442974b53935d1edc7fd64eb21e047a839171b339380a4600190565b6005546001600160a01b03163303611e1957565b60405163118cdaa760e01b8152336004820152602490fd5b90816020910312611945575180151581036119455790565b6008546040516372331c7360e11b81526001600160a01b03928316600482015292821660248401526044830193909352909160209183916064918391165afa908115611eb557600091611e9a575090565b611eb2915060203d81116113305761132281836119cf565b90565b6040513d6000823e3d90fd5b15611ec857565b60405162461bcd60e51b815260206004820152600e60248201526d125b9d985b1a5908185b5bdd5b9d60921b6044820152606490fd5b15611f0557565b60405162461bcd60e51b8152602060048201526014602482015273496e73756666696369656e742062616c616e636560601b6044820152606490fd5b916001600160a01b038084169283156120065716928315611fed5760009083825281602052604082205490838210611fbb575091604082827fddf252ad1be2c89b69c2b068fc378daa952ba7f163c4a11628f55a4df523b3ef958760209652828652038282205586815220818154019055604051908152a3565b60405163391434e360e21b81526001600160a01b03919091166004820152602481019190915260448101839052606490fd5b60405163ec442f0560e01b815260006004820152602490fd5b604051634b637e8f60e11b815260006004820152602490fd5b1561202657565b60405162461bcd60e51b8152602060048201526016602482015275151c985b9cd9995c881b9bdd0818dbdb5c1b1a585b9d60521b6044820152606490fd5b1561206b57565b60405162461bcd60e51b8152602060048201526014602482015273139bdd08185d5d1a1bdc9a5e9959081859d95b9d60621b6044820152606490fd5b600f5480156120b757600e540490565b5060009056fe442a94f1a1fac79af32856af2a64f63648cfa2ef3b98610a5bb7cbec4cee6985cab5a0bfe0b79d2c4b1c2e02599fa044d115b7511f9659307cb4276950967709a2646970667358221220e698abe62d8f57c36a13a22017a714043f5f2f491fb965c28baefa44937e0f6d64736f6c634300081400332f8788117e7eff1d82e926ec794901d17c78024a50270940304540a733656f0dc65a7bb8d6351c1cf70c95a316cc6a92839c986682d98bc35f958f4883f9d2a81b6847dc741a1b0cd08d278845f9d819d87b734759afb55fe2de5cb82a9ae672",
  "linkReferences": {},
  "deployedLinkReferences": {}
}